
glcd.elf:     file format elf32-avr

Sections:
Idx Name          Size      VMA       LMA       File off  Algn
  0 .text         000035d8  00000000  00000000  00000094  2**1
                  CONTENTS, ALLOC, LOAD, READONLY, CODE
  1 .data         00000000  00800060  000035d8  0000366c  2**0
                  CONTENTS, ALLOC, LOAD, DATA
  2 .bss          00000409  00800060  00800060  0000366c  2**0
                  ALLOC
  3 .comment      00000030  00000000  00000000  0000366c  2**0
                  CONTENTS, READONLY
  4 .note.gnu.avr.deviceinfo 0000003c  00000000  00000000  0000369c  2**2
                  CONTENTS, READONLY
  5 .debug_info   000004e6  00000000  00000000  000036d8  2**0
                  CONTENTS, READONLY, DEBUGGING
  6 .debug_abbrev 000004a3  00000000  00000000  00003bbe  2**0
                  CONTENTS, READONLY, DEBUGGING
  7 .debug_line   0000001a  00000000  00000000  00004061  2**0
                  CONTENTS, READONLY, DEBUGGING
  8 .debug_str    00000196  00000000  00000000  0000407b  2**0
                  CONTENTS, READONLY, DEBUGGING

Disassembly of section .text:

00000000 <__vectors>:
       0:	0c 94 e0 0a 	jmp	0x15c0	; 0x15c0 <__ctors_end>
       4:	0c 94 f2 0a 	jmp	0x15e4	; 0x15e4 <__bad_interrupt>
       8:	0c 94 f2 0a 	jmp	0x15e4	; 0x15e4 <__bad_interrupt>
       c:	0c 94 f2 0a 	jmp	0x15e4	; 0x15e4 <__bad_interrupt>
      10:	0c 94 f2 0a 	jmp	0x15e4	; 0x15e4 <__bad_interrupt>
      14:	0c 94 f2 0a 	jmp	0x15e4	; 0x15e4 <__bad_interrupt>
      18:	0c 94 f2 0a 	jmp	0x15e4	; 0x15e4 <__bad_interrupt>
      1c:	0c 94 f2 0a 	jmp	0x15e4	; 0x15e4 <__bad_interrupt>
      20:	0c 94 f2 0a 	jmp	0x15e4	; 0x15e4 <__bad_interrupt>
      24:	0c 94 f2 0a 	jmp	0x15e4	; 0x15e4 <__bad_interrupt>
      28:	0c 94 f2 0a 	jmp	0x15e4	; 0x15e4 <__bad_interrupt>
      2c:	0c 94 f2 0a 	jmp	0x15e4	; 0x15e4 <__bad_interrupt>
      30:	0c 94 f2 0a 	jmp	0x15e4	; 0x15e4 <__bad_interrupt>
      34:	0c 94 f2 0a 	jmp	0x15e4	; 0x15e4 <__bad_interrupt>
      38:	0c 94 f2 0a 	jmp	0x15e4	; 0x15e4 <__bad_interrupt>
      3c:	0c 94 f2 0a 	jmp	0x15e4	; 0x15e4 <__bad_interrupt>
      40:	0c 94 f2 0a 	jmp	0x15e4	; 0x15e4 <__bad_interrupt>
      44:	0c 94 f2 0a 	jmp	0x15e4	; 0x15e4 <__bad_interrupt>
      48:	0c 94 f2 0a 	jmp	0x15e4	; 0x15e4 <__bad_interrupt>
      4c:	0c 94 f2 0a 	jmp	0x15e4	; 0x15e4 <__bad_interrupt>
      50:	0c 94 f2 0a 	jmp	0x15e4	; 0x15e4 <__bad_interrupt>

00000054 <__trampolines_end>:
      54:	53 6d       	ori	r21, 0xD3	; 211
      56:	61 6c       	ori	r22, 0xC1	; 193
      58:	6c 00       	.word	0x006c	; ????

0000005a <txt1>:
      5a:	42 69 67 00                                         Big.

0000005e <Font5x8>:
      5e:	05 00 00 00 00 00 05 00 00 5f 00 00 05 00 07 00     ........._......
      6e:	07 00 05 14 7f 14 7f 14 05 24 2a 7f 2a 12 05 23     .........$*.*..#
      7e:	13 08 64 62 05 36 49 56 20 50 05 08 07 03 00 00     ..db.6IV P......
      8e:	05 00 1c 22 41 00 05 00 41 22 1c 00 05 14 08 3e     ..."A...A".....>
      9e:	08 14 05 08 08 3e 08 08 05 00 b0 70 00 00 05 08     .....>.....p....
      ae:	08 08 08 08 05 00 60 60 00 00 05 20 10 08 04 02     ......``... ....
      be:	05 3e 51 49 45 3e 05 00 42 7f 40 00 05 72 49 49     .>QIE>..B.@..rII
      ce:	49 46 05 21 41 49 4d 33 05 18 14 12 7f 10 05 27     IF.!AIM3.......'
      de:	45 45 45 39 05 3c 4a 49 49 31 05 41 21 11 09 07     EEE9.<JII1.A!...
      ee:	05 36 49 49 49 36 05 46 49 49 29 1e 05 00 00 14     .6III6.FII).....
      fe:	00 00 05 00 40 34 00 00 05 08 14 22 41 00 05 14     ....@4....."A...
     10e:	14 14 14 14 05 41 22 14 08 00 05 02 01 59 09 06     .....A"......Y..
     11e:	05 3e 41 5d 59 4e 05 7c 12 11 12 7c 05 7f 49 49     .>A]YN.|...|..II
     12e:	49 36 05 3e 41 41 41 22 05 7f 41 41 41 3e 05 7f     I6.>AAA"..AAA>..
     13e:	49 49 49 49 05 7f 09 09 09 09 05 3e 41 41 51 73     IIII.......>AAQs
     14e:	05 7f 08 08 08 7f 05 00 41 7f 41 00 05 20 40 41     ........A.A.. @A
     15e:	3f 01 05 7f 08 14 22 41 05 7f 40 40 40 40 05 7f     ?....."A..@@@@..
     16e:	02 0c 02 7f 05 7f 04 08 10 7f 05 3e 41 41 41 3e     ...........>AAA>
     17e:	05 7f 09 09 09 06 05 3e 41 51 21 5e 05 7f 09 19     .......>AQ!^....
     18e:	29 46 05 26 49 49 49 32 05 01 01 7f 01 01 05 3f     )F.&III2.......?
     19e:	40 40 40 3f 05 1f 20 40 20 1f 05 3f 40 38 40 3f     @@@?.. @ ..?@8@?
     1ae:	05 63 14 08 14 63 05 03 04 78 04 03 05 61 51 49     .c...c...x...aQI
     1be:	45 43 05 00 7f 41 41 00 05 02 04 08 10 20 05 00     EC...AA...... ..
     1ce:	41 41 7f 00 05 04 02 01 02 04 05 40 40 40 40 40     AA.........@@@@@
     1de:	05 07 0b 00 00 00 05 20 54 54 78 40 05 7f 28 44     ....... TTx@..(D
     1ee:	44 38 05 38 44 44 44 28 05 38 44 44 28 7f 05 38     D8.8DDD(.8DD(..8
     1fe:	54 54 54 18 05 00 08 7e 09 02 05 18 a4 a4 9c 78     TTT....~.......x
     20e:	05 7f 08 04 04 78 05 00 44 7d 40 00 05 20 40 40     .....x..D}@.. @@
     21e:	3d 00 05 7f 10 28 44 00 05 00 41 7f 40 00 05 7c     =....(D...A.@..|
     22e:	04 78 04 78 05 7c 08 04 04 78 05 38 44 44 44 38     .x.x.|...x.8DDD8
     23e:	05 fc 18 24 24 18 05 18 24 24 18 fc 05 7c 08 04     ...$$...$$...|..
     24e:	04 08 05 48 54 54 54 24 05 04 04 3f 44 24 05 3c     ...HTTT$...?D$.<
     25e:	40 40 20 7c 05 1c 20 40 20 1c 05 3c 40 30 40 3c     @@ |.. @ ..<@0@<
     26e:	05 44 28 10 28 44 05 4c 90 90 90 7c 05 44 64 54     .D(.(D.L...|.DdT
     27e:	4c 44 05 00 08 36 41 00 05 00 00 77 00 00 05 00     LD...6A....w....
     28e:	41 36 08 00 05 04 02 04 08 04 05 00 7f 41 7f 00     A6...........A..

0000029e <batterylevel5_15x40>:
     29e:	ff ff 07 07 c7 c7 c7 c7 c7 c7 c7 07 07 ff ff ff     ................
     2ae:	ff 00 00 f7 f7 f7 f7 f7 f7 f7 00 00 ff ff ff ff     ................
     2be:	00 00 7d 7d 7d 7d 7d 7d 7d 00 00 ff ff ff ff 00     ..}}}}}}}.......
     2ce:	00 df df df df df df df 00 00 ff ff ff ff e0 e0     ................
     2de:	e7 e7 e7 e7 e7 e7 e7 e0 e0 ff ff                    ...........

000002e9 <batterylevel4_15x40>:
     2e9:	ff ff 07 07 07 07 07 07 07 07 07 07 07 ff ff ff     ................
     2f9:	ff 00 00 f0 f0 f0 f0 f0 f0 f0 00 00 ff ff ff ff     ................
     309:	00 00 7d 7d 7d 7d 7d 7d 7d 00 00 ff ff ff ff 00     ..}}}}}}}.......
     319:	00 df df df df df df df 00 00 ff ff ff ff e0 e0     ................
     329:	e7 e7 e7 e7 e7 e7 e7 e0 e0 ff ff                    ...........

00000334 <batterylevel3_15x40>:
     334:	ff ff 07 07 07 07 07 07 07 07 07 07 07 ff ff ff     ................
     344:	ff 00 00 00 00 00 00 00 00 00 00 00 ff ff ff ff     ................
     354:	00 00 7c 7c 7c 7c 7c 7c 7c 00 00 ff ff ff ff 00     ..|||||||.......
     364:	00 df df df df df df df 00 00 ff ff ff ff e0 e0     ................
     374:	e7 e7 e7 e7 e7 e7 e7 e0 e0 ff ff                    ...........

0000037f <batterylevel2_15x40>:
     37f:	ff ff 07 07 07 07 07 07 07 07 07 07 07 ff ff ff     ................
     38f:	ff 00 00 00 00 00 00 00 00 00 00 00 ff ff ff ff     ................
	...
     3a7:	00 00 00 ff ff ff ff 00 00 df df df df df df df     ................
     3b7:	00 00 ff ff ff ff e0 e0 e7 e7 e7 e7 e7 e7 e7 e0     ................
     3c7:	e0 ff ff                                            ...

000003ca <batterylevel1_15x40>:
     3ca:	ff ff 07 07 07 07 07 07 07 07 07 07 07 ff ff ff     ................
     3da:	ff 00 00 00 00 00 00 00 00 00 00 00 ff ff ff ff     ................
	...
     3f2:	00 00 00 ff ff ff ff 00 00 c0 c0 c0 c0 c0 c0 c0     ................
     402:	00 00 ff ff ff ff e0 e0 e7 e7 e7 e7 e7 e7 e7 e0     ................
     412:	e0 ff ff                                            ...

00000415 <batterylevel0_15x40>:
     415:	ff ff 07 07 07 07 07 07 07 07 07 07 07 ff ff ff     ................
     425:	ff 00 00 00 00 00 00 00 00 00 00 00 ff ff ff ff     ................
	...
     43d:	00 00 00 ff ff ff ff 00 00 00 00 00 00 00 00 00     ................
     44d:	00 00 ff ff ff ff e0 e0 e4 e4 e4 e4 e4 e4 e4 e0     ................
     45d:	e0 ff ff                                            ...

00000460 <user25px>:
     460:	f8 fe fe ff ff ff ff 1f 0f 0f 07 07 0f 0f 3f ff     ..............?.
     470:	ff ff ff ff ff ff fe fe f8 ff ff ff ff ff 3f 1f     ..............?.
     480:	0c 08 08 08 08 08 0c 0e 1f 33 f3 f3 f3 f3 f3 ff     .........3......
     490:	ff ff 3f ff ff ff c0 c0 c0 c0 c0 c0 c0 c0 c0 c0     ..?.............
     4a0:	c0 c0 c0 c1 ff ff ff ff ff ff 3f 00 00 00 01 01     ..........?.....
     4b0:	01 01 01 01 01 01 01 01 01 01 01 01 01 01 01 01     ................
     4c0:	01 00 00 00                                         ....

000004c4 <Frankfurter32x40>:
     4c4:	11 00 00 00 00 00 00 00 00 00 00 00 00 00 00 00     ................
	...
     564:	00 09 00 00 00 00 00 00 fc 3f 38 00 00 0e 40 4c     .........?8...@L
     574:	00 00 09 80 86 00 00 ff bf be 00 00 ff ff be 00     ................
     584:	00 ff ff 7c 00 00 fe 7f 38 00 00 fc 3f 00 00 00     ...|....8...?...
	...
     604:	00 00 0e 00 00 00 00 00 00 fe 03 00 00 00 01 04     ................
     614:	00 00 00 ff 05 00 00 00 ff 07 00 00 00 fe 03 00     ................
	...
     630:	fe 03 00 00 00 01 04 00 00 00 01 04 00 00 00 ff     ................
     640:	07 00 00 00 ff 07 00 00 00 fe 03 00 00 00 00 00     ................
	...
     6a4:	00 00 00 17 00 00 00 00 00 00 00 00 00 00 00 00     ................
     6b4:	80 03 00 00 c0 c1 04 00 00 e0 c2 75 00 00 e0 c2     ...........u....
     6c4:	8d 00 00 e0 fc 81 00 00 fe c0 ff 00 00 c7 e1 ff     ................
     6d4:	00 00 e1 ff 3f 00 00 ff ff 05 00 00 ff c4 05 00     ....?...........
     6e4:	00 ee c4 05 00 00 e0 c4 7d 00 00 e0 f4 81 00 00     ........}.......
     6f4:	f0 fc 81 00 00 fe cc ff 00 00 c1 ff 7f 00 00 ff     ................
     704:	ff 0f 00 00 ff ff 05 00 00 fe c4 05 00 00 c0 84     ................
     714:	03 00 00 80 03 00 00 00 00 00 00 00 00 00 00 00     ................
	...
     748:	13 00 00 00 00 00 00 00 00 1c 00 00 e0 03 62 00     ..............b.
     758:	00 18 0c 41 00 00 dc 13 8f 00 00 f6 37 9f 00 00     ...A........7...
     768:	ff 2f bf 03 80 fc 6f 3e 06 40 fe 4f 7c 08 c0 2f     ./....o>.@.O|../
     778:	df fc 0b c0 2f 9f fe 0b c0 4f be ff 0f 80 5f 7e     ..../....O...._~
     788:	fe 07 00 be fe bf 01 00 be fc df 00 00 9c f8 6f     ...............o
     798:	00 00 78 f8 3f 00 00 00 e0 1f 00 00 00 80 03 00     ..x.?...........
	...
     7e8:	00 1d 00 00 00 00 00 00 f0 00 00 00 00 0c 03 00     ................
     7f8:	00 00 e6 04 00 00 00 fa 05 00 00 00 1f 0b 00 00     ................
     808:	00 1f 0a 00 00 00 13 0a 78 00 00 13 0b ce 00 00     ........x.......
     818:	e7 05 83 00 00 0e c6 f0 00 00 fc 33 fc 00 00 f0     ...........3....
     828:	1c 3f 00 00 00 c6 1f 00 00 80 f1 07 00 00 60 f8     .?............`.
     838:	01 00 00 38 7e 00 00 00 8c 3f 1f 00 00 e3 8f 31     ...8~....?.....1
     848:	00 00 f9 c3 40 00 00 ff a0 cf 00 00 79 a0 9f 00     ....@.......y...
     858:	00 1e e0 b1 00 00 00 60 a1 00 00 00 60 b2 00 00     .......`....`...
     868:	00 e0 be 00 00 00 c0 61 00 00 00 80 3f 00 00 00     .......a....?...
     878:	00 1f 00 00 00 00 00 00 00 00 00 00 00 00 00 00     ................
     888:	00 00 15 00 00 00 00 00 00 00 e0 03 00 00 e0 33     ...............3
     898:	0c 00 00 18 1c 10 00 00 dc c9 23 00 00 e6 ff 4f     ..........#....O
     8a8:	00 00 fe ff 5f 00 00 ff ff 9f 00 00 ff ff bf 00     ...._...........
     8b8:	00 df 7c be 00 00 df 3c be 00 00 9f 01 bf 00 00     ..|....<........
     8c8:	3e c3 9f 00 00 7e e2 df 00 00 fc f2 df 00 00 78     >....~.........x
     8d8:	f1 9f 00 00 f0 f0 bf 00 00 00 f0 bf 00 00 00 e0     ................
     8e8:	ff 00 00 00 80 7c 00 00 00 00 38 00 00 00 00 00     .....|....8.....
	...
     928:	00 00 00 06 00 00 00 00 00 00 fe 03 00 00 00 01     ................
     938:	04 00 00 00 ff 05 00 00 00 ff 07 00 00 00 fe 03     ................
	...
     9cc:	0e 00 00 00 00 00 00 00 ff 00 00 00 e0 01 07 00     ................
     9dc:	00 38 00 18 00 00 0e ff 60 00 00 c7 ff c7 00 80     .8......`.......
     9ec:	f7 ff 1f 01 c0 fd ff 3f 02 c0 ff ff ff 06 e0 ff     .......?........
     9fc:	81 ff 04 e0 3f 00 fe 05 e0 1f 00 f8 07 c0 0f 00     ....?...........
     a0c:	f0 03 80 07 00 e0 01 00 00 00 00 00 00 00 00 00     ................
	...
     a6c:	00 0e 00 00 00 00 00 c0 07 00 e0 01 40 09 00 30     ............@..0
     a7c:	02 20 13 00 98 04 e0 27 00 cc 07 e0 4f 00 e6 07     . .....'....O...
     a8c:	c0 9f 81 f3 07 c0 7f fe fc 03 80 ff 01 ff 01 00     ................
     a9c:	ff ff ff 00 00 fe ff 7f 00 00 f8 ff 1f 00 00 e0     ................
     aac:	ff 07 00 00 00 ff 00 00 00 00 00 00 00 00 00 00     ................
	...
     b0c:	00 00 0f 00 00 00 00 00 00 00 00 00 00 00 00 00     ................
	...
     b24:	38 00 00 00 00 58 03 00 00 00 b8 05 00 00 00 be     8....X..........
     b34:	05 00 00 00 f1 02 00 00 00 ff 01 00 00 00 ff 02     ................
     b44:	00 00 00 f8 05 00 00 00 f8 05 00 00 00 78 03 00     .............x..
     b54:	00 00 30 00 00 00 00 00 00 00 00 00 00 00 00 00     ..0.............
	...
     bac:	00 00 00 13 00 00 00 00 00 00 00 78 00 00 00 00     ...........x....
     bbc:	94 00 00 00 00 96 00 00 00 00 9e 00 00 00 00 9e     ................
     bcc:	00 00 00 00 9e 00 00 00 00 9e 00 00 00 f0 9f 1f     ................
     bdc:	00 00 38 1c 20 00 00 48 3c 20 00 00 f8 ff 3f 00     ..8. ..H< ....?.
     bec:	00 f8 ff 3f 00 00 f0 9f 1f 00 00 00 9e 00 00 00     ...?............
     bfc:	00 9e 00 00 00 00 9e 00 00 00 00 9e 00 00 00 00     ................
     c0c:	7c 00 00 00 00 00 00 00 00 00 00 00 00 00 00 00     |...............
	...
     c50:	08 00 00 00 00 00 00 00 00 78 00 00 00 00 c4 07     .........x......
     c60:	00 00 00 92 09 00 00 00 3e 0c 00 00 00 fe 07 00     ........>.......
     c70:	00 00 fc 01 00 00 00 78 00 00 00 00 00 00 00 00     .......x........
	...
     cf0:	00 09 00 00 3c 00 00 00 00 52 00 00 00 00 4a 00     ....<....R....J.
     d00:	00 00 00 4e 00 00 00 00 4e 00 00 00 00 4e 00 00     ...N....N....N..
     d10:	00 00 4e 00 00 00 00 4e 00 00 00 00 3c 00 00 00     ..N....N....<...
	...
     d90:	00 00 08 00 00 00 00 00 00 00 00 38 00 00 00 00     ...........8....
     da0:	4c 00 00 00 00 86 00 00 00 00 be 00 00 00 00 be     L...............
     db0:	00 00 00 00 7c 00 00 00 00 38 00 00 00 00 00 00     ....|....8......
	...
     e30:	00 00 00 15 00 00 00 00 00 00 00 00 e0 01 00 00     ................
     e40:	00 38 02 00 00 00 0c 04 00 00 00 c3 05 00 00 c0     .8..............
     e50:	f1 07 00 00 70 f8 07 00 00 18 fe 03 00 00 86 ff     ....p...........
     e60:	00 00 80 e1 7f 00 00 c0 f8 1f 00 00 30 fe 07 00     ............0...
     e70:	00 8c ff 03 00 00 e3 ff 00 00 80 f9 3f 00 00 40     ............?..@
     e80:	fe 0f 00 00 40 ff 07 00 00 c0 ff 01 00 00 40 7e     ....@.........@~
     e90:	00 00 00 80 3f 00 00 00 00 0f 00 00 00 00 00 00     ....?...........
	...
     ed4:	13 00 00 00 00 00 00 80 ff 03 00 00 70 00 0e 00     ............p...
     ee4:	00 38 00 18 00 00 cc ff 21 00 00 fe ff 67 00 00     .8......!....g..
     ef4:	fe ff 4f 00 00 ff ff df 00 00 ff ff bf 00 00 ff     ..O.............
     f04:	00 be 00 00 ff 00 be 00 00 ff 00 be 00 00 3f ff     ..............?.
     f14:	bf 00 00 7e 80 7f 00 00 fe ff 7f 00 00 fc ff 3f     ...~...........?
     f24:	00 00 f8 ff 1f 00 00 f0 ff 0f 00 00 80 ff 01 00     ................
	...
     f74:	00 10 00 00 00 00 00 00 00 00 00 00 00 00 00 00     ................
     f84:	00 00 00 00 00 00 00 7c 00 00 00 00 ce 00 00 00     .......|........
     f94:	00 93 00 00 00 00 9f 00 00 00 00 9f ff 3f 00 00     .............?..
     fa4:	1f 00 40 00 00 3f 00 80 00 00 ff ff bf 00 00 ff     ..@..?..........
     fb4:	ff bf 00 00 ff ff ff 00 00 fe ff 7f 00 00 fc ff     ................
     fc4:	3f 00 00 00 00 00 00 00 00 00 00 00 00 00 00 00     ?...............
	...
    1014:	00 00 12 00 00 00 00 00 00 e0 01 38 00 00 18 02     ...........8....
    1024:	46 00 00 1c 04 c3 00 00 e6 84 f1 00 00 fe c4 fc     F...............
    1034:	00 00 7f 66 fe 00 00 ff 33 9f 00 00 ff 98 9f 00     ...f....3.......
    1044:	00 9f cc 9f 00 00 9f e7 9f 00 00 1f f0 9f 00 00     ................
    1054:	7e fc 9f 00 00 fe ff 9f 00 00 fc ff 9e 00 00 f8     ~...............
    1064:	7f 9e 00 00 f0 3f 7c 00 00 c0 0f 38 00 00 00 00     .....?|....8....
	...
    10b4:	00 00 00 12 00 00 00 00 00 00 f0 00 0f 00 00 18     ................
    10c4:	81 11 00 00 1c c2 21 00 00 ee c2 4f 00 00 fe c2     ......!....O....
    10d4:	5f 00 00 7f c2 9f 00 00 ff b9 bf 00 00 9f 24 be     _.............$.
    10e4:	00 00 9f 44 be 00 00 9f 9f bf 00 00 3f 1f b8 00     ...D........?...
    10f4:	00 7e 3e 5c 00 00 fe ff 5f 00 00 fc ff 3f 00 00     .~>\...._....?..
    1104:	fc ff 3f 00 00 f8 f7 0f 00 00 e0 e1 07 00 00 00     ..?.............
	...
    1158:	13 00 00 fe 03 00 00 80 03 06 00 00 e0 00 06 00     ................
    1168:	00 38 fe 07 00 00 9c ff 07 00 00 f6 ff 07 00 00     .8..............
    1178:	f3 ff 05 00 00 ff ff 05 00 00 ff f3 05 00 00 ff     ................
    1188:	ff 3d 00 00 3f f0 61 00 00 3f f0 83 00 00 ff ff     .=..?.a..?......
    1198:	bf 00 00 ff ff ff 00 00 ff ff ff 00 00 fe ff 7f     ................
    11a8:	00 00 fc ff 3f 00 00 00 f0 04 00 00 00 e0 03 00     ....?...........
	...
    11f8:	00 13 00 00 00 00 00 00 00 00 00 00 00 00 00 0e     ................
    1208:	00 00 c0 0f 11 00 00 3e 90 21 00 00 93 9f 4f 00     .......>.!....O.
    1218:	00 ff b7 5f 00 00 ff 27 9f 00 00 ff 27 bf 00 00     ..._...'....'...
    1228:	bf 2f be 00 00 9f 6f bf 00 00 9f cf bf 00 00 9f     ./....o.........
    1238:	1f bc 00 00 df ff 5f 00 00 df fe 7f 00 00 df fe     ......_.........
    1248:	3f 00 00 7f fc 1f 00 00 3e f8 0f 00 00 00 e0 03     ?.......>.......
	...
    1298:	00 00 13 00 00 00 00 00 00 00 f0 03 00 00 00 1c     ................
    12a8:	0c 00 00 00 07 10 00 00 e0 e1 23 00 00 38 fc 4f     ..........#..8.O
    12b8:	00 00 0e ff 5f 00 00 e7 ff 9f 00 00 fb ff bf 00     ...._...........
    12c8:	00 ff 2f be 00 00 ff 2f be 00 00 fe cf bf 00 00     ../..../........
    12d8:	bc 1f bc 00 00 80 3f 5e 00 00 00 ff 7f 00 00 00     ......?^........
    12e8:	ff 3f 00 00 00 fe 1f 00 00 00 fc 0f 00 00 00 f0     .?..............
    12f8:	03 00 00 00 00 00 00 00 00 00 00 00 00 00 00 00     ................
	...
    1338:	00 00 00 12 00 00 00 00 00 00 00 00 00 00 00 3c     ...............<
    1348:	00 00 00 00 4e 00 00 00 00 93 00 00 00 00 9f 00     ....N...........
    1358:	00 00 00 9f 00 7e 00 00 9f c0 c3 00 00 9f f0 98     .....~..........
    1368:	00 00 9f 1e bf 00 00 ff e3 ff 00 00 3f f8 7f 00     ............?...
    1378:	00 ff ff 3f 00 00 ff ff 07 00 00 ff ff 00 00 00     ...?............
    1388:	ff 1f 00 00 00 fe 03 00 00 00 7c 00 00 00 00 00     ..........|.....
	...
    13dc:	13 00 00 00 00 00 00 e0 e1 07 00 00 38 36 08 00     ............86..
    13ec:	00 1c 18 10 00 00 e6 c9 27 00 00 f6 ff 4f 00 00     ........'....O..
    13fc:	ff ff 5f 00 00 ff ff 9f 00 00 ff ff bf 00 00 9f     .._.............
    140c:	4e be 00 00 9f 4e be 00 00 3f 9b bd 00 00 7f 3c     N....N...?.....<
    141c:	bc 00 00 fe ff 5f 00 00 fc ff 7f 00 00 fc ff 3f     ....._.........?
    142c:	00 00 f8 ff 1f 00 00 e0 f1 0f 00 00 00 c0 07 00     ................
	...
    147c:	00 13 00 00 00 00 00 00 c0 0f 00 00 00 70 30 00     .............p0.
    148c:	00 00 18 40 00 00 00 dc 8f 00 00 00 e6 bf 38 00     ...@..........8.
    149c:	00 fe 7f 47 00 00 ff 7f 83 00 00 ff ff bb 00 00     ...G............
    14ac:	df fc ff 00 00 df fc ff 00 00 9f ff 7f 00 00 3f     ...............?
    14bc:	f0 3f 00 00 7e f8 0f 00 00 fe ff 03 00 00 fc ff     .?..~...........
    14cc:	01 00 00 f8 7f 00 00 00 f0 3f 00 00 00 c0 0f 00     .........?......
	...
    151c:	00 00 08 00 00 00 00 00 00 00 0e 38 00 00 00 11     ...........8....
    152c:	4c 00 00 80 20 86 00 00 80 2f be 00 00 80 2f be     L... ..../..../.
    153c:	00 00 00 1f 7c 00 00 00 0e 38 00 00 00 00 00 00     ....|....8......
	...

000015c0 <__ctors_end>:
    15c0:	11 24       	eor	r1, r1
    15c2:	1f be       	out	0x3f, r1	; 63
    15c4:	cf e5       	ldi	r28, 0x5F	; 95
    15c6:	d8 e0       	ldi	r29, 0x08	; 8
    15c8:	de bf       	out	0x3e, r29	; 62
    15ca:	cd bf       	out	0x3d, r28	; 61

000015cc <__do_clear_bss>:
    15cc:	24 e0       	ldi	r18, 0x04	; 4
    15ce:	a0 e6       	ldi	r26, 0x60	; 96
    15d0:	b0 e0       	ldi	r27, 0x00	; 0
    15d2:	01 c0       	rjmp	.+2      	; 0x15d6 <.do_clear_bss_start>

000015d4 <.do_clear_bss_loop>:
    15d4:	1d 92       	st	X+, r1

000015d6 <.do_clear_bss_start>:
    15d6:	a9 36       	cpi	r26, 0x69	; 105
    15d8:	b2 07       	cpc	r27, r18
    15da:	e1 f7       	brne	.-8      	; 0x15d4 <.do_clear_bss_loop>
    15dc:	0e 94 ea 17 	call	0x2fd4	; 0x2fd4 <main>
    15e0:	0c 94 ea 1a 	jmp	0x35d4	; 0x35d4 <_exit>

000015e4 <__bad_interrupt>:
    15e4:	0c 94 00 00 	jmp	0	; 0x0 <__vectors>

000015e8 <GLCD_Send>:
    15e8:	80 ff       	sbrs	r24, 0
    15ea:	02 c0       	rjmp	.+4      	; 0x15f0 <GLCD_Send+0x8>
    15ec:	d8 9a       	sbi	0x1b, 0	; 27
    15ee:	01 c0       	rjmp	.+2      	; 0x15f2 <GLCD_Send+0xa>
    15f0:	d8 98       	cbi	0x1b, 0	; 27
    15f2:	81 ff       	sbrs	r24, 1
    15f4:	02 c0       	rjmp	.+4      	; 0x15fa <GLCD_Send+0x12>
    15f6:	d9 9a       	sbi	0x1b, 1	; 27
    15f8:	01 c0       	rjmp	.+2      	; 0x15fc <GLCD_Send+0x14>
    15fa:	d9 98       	cbi	0x1b, 1	; 27
    15fc:	82 ff       	sbrs	r24, 2
    15fe:	02 c0       	rjmp	.+4      	; 0x1604 <GLCD_Send+0x1c>
    1600:	da 9a       	sbi	0x1b, 2	; 27
    1602:	01 c0       	rjmp	.+2      	; 0x1606 <GLCD_Send+0x1e>
    1604:	da 98       	cbi	0x1b, 2	; 27
    1606:	83 ff       	sbrs	r24, 3
    1608:	02 c0       	rjmp	.+4      	; 0x160e <GLCD_Send+0x26>
    160a:	db 9a       	sbi	0x1b, 3	; 27
    160c:	01 c0       	rjmp	.+2      	; 0x1610 <GLCD_Send+0x28>
    160e:	db 98       	cbi	0x1b, 3	; 27
    1610:	84 ff       	sbrs	r24, 4
    1612:	02 c0       	rjmp	.+4      	; 0x1618 <GLCD_Send+0x30>
    1614:	dc 9a       	sbi	0x1b, 4	; 27
    1616:	01 c0       	rjmp	.+2      	; 0x161a <GLCD_Send+0x32>
    1618:	dc 98       	cbi	0x1b, 4	; 27
    161a:	85 ff       	sbrs	r24, 5
    161c:	02 c0       	rjmp	.+4      	; 0x1622 <GLCD_Send+0x3a>
    161e:	dd 9a       	sbi	0x1b, 5	; 27
    1620:	01 c0       	rjmp	.+2      	; 0x1624 <GLCD_Send+0x3c>
    1622:	dd 98       	cbi	0x1b, 5	; 27
    1624:	86 ff       	sbrs	r24, 6
    1626:	02 c0       	rjmp	.+4      	; 0x162c <GLCD_Send+0x44>
    1628:	de 9a       	sbi	0x1b, 6	; 27
    162a:	01 c0       	rjmp	.+2      	; 0x162e <GLCD_Send+0x46>
    162c:	de 98       	cbi	0x1b, 6	; 27
    162e:	87 ff       	sbrs	r24, 7
    1630:	02 c0       	rjmp	.+4      	; 0x1636 <GLCD_Send+0x4e>
    1632:	df 9a       	sbi	0x1b, 7	; 27
    1634:	01 c0       	rjmp	.+2      	; 0x1638 <GLCD_Send+0x50>
    1636:	df 98       	cbi	0x1b, 7	; 27
    1638:	aa 9a       	sbi	0x15, 2	; 21
    163a:	85 e0       	ldi	r24, 0x05	; 5
    163c:	8a 95       	dec	r24
    163e:	f1 f7       	brne	.-4      	; 0x163c <GLCD_Send+0x54>
    1640:	00 00       	nop
    1642:	aa 98       	cbi	0x15, 2	; 21
    1644:	85 e0       	ldi	r24, 0x05	; 5
    1646:	8a 95       	dec	r24
    1648:	f1 f7       	brne	.-4      	; 0x1646 <GLCD_Send+0x5e>
    164a:	00 00       	nop
    164c:	08 95       	ret

0000164e <GLCD_SelectChip>:
    164e:	81 11       	cpse	r24, r1
    1650:	03 c0       	rjmp	.+6      	; 0x1658 <GLCD_SelectChip+0xa>
    1652:	ac 98       	cbi	0x15, 4	; 21
    1654:	ab 9a       	sbi	0x15, 3	; 21
    1656:	08 95       	ret
    1658:	81 30       	cpi	r24, 0x01	; 1
    165a:	11 f4       	brne	.+4      	; 0x1660 <GLCD_SelectChip+0x12>
    165c:	ab 98       	cbi	0x15, 3	; 21
    165e:	01 c0       	rjmp	.+2      	; 0x1662 <GLCD_SelectChip+0x14>
    1660:	ab 9a       	sbi	0x15, 3	; 21
    1662:	ac 9a       	sbi	0x15, 4	; 21
    1664:	08 95       	ret

00001666 <GLCD_WaitBusy>:
    1666:	0e 94 27 0b 	call	0x164e	; 0x164e <GLCD_SelectChip>
    166a:	d7 98       	cbi	0x1a, 7	; 26
    166c:	a8 98       	cbi	0x15, 0	; 21
    166e:	a9 9a       	sbi	0x15, 1	; 21
    1670:	aa 98       	cbi	0x15, 2	; 21
    1672:	85 e0       	ldi	r24, 0x05	; 5
    1674:	8a 95       	dec	r24
    1676:	f1 f7       	brne	.-4      	; 0x1674 <GLCD_WaitBusy+0xe>
    1678:	00 00       	nop
    167a:	aa 9a       	sbi	0x15, 2	; 21
    167c:	95 e0       	ldi	r25, 0x05	; 5
    167e:	9a 95       	dec	r25
    1680:	f1 f7       	brne	.-4      	; 0x167e <GLCD_WaitBusy+0x18>
    1682:	00 00       	nop
    1684:	89 b3       	in	r24, 0x19	; 25
    1686:	aa 98       	cbi	0x15, 2	; 21
    1688:	9a e2       	ldi	r25, 0x2A	; 42
    168a:	9a 95       	dec	r25
    168c:	f1 f7       	brne	.-4      	; 0x168a <GLCD_WaitBusy+0x24>
    168e:	00 c0       	rjmp	.+0      	; 0x1690 <GLCD_WaitBusy+0x2a>
    1690:	87 fd       	sbrc	r24, 7
    1692:	f3 cf       	rjmp	.-26     	; 0x167a <GLCD_WaitBusy+0x14>
    1694:	a9 98       	cbi	0x15, 1	; 21
    1696:	d7 9a       	sbi	0x1a, 7	; 26
    1698:	08 95       	ret

0000169a <GLCD_SendCommand>:
    169a:	cf 93       	push	r28
    169c:	df 93       	push	r29
    169e:	d8 2f       	mov	r29, r24
    16a0:	c6 2f       	mov	r28, r22
    16a2:	62 30       	cpi	r22, 0x02	; 2
    16a4:	11 f0       	breq	.+4      	; 0x16aa <GLCD_SendCommand+0x10>
    16a6:	86 2f       	mov	r24, r22
    16a8:	04 c0       	rjmp	.+8      	; 0x16b2 <GLCD_SendCommand+0x18>
    16aa:	80 e0       	ldi	r24, 0x00	; 0
    16ac:	0e 94 33 0b 	call	0x1666	; 0x1666 <GLCD_WaitBusy>
    16b0:	81 e0       	ldi	r24, 0x01	; 1
    16b2:	0e 94 33 0b 	call	0x1666	; 0x1666 <GLCD_WaitBusy>
    16b6:	8c 2f       	mov	r24, r28
    16b8:	0e 94 27 0b 	call	0x164e	; 0x164e <GLCD_SelectChip>
    16bc:	a8 98       	cbi	0x15, 0	; 21
    16be:	a9 98       	cbi	0x15, 1	; 21
    16c0:	8d 2f       	mov	r24, r29
    16c2:	df 91       	pop	r29
    16c4:	cf 91       	pop	r28
    16c6:	0c 94 f4 0a 	jmp	0x15e8	; 0x15e8 <GLCD_Send>

000016ca <GLCD_SendData>:
    16ca:	cf 93       	push	r28
    16cc:	df 93       	push	r29
    16ce:	c8 2f       	mov	r28, r24
    16d0:	d6 2f       	mov	r29, r22
    16d2:	62 30       	cpi	r22, 0x02	; 2
    16d4:	11 f0       	breq	.+4      	; 0x16da <GLCD_SendData+0x10>
    16d6:	86 2f       	mov	r24, r22
    16d8:	04 c0       	rjmp	.+8      	; 0x16e2 <GLCD_SendData+0x18>
    16da:	80 e0       	ldi	r24, 0x00	; 0
    16dc:	0e 94 33 0b 	call	0x1666	; 0x1666 <GLCD_WaitBusy>
    16e0:	81 e0       	ldi	r24, 0x01	; 1
    16e2:	0e 94 33 0b 	call	0x1666	; 0x1666 <GLCD_WaitBusy>
    16e6:	8d 2f       	mov	r24, r29
    16e8:	0e 94 27 0b 	call	0x164e	; 0x164e <GLCD_SelectChip>
    16ec:	a8 9a       	sbi	0x15, 0	; 21
    16ee:	a9 98       	cbi	0x15, 1	; 21
    16f0:	80 91 62 00 	lds	r24, 0x0062	; 0x800062 <__DATA_REGION_ORIGIN__+0x2>
    16f4:	81 30       	cpi	r24, 0x01	; 1
    16f6:	19 f0       	breq	.+6      	; 0x16fe <GLCD_SendData+0x34>
    16f8:	8c 2f       	mov	r24, r28
    16fa:	80 95       	com	r24
    16fc:	01 c0       	rjmp	.+2      	; 0x1700 <GLCD_SendData+0x36>
    16fe:	8c 2f       	mov	r24, r28
    1700:	0e 94 f4 0a 	call	0x15e8	; 0x15e8 <GLCD_Send>
    1704:	80 91 60 00 	lds	r24, 0x0060	; 0x800060 <__DATA_REGION_ORIGIN__>
    1708:	91 e0       	ldi	r25, 0x01	; 1
    170a:	98 0f       	add	r25, r24
    170c:	90 93 60 00 	sts	0x0060, r25	; 0x800060 <__DATA_REGION_ORIGIN__>
    1710:	90 34       	cpi	r25, 0x40	; 64
    1712:	39 f4       	brne	.+14     	; 0x1722 <GLCD_SendData+0x58>
    1714:	8f 53       	subi	r24, 0x3F	; 63
    1716:	61 e0       	ldi	r22, 0x01	; 1
    1718:	80 64       	ori	r24, 0x40	; 64
    171a:	df 91       	pop	r29
    171c:	cf 91       	pop	r28
    171e:	0c 94 4d 0b 	jmp	0x169a	; 0x169a <GLCD_SendCommand>
    1722:	97 ff       	sbrs	r25, 7
    1724:	03 c0       	rjmp	.+6      	; 0x172c <GLCD_SendData+0x62>
    1726:	8f e7       	ldi	r24, 0x7F	; 127
    1728:	80 93 60 00 	sts	0x0060, r24	; 0x800060 <__DATA_REGION_ORIGIN__>
    172c:	df 91       	pop	r29
    172e:	cf 91       	pop	r28
    1730:	08 95       	ret

00001732 <GLCD_Render>:
    1732:	0f 93       	push	r16
    1734:	1f 93       	push	r17
    1736:	cf 93       	push	r28
    1738:	c0 e0       	ldi	r28, 0x00	; 0
    173a:	10 92 60 00 	sts	0x0060, r1	; 0x800060 <__DATA_REGION_ORIGIN__>
    173e:	60 e0       	ldi	r22, 0x00	; 0
    1740:	80 e4       	ldi	r24, 0x40	; 64
    1742:	0e 94 4d 0b 	call	0x169a	; 0x169a <GLCD_SendCommand>
    1746:	c0 93 61 00 	sts	0x0061, r28	; 0x800061 <__DATA_REGION_ORIGIN__+0x1>
    174a:	62 e0       	ldi	r22, 0x02	; 2
    174c:	8c 2f       	mov	r24, r28
    174e:	86 95       	lsr	r24
    1750:	86 95       	lsr	r24
    1752:	86 95       	lsr	r24
    1754:	88 6b       	ori	r24, 0xB8	; 184
    1756:	0e 94 4d 0b 	call	0x169a	; 0x169a <GLCD_SendCommand>
    175a:	00 e0       	ldi	r16, 0x00	; 0
    175c:	10 e0       	ldi	r17, 0x00	; 0
    175e:	61 e0       	ldi	r22, 0x01	; 1
    1760:	00 34       	cpi	r16, 0x40	; 64
    1762:	08 f4       	brcc	.+2      	; 0x1766 <GLCD_Render+0x34>
    1764:	60 e0       	ldi	r22, 0x00	; 0
    1766:	80 91 61 00 	lds	r24, 0x0061	; 0x800061 <__DATA_REGION_ORIGIN__+0x1>
    176a:	86 95       	lsr	r24
    176c:	86 95       	lsr	r24
    176e:	86 95       	lsr	r24
    1770:	f8 01       	movw	r30, r16
    1772:	93 e0       	ldi	r25, 0x03	; 3
    1774:	ee 0f       	add	r30, r30
    1776:	ff 1f       	adc	r31, r31
    1778:	9a 95       	dec	r25
    177a:	e1 f7       	brne	.-8      	; 0x1774 <GLCD_Render+0x42>
    177c:	e7 59       	subi	r30, 0x97	; 151
    177e:	ff 4f       	sbci	r31, 0xFF	; 255
    1780:	e8 0f       	add	r30, r24
    1782:	f1 1d       	adc	r31, r1
    1784:	80 81       	ld	r24, Z
    1786:	0e 94 65 0b 	call	0x16ca	; 0x16ca <GLCD_SendData>
    178a:	0f 5f       	subi	r16, 0xFF	; 255
    178c:	1f 4f       	sbci	r17, 0xFF	; 255
    178e:	00 38       	cpi	r16, 0x80	; 128
    1790:	11 05       	cpc	r17, r1
    1792:	29 f7       	brne	.-54     	; 0x175e <GLCD_Render+0x2c>
    1794:	c8 5f       	subi	r28, 0xF8	; 248
    1796:	c0 34       	cpi	r28, 0x40	; 64
    1798:	81 f6       	brne	.-96     	; 0x173a <GLCD_Render+0x8>
    179a:	cf 91       	pop	r28
    179c:	1f 91       	pop	r17
    179e:	0f 91       	pop	r16
    17a0:	08 95       	ret

000017a2 <GLCD_InvertMode>:
    17a2:	80 91 62 00 	lds	r24, 0x0062	; 0x800062 <__DATA_REGION_ORIGIN__+0x2>
    17a6:	81 11       	cpse	r24, r1
    17a8:	04 c0       	rjmp	.+8      	; 0x17b2 <GLCD_InvertMode+0x10>
    17aa:	81 e0       	ldi	r24, 0x01	; 1
    17ac:	80 93 62 00 	sts	0x0062, r24	; 0x800062 <__DATA_REGION_ORIGIN__+0x2>
    17b0:	08 95       	ret
    17b2:	10 92 62 00 	sts	0x0062, r1	; 0x800062 <__DATA_REGION_ORIGIN__+0x2>
    17b6:	08 95       	ret

000017b8 <GLCD_GotoX>:
    17b8:	87 ff       	sbrs	r24, 7
    17ba:	80 93 60 00 	sts	0x0060, r24	; 0x800060 <__DATA_REGION_ORIGIN__>
    17be:	08 95       	ret

000017c0 <GLCD_GotoY>:
    17c0:	90 91 61 00 	lds	r25, 0x0061	; 0x800061 <__DATA_REGION_ORIGIN__+0x1>
    17c4:	90 34       	cpi	r25, 0x40	; 64
    17c6:	10 f4       	brcc	.+4      	; 0x17cc <GLCD_GotoY+0xc>
    17c8:	80 93 61 00 	sts	0x0061, r24	; 0x800061 <__DATA_REGION_ORIGIN__+0x1>
    17cc:	08 95       	ret

000017ce <GLCD_GotoXY>:
    17ce:	cf 93       	push	r28
    17d0:	c6 2f       	mov	r28, r22
    17d2:	0e 94 dc 0b 	call	0x17b8	; 0x17b8 <GLCD_GotoX>
    17d6:	8c 2f       	mov	r24, r28
    17d8:	cf 91       	pop	r28
    17da:	0c 94 e0 0b 	jmp	0x17c0	; 0x17c0 <GLCD_GotoY>

000017de <GLCD_Setup>:
    17de:	d0 9a       	sbi	0x1a, 0	; 26
    17e0:	d1 9a       	sbi	0x1a, 1	; 26
    17e2:	d2 9a       	sbi	0x1a, 2	; 26
    17e4:	d3 9a       	sbi	0x1a, 3	; 26
    17e6:	d4 9a       	sbi	0x1a, 4	; 26
    17e8:	d5 9a       	sbi	0x1a, 5	; 26
    17ea:	d6 9a       	sbi	0x1a, 6	; 26
    17ec:	d7 9a       	sbi	0x1a, 7	; 26
    17ee:	a3 9a       	sbi	0x14, 3	; 20
    17f0:	a4 9a       	sbi	0x14, 4	; 20
    17f2:	a0 9a       	sbi	0x14, 0	; 20
    17f4:	a2 9a       	sbi	0x14, 2	; 20
    17f6:	a1 9a       	sbi	0x14, 1	; 20
    17f8:	a5 9a       	sbi	0x14, 5	; 20
    17fa:	a8 98       	cbi	0x15, 0	; 21
    17fc:	a9 98       	cbi	0x15, 1	; 21
    17fe:	aa 98       	cbi	0x15, 2	; 21
    1800:	ad 98       	cbi	0x15, 5	; 21
    1802:	8f e1       	ldi	r24, 0x1F	; 31
    1804:	9e e4       	ldi	r25, 0x4E	; 78
    1806:	01 97       	sbiw	r24, 0x01	; 1
    1808:	f1 f7       	brne	.-4      	; 0x1806 <GLCD_Setup+0x28>
    180a:	00 c0       	rjmp	.+0      	; 0x180c <GLCD_Setup+0x2e>
    180c:	00 00       	nop
    180e:	ad 9a       	sbi	0x15, 5	; 21
    1810:	9f ef       	ldi	r25, 0xFF	; 255
    1812:	20 e7       	ldi	r18, 0x70	; 112
    1814:	82 e0       	ldi	r24, 0x02	; 2
    1816:	91 50       	subi	r25, 0x01	; 1
    1818:	20 40       	sbci	r18, 0x00	; 0
    181a:	80 40       	sbci	r24, 0x00	; 0
    181c:	e1 f7       	brne	.-8      	; 0x1816 <GLCD_Setup+0x38>
    181e:	00 c0       	rjmp	.+0      	; 0x1820 <GLCD_Setup+0x42>
    1820:	00 00       	nop
    1822:	62 e0       	ldi	r22, 0x02	; 2
    1824:	8f e3       	ldi	r24, 0x3F	; 63
    1826:	0e 94 4d 0b 	call	0x169a	; 0x169a <GLCD_SendCommand>
    182a:	62 e0       	ldi	r22, 0x02	; 2
    182c:	80 ec       	ldi	r24, 0xC0	; 192
    182e:	0e 94 4d 0b 	call	0x169a	; 0x169a <GLCD_SendCommand>
    1832:	60 e0       	ldi	r22, 0x00	; 0
    1834:	80 e0       	ldi	r24, 0x00	; 0
    1836:	0e 94 e7 0b 	call	0x17ce	; 0x17ce <GLCD_GotoXY>
    183a:	e0 e6       	ldi	r30, 0x60	; 96
    183c:	f0 e0       	ldi	r31, 0x00	; 0
    183e:	81 e0       	ldi	r24, 0x01	; 1
    1840:	82 83       	std	Z+2, r24	; 0x02
    1842:	17 82       	std	Z+7, r1	; 0x07
    1844:	16 82       	std	Z+6, r1	; 0x06
    1846:	15 82       	std	Z+5, r1	; 0x05
    1848:	11 82       	std	Z+1, r1	; 0x01
    184a:	10 82       	st	Z, r1
    184c:	08 95       	ret

0000184e <GLCD_ClearLine>:
    184e:	cf 93       	push	r28
    1850:	88 30       	cpi	r24, 0x08	; 8
    1852:	e8 f4       	brcc	.+58     	; 0x188e <GLCD_ClearLine+0x40>
    1854:	91 e0       	ldi	r25, 0x01	; 1
    1856:	20 91 62 00 	lds	r18, 0x0062	; 0x800062 <__DATA_REGION_ORIGIN__+0x2>
    185a:	21 30       	cpi	r18, 0x01	; 1
    185c:	09 f4       	brne	.+2      	; 0x1860 <GLCD_ClearLine+0x12>
    185e:	90 e0       	ldi	r25, 0x00	; 0
    1860:	c9 2f       	mov	r28, r25
    1862:	c1 95       	neg	r28
    1864:	68 2f       	mov	r22, r24
    1866:	66 0f       	add	r22, r22
    1868:	66 0f       	add	r22, r22
    186a:	66 0f       	add	r22, r22
    186c:	80 e0       	ldi	r24, 0x00	; 0
    186e:	0e 94 e7 0b 	call	0x17ce	; 0x17ce <GLCD_GotoXY>
    1872:	e0 91 61 00 	lds	r30, 0x0061	; 0x800061 <__DATA_REGION_ORIGIN__+0x1>
    1876:	e6 95       	lsr	r30
    1878:	e6 95       	lsr	r30
    187a:	e6 95       	lsr	r30
    187c:	f0 e0       	ldi	r31, 0x00	; 0
    187e:	e7 59       	subi	r30, 0x97	; 151
    1880:	ff 4f       	sbci	r31, 0xFF	; 255
    1882:	80 e0       	ldi	r24, 0x00	; 0
    1884:	c0 83       	st	Z, r28
    1886:	8f 5f       	subi	r24, 0xFF	; 255
    1888:	38 96       	adiw	r30, 0x08	; 8
    188a:	80 38       	cpi	r24, 0x80	; 128
    188c:	d9 f7       	brne	.-10     	; 0x1884 <GLCD_ClearLine+0x36>
    188e:	cf 91       	pop	r28
    1890:	08 95       	ret

00001892 <GLCD_GotoLine>:
    1892:	88 30       	cpi	r24, 0x08	; 8
    1894:	28 f4       	brcc	.+10     	; 0x18a0 <GLCD_GotoLine+0xe>
    1896:	88 0f       	add	r24, r24
    1898:	88 0f       	add	r24, r24
    189a:	88 0f       	add	r24, r24
    189c:	80 93 61 00 	sts	0x0061, r24	; 0x800061 <__DATA_REGION_ORIGIN__+0x1>
    18a0:	08 95       	ret

000018a2 <GLCD_GetX>:
    18a2:	80 91 60 00 	lds	r24, 0x0060	; 0x800060 <__DATA_REGION_ORIGIN__>
    18a6:	08 95       	ret

000018a8 <GLCD_GetY>:
    18a8:	80 91 61 00 	lds	r24, 0x0061	; 0x800061 <__DATA_REGION_ORIGIN__+0x1>
    18ac:	08 95       	ret

000018ae <GLCD_GetLine>:
    18ae:	80 91 61 00 	lds	r24, 0x0061	; 0x800061 <__DATA_REGION_ORIGIN__+0x1>
    18b2:	86 95       	lsr	r24
    18b4:	86 95       	lsr	r24
    18b6:	86 95       	lsr	r24
    18b8:	08 95       	ret

000018ba <GLCD_SetPixel>:
    18ba:	cf 92       	push	r12
    18bc:	df 92       	push	r13
    18be:	ef 92       	push	r14
    18c0:	ff 92       	push	r15
    18c2:	cf 93       	push	r28
    18c4:	df 93       	push	r29
    18c6:	c6 2f       	mov	r28, r22
    18c8:	d4 2f       	mov	r29, r20
    18ca:	0e 94 e7 0b 	call	0x17ce	; 0x17ce <GLCD_GotoXY>
    18ce:	20 91 60 00 	lds	r18, 0x0060	; 0x800060 <__DATA_REGION_ORIGIN__>
    18d2:	80 91 61 00 	lds	r24, 0x0061	; 0x800061 <__DATA_REGION_ORIGIN__+0x1>
    18d6:	86 95       	lsr	r24
    18d8:	86 95       	lsr	r24
    18da:	86 95       	lsr	r24
    18dc:	90 e0       	ldi	r25, 0x00	; 0
    18de:	48 e0       	ldi	r20, 0x08	; 8
    18e0:	24 9f       	mul	r18, r20
    18e2:	90 01       	movw	r18, r0
    18e4:	11 24       	eor	r1, r1
    18e6:	f9 01       	movw	r30, r18
    18e8:	e7 59       	subi	r30, 0x97	; 151
    18ea:	ff 4f       	sbci	r31, 0xFF	; 255
    18ec:	e8 0f       	add	r30, r24
    18ee:	f9 1f       	adc	r31, r25
    18f0:	50 81       	ld	r21, Z
    18f2:	c7 70       	andi	r28, 0x07	; 7
    18f4:	c1 2c       	mov	r12, r1
    18f6:	d1 2c       	mov	r13, r1
    18f8:	76 01       	movw	r14, r12
    18fa:	c3 94       	inc	r12
    18fc:	04 c0       	rjmp	.+8      	; 0x1906 <GLCD_SetPixel+0x4c>
    18fe:	cc 0c       	add	r12, r12
    1900:	dd 1c       	adc	r13, r13
    1902:	ee 1c       	adc	r14, r14
    1904:	ff 1c       	adc	r15, r15
    1906:	ca 95       	dec	r28
    1908:	d2 f7       	brpl	.-12     	; 0x18fe <GLCD_SetPixel+0x44>
    190a:	df 3f       	cpi	r29, 0xFF	; 255
    190c:	19 f4       	brne	.+6      	; 0x1914 <GLCD_SetPixel+0x5a>
    190e:	45 2f       	mov	r20, r21
    1910:	4c 29       	or	r20, r12
    1912:	03 c0       	rjmp	.+6      	; 0x191a <GLCD_SetPixel+0x60>
    1914:	c0 94       	com	r12
    1916:	4c 2d       	mov	r20, r12
    1918:	45 23       	and	r20, r21
    191a:	27 59       	subi	r18, 0x97	; 151
    191c:	3f 4f       	sbci	r19, 0xFF	; 255
    191e:	f9 01       	movw	r30, r18
    1920:	e8 0f       	add	r30, r24
    1922:	f9 1f       	adc	r31, r25
    1924:	40 83       	st	Z, r20
    1926:	df 91       	pop	r29
    1928:	cf 91       	pop	r28
    192a:	ff 90       	pop	r15
    192c:	ef 90       	pop	r14
    192e:	df 90       	pop	r13
    1930:	cf 90       	pop	r12
    1932:	08 95       	ret

00001934 <GLCD_DrawHLine>:
    1934:	0f 93       	push	r16
    1936:	1f 93       	push	r17
    1938:	cf 93       	push	r28
    193a:	df 93       	push	r29
    193c:	c8 2f       	mov	r28, r24
    193e:	d6 2f       	mov	r29, r22
    1940:	14 2f       	mov	r17, r20
    1942:	02 2f       	mov	r16, r18
    1944:	68 17       	cp	r22, r24
    1946:	10 f4       	brcc	.+4      	; 0x194c <GLCD_DrawHLine+0x18>
    1948:	c6 2f       	mov	r28, r22
    194a:	d8 2f       	mov	r29, r24
    194c:	dc 17       	cp	r29, r28
    194e:	38 f0       	brcs	.+14     	; 0x195e <GLCD_DrawHLine+0x2a>
    1950:	40 2f       	mov	r20, r16
    1952:	61 2f       	mov	r22, r17
    1954:	8c 2f       	mov	r24, r28
    1956:	0e 94 5d 0c 	call	0x18ba	; 0x18ba <GLCD_SetPixel>
    195a:	cf 5f       	subi	r28, 0xFF	; 255
    195c:	f7 cf       	rjmp	.-18     	; 0x194c <GLCD_DrawHLine+0x18>
    195e:	df 91       	pop	r29
    1960:	cf 91       	pop	r28
    1962:	1f 91       	pop	r17
    1964:	0f 91       	pop	r16
    1966:	08 95       	ret

00001968 <GLCD_SetPixels>:
    1968:	af 92       	push	r10
    196a:	bf 92       	push	r11
    196c:	cf 92       	push	r12
    196e:	df 92       	push	r13
    1970:	ef 92       	push	r14
    1972:	ff 92       	push	r15
    1974:	0f 93       	push	r16
    1976:	1f 93       	push	r17
    1978:	cf 93       	push	r28
    197a:	df 93       	push	r29
    197c:	87 fd       	sbrc	r24, 7
    197e:	c2 c0       	rjmp	.+388    	; 0x1b04 <GLCD_SetPixels+0x19c>
    1980:	47 fd       	sbrc	r20, 7
    1982:	c0 c0       	rjmp	.+384    	; 0x1b04 <GLCD_SetPixels+0x19c>
    1984:	60 34       	cpi	r22, 0x40	; 64
    1986:	08 f0       	brcs	.+2      	; 0x198a <GLCD_SetPixels+0x22>
    1988:	bd c0       	rjmp	.+378    	; 0x1b04 <GLCD_SetPixels+0x19c>
    198a:	20 34       	cpi	r18, 0x40	; 64
    198c:	08 f0       	brcs	.+2      	; 0x1990 <GLCD_SetPixels+0x28>
    198e:	ba c0       	rjmp	.+372    	; 0x1b04 <GLCD_SetPixels+0x19c>
    1990:	2f 5f       	subi	r18, 0xFF	; 255
    1992:	12 2f       	mov	r17, r18
    1994:	16 1b       	sub	r17, r22
    1996:	4f 5f       	subi	r20, 0xFF	; 255
    1998:	d4 2f       	mov	r29, r20
    199a:	d8 1b       	sub	r29, r24
    199c:	96 2f       	mov	r25, r22
    199e:	97 70       	andi	r25, 0x07	; 7
    19a0:	c6 2f       	mov	r28, r22
    19a2:	c9 1b       	sub	r28, r25
    19a4:	c1 2e       	mov	r12, r17
    19a6:	d1 2c       	mov	r13, r1
    19a8:	28 e0       	ldi	r18, 0x08	; 8
    19aa:	30 e0       	ldi	r19, 0x00	; 0
    19ac:	a9 01       	movw	r20, r18
    19ae:	49 1b       	sub	r20, r25
    19b0:	51 09       	sbc	r21, r1
    19b2:	c4 16       	cp	r12, r20
    19b4:	d5 06       	cpc	r13, r21
    19b6:	6c f4       	brge	.+26     	; 0x19d2 <GLCD_SetPixels+0x6a>
    19b8:	2c 19       	sub	r18, r12
    19ba:	3d 09       	sbc	r19, r13
    19bc:	4f ef       	ldi	r20, 0xFF	; 255
    19be:	50 e0       	ldi	r21, 0x00	; 0
    19c0:	7a 01       	movw	r14, r20
    19c2:	02 c0       	rjmp	.+4      	; 0x19c8 <GLCD_SetPixels+0x60>
    19c4:	f5 94       	asr	r15
    19c6:	e7 94       	ror	r14
    19c8:	2a 95       	dec	r18
    19ca:	e2 f7       	brpl	.-8      	; 0x19c4 <GLCD_SetPixels+0x5c>
    19cc:	2e 2d       	mov	r18, r14
    19ce:	a1 2e       	mov	r10, r17
    19d0:	04 c0       	rjmp	.+8      	; 0x19da <GLCD_SetPixels+0x72>
    19d2:	28 e0       	ldi	r18, 0x08	; 8
    19d4:	a2 2e       	mov	r10, r18
    19d6:	a9 1a       	sub	r10, r25
    19d8:	2f ef       	ldi	r18, 0xFF	; 255
    19da:	b8 2e       	mov	r11, r24
    19dc:	e2 2e       	mov	r14, r18
    19de:	01 c0       	rjmp	.+2      	; 0x19e2 <GLCD_SetPixels+0x7a>
    19e0:	ee 0c       	add	r14, r14
    19e2:	9a 95       	dec	r25
    19e4:	ea f7       	brpl	.-6      	; 0x19e0 <GLCD_SetPixels+0x78>
    19e6:	fe 2c       	mov	r15, r14
    19e8:	6c 2f       	mov	r22, r28
    19ea:	0e 94 e7 0b 	call	0x17ce	; 0x17ce <GLCD_GotoXY>
    19ee:	40 91 60 00 	lds	r20, 0x0060	; 0x800060 <__DATA_REGION_ORIGIN__>
    19f2:	80 91 61 00 	lds	r24, 0x0061	; 0x800061 <__DATA_REGION_ORIGIN__+0x1>
    19f6:	86 95       	lsr	r24
    19f8:	86 95       	lsr	r24
    19fa:	86 95       	lsr	r24
    19fc:	90 e0       	ldi	r25, 0x00	; 0
    19fe:	30 e0       	ldi	r19, 0x00	; 0
    1a00:	e0 94       	com	r14
    1a02:	63 2f       	mov	r22, r19
    1a04:	64 0f       	add	r22, r20
    1a06:	d3 17       	cp	r29, r19
    1a08:	b9 f0       	breq	.+46     	; 0x1a38 <GLCD_SetPixels+0xd0>
    1a0a:	28 e0       	ldi	r18, 0x08	; 8
    1a0c:	62 9f       	mul	r22, r18
    1a0e:	b0 01       	movw	r22, r0
    1a10:	11 24       	eor	r1, r1
    1a12:	fb 01       	movw	r30, r22
    1a14:	e7 59       	subi	r30, 0x97	; 151
    1a16:	ff 4f       	sbci	r31, 0xFF	; 255
    1a18:	e8 0f       	add	r30, r24
    1a1a:	f9 1f       	adc	r31, r25
    1a1c:	20 81       	ld	r18, Z
    1a1e:	0f 3f       	cpi	r16, 0xFF	; 255
    1a20:	11 f4       	brne	.+4      	; 0x1a26 <GLCD_SetPixels+0xbe>
    1a22:	2f 29       	or	r18, r15
    1a24:	01 c0       	rjmp	.+2      	; 0x1a28 <GLCD_SetPixels+0xc0>
    1a26:	2e 21       	and	r18, r14
    1a28:	67 59       	subi	r22, 0x97	; 151
    1a2a:	7f 4f       	sbci	r23, 0xFF	; 255
    1a2c:	fb 01       	movw	r30, r22
    1a2e:	e8 0f       	add	r30, r24
    1a30:	f9 1f       	adc	r31, r25
    1a32:	20 83       	st	Z, r18
    1a34:	3f 5f       	subi	r19, 0xFF	; 255
    1a36:	e5 cf       	rjmp	.-54     	; 0x1a02 <GLCD_SetPixels+0x9a>
    1a38:	60 93 60 00 	sts	0x0060, r22	; 0x800060 <__DATA_REGION_ORIGIN__>
    1a3c:	ac 1a       	sub	r10, r28
    1a3e:	2a 2d       	mov	r18, r10
    1a40:	2c 0f       	add	r18, r28
    1a42:	82 2f       	mov	r24, r18
    1a44:	90 e0       	ldi	r25, 0x00	; 0
    1a46:	ac 01       	movw	r20, r24
    1a48:	49 5f       	subi	r20, 0xF9	; 249
    1a4a:	5f 4f       	sbci	r21, 0xFF	; 255
    1a4c:	4c 15       	cp	r20, r12
    1a4e:	5d 05       	cpc	r21, r13
    1a50:	04 f5       	brge	.+64     	; 0x1a92 <GLCD_SetPixels+0x12a>
    1a52:	c8 5f       	subi	r28, 0xF8	; 248
    1a54:	6c 2f       	mov	r22, r28
    1a56:	8b 2d       	mov	r24, r11
    1a58:	0e 94 e7 0b 	call	0x17ce	; 0x17ce <GLCD_GotoXY>
    1a5c:	40 91 60 00 	lds	r20, 0x0060	; 0x800060 <__DATA_REGION_ORIGIN__>
    1a60:	80 91 61 00 	lds	r24, 0x0061	; 0x800061 <__DATA_REGION_ORIGIN__+0x1>
    1a64:	86 95       	lsr	r24
    1a66:	86 95       	lsr	r24
    1a68:	86 95       	lsr	r24
    1a6a:	90 e0       	ldi	r25, 0x00	; 0
    1a6c:	20 e0       	ldi	r18, 0x00	; 0
    1a6e:	32 2f       	mov	r19, r18
    1a70:	34 0f       	add	r19, r20
    1a72:	d2 17       	cp	r29, r18
    1a74:	59 f0       	breq	.+22     	; 0x1a8c <GLCD_SetPixels+0x124>
    1a76:	fc 01       	movw	r30, r24
    1a78:	58 e0       	ldi	r21, 0x08	; 8
    1a7a:	35 9f       	mul	r19, r21
    1a7c:	e0 0d       	add	r30, r0
    1a7e:	f1 1d       	adc	r31, r1
    1a80:	11 24       	eor	r1, r1
    1a82:	e7 59       	subi	r30, 0x97	; 151
    1a84:	ff 4f       	sbci	r31, 0xFF	; 255
    1a86:	00 83       	st	Z, r16
    1a88:	2f 5f       	subi	r18, 0xFF	; 255
    1a8a:	f1 cf       	rjmp	.-30     	; 0x1a6e <GLCD_SetPixels+0x106>
    1a8c:	30 93 60 00 	sts	0x0060, r19	; 0x800060 <__DATA_REGION_ORIGIN__>
    1a90:	d6 cf       	rjmp	.-84     	; 0x1a3e <GLCD_SetPixels+0xd6>
    1a92:	21 17       	cp	r18, r17
    1a94:	b8 f5       	brcc	.+110    	; 0x1b04 <GLCD_SetPixels+0x19c>
    1a96:	c8 1a       	sub	r12, r24
    1a98:	d9 0a       	sbc	r13, r25
    1a9a:	8f ef       	ldi	r24, 0xFF	; 255
    1a9c:	90 e0       	ldi	r25, 0x00	; 0
    1a9e:	01 c0       	rjmp	.+2      	; 0x1aa2 <GLCD_SetPixels+0x13a>
    1aa0:	88 0f       	add	r24, r24
    1aa2:	ca 94       	dec	r12
    1aa4:	ea f7       	brpl	.-6      	; 0x1aa0 <GLCD_SetPixels+0x138>
    1aa6:	18 2f       	mov	r17, r24
    1aa8:	10 95       	com	r17
    1aaa:	68 e0       	ldi	r22, 0x08	; 8
    1aac:	6c 0f       	add	r22, r28
    1aae:	8b 2d       	mov	r24, r11
    1ab0:	0e 94 e7 0b 	call	0x17ce	; 0x17ce <GLCD_GotoXY>
    1ab4:	60 91 60 00 	lds	r22, 0x0060	; 0x800060 <__DATA_REGION_ORIGIN__>
    1ab8:	20 91 61 00 	lds	r18, 0x0061	; 0x800061 <__DATA_REGION_ORIGIN__+0x1>
    1abc:	26 95       	lsr	r18
    1abe:	26 95       	lsr	r18
    1ac0:	26 95       	lsr	r18
    1ac2:	30 e0       	ldi	r19, 0x00	; 0
    1ac4:	50 e0       	ldi	r21, 0x00	; 0
    1ac6:	71 2f       	mov	r23, r17
    1ac8:	70 95       	com	r23
    1aca:	85 2f       	mov	r24, r21
    1acc:	86 0f       	add	r24, r22
    1ace:	d5 17       	cp	r29, r21
    1ad0:	b9 f0       	breq	.+46     	; 0x1b00 <GLCD_SetPixels+0x198>
    1ad2:	48 e0       	ldi	r20, 0x08	; 8
    1ad4:	84 9f       	mul	r24, r20
    1ad6:	c0 01       	movw	r24, r0
    1ad8:	11 24       	eor	r1, r1
    1ada:	fc 01       	movw	r30, r24
    1adc:	e7 59       	subi	r30, 0x97	; 151
    1ade:	ff 4f       	sbci	r31, 0xFF	; 255
    1ae0:	e2 0f       	add	r30, r18
    1ae2:	f3 1f       	adc	r31, r19
    1ae4:	40 81       	ld	r20, Z
    1ae6:	0f 3f       	cpi	r16, 0xFF	; 255
    1ae8:	11 f4       	brne	.+4      	; 0x1aee <GLCD_SetPixels+0x186>
    1aea:	41 2b       	or	r20, r17
    1aec:	01 c0       	rjmp	.+2      	; 0x1af0 <GLCD_SetPixels+0x188>
    1aee:	47 23       	and	r20, r23
    1af0:	87 59       	subi	r24, 0x97	; 151
    1af2:	9f 4f       	sbci	r25, 0xFF	; 255
    1af4:	fc 01       	movw	r30, r24
    1af6:	e2 0f       	add	r30, r18
    1af8:	f3 1f       	adc	r31, r19
    1afa:	40 83       	st	Z, r20
    1afc:	5f 5f       	subi	r21, 0xFF	; 255
    1afe:	e5 cf       	rjmp	.-54     	; 0x1aca <GLCD_SetPixels+0x162>
    1b00:	80 93 60 00 	sts	0x0060, r24	; 0x800060 <__DATA_REGION_ORIGIN__>
    1b04:	df 91       	pop	r29
    1b06:	cf 91       	pop	r28
    1b08:	1f 91       	pop	r17
    1b0a:	0f 91       	pop	r16
    1b0c:	ff 90       	pop	r15
    1b0e:	ef 90       	pop	r14
    1b10:	df 90       	pop	r13
    1b12:	cf 90       	pop	r12
    1b14:	bf 90       	pop	r11
    1b16:	af 90       	pop	r10
    1b18:	08 95       	ret

00001b1a <GLCD_DrawVLine>:
    1b1a:	0f 93       	push	r16
    1b1c:	94 2f       	mov	r25, r20
    1b1e:	68 17       	cp	r22, r24
    1b20:	18 f4       	brcc	.+6      	; 0x1b28 <GLCD_DrawVLine+0xe>
    1b22:	38 2f       	mov	r19, r24
    1b24:	86 2f       	mov	r24, r22
    1b26:	63 2f       	mov	r22, r19
    1b28:	02 2f       	mov	r16, r18
    1b2a:	26 2f       	mov	r18, r22
    1b2c:	49 2f       	mov	r20, r25
    1b2e:	68 2f       	mov	r22, r24
    1b30:	89 2f       	mov	r24, r25
    1b32:	0e 94 b4 0c 	call	0x1968	; 0x1968 <GLCD_SetPixels>
    1b36:	0f 91       	pop	r16
    1b38:	08 95       	ret

00001b3a <GLCD_DrawBitmap>:
    1b3a:	2f 92       	push	r2
    1b3c:	3f 92       	push	r3
    1b3e:	4f 92       	push	r4
    1b40:	5f 92       	push	r5
    1b42:	6f 92       	push	r6
    1b44:	7f 92       	push	r7
    1b46:	8f 92       	push	r8
    1b48:	9f 92       	push	r9
    1b4a:	af 92       	push	r10
    1b4c:	bf 92       	push	r11
    1b4e:	cf 92       	push	r12
    1b50:	df 92       	push	r13
    1b52:	ef 92       	push	r14
    1b54:	ff 92       	push	r15
    1b56:	0f 93       	push	r16
    1b58:	1f 93       	push	r17
    1b5a:	cf 93       	push	r28
    1b5c:	df 93       	push	r29
    1b5e:	00 d0       	rcall	.+0      	; 0x1b60 <GLCD_DrawBitmap+0x26>
    1b60:	00 d0       	rcall	.+0      	; 0x1b62 <GLCD_DrawBitmap+0x28>
    1b62:	cd b7       	in	r28, 0x3d	; 61
    1b64:	de b7       	in	r29, 0x3e	; 62
    1b66:	7c 01       	movw	r14, r24
    1b68:	16 2f       	mov	r17, r22
    1b6a:	29 83       	std	Y+1, r18	; 0x01
    1b6c:	c0 90 60 00 	lds	r12, 0x0060	; 0x800060 <__DATA_REGION_ORIGIN__>
    1b70:	d0 90 61 00 	lds	r13, 0x0061	; 0x800061 <__DATA_REGION_ORIGIN__+0x1>
    1b74:	8c 2d       	mov	r24, r12
    1b76:	86 0f       	add	r24, r22
    1b78:	87 ff       	sbrs	r24, 7
    1b7a:	02 c0       	rjmp	.+4      	; 0x1b80 <GLCD_DrawBitmap+0x46>
    1b7c:	10 e8       	ldi	r17, 0x80	; 128
    1b7e:	1c 19       	sub	r17, r12
    1b80:	24 2f       	mov	r18, r20
    1b82:	30 e0       	ldi	r19, 0x00	; 0
    1b84:	29 5f       	subi	r18, 0xF9	; 249
    1b86:	3f 4f       	sbci	r19, 0xFF	; 255
    1b88:	a3 e0       	ldi	r26, 0x03	; 3
    1b8a:	35 95       	asr	r19
    1b8c:	27 95       	ror	r18
    1b8e:	aa 95       	dec	r26
    1b90:	e1 f7       	brne	.-8      	; 0x1b8a <GLCD_DrawBitmap+0x50>
    1b92:	3b 83       	std	Y+3, r19	; 0x03
    1b94:	2a 83       	std	Y+2, r18	; 0x02
    1b96:	8d 2d       	mov	r24, r13
    1b98:	86 95       	lsr	r24
    1b9a:	86 95       	lsr	r24
    1b9c:	86 95       	lsr	r24
    1b9e:	82 0f       	add	r24, r18
    1ba0:	89 30       	cpi	r24, 0x09	; 9
    1ba2:	30 f0       	brcs	.+12     	; 0x1bb0 <GLCD_DrawBitmap+0x76>
    1ba4:	f9 01       	movw	r30, r18
    1ba6:	e8 1b       	sub	r30, r24
    1ba8:	f1 09       	sbc	r31, r1
    1baa:	38 96       	adiw	r30, 0x08	; 8
    1bac:	fb 83       	std	Y+3, r31	; 0x03
    1bae:	ea 83       	std	Y+2, r30	; 0x02
    1bb0:	fd 2d       	mov	r31, r13
    1bb2:	f7 70       	andi	r31, 0x07	; 7
    1bb4:	5f 2e       	mov	r5, r31
    1bb6:	bd 2c       	mov	r11, r13
    1bb8:	00 e0       	ldi	r16, 0x00	; 0
    1bba:	61 2e       	mov	r6, r17
    1bbc:	71 2c       	mov	r7, r1
    1bbe:	88 e0       	ldi	r24, 0x08	; 8
    1bc0:	90 e0       	ldi	r25, 0x00	; 0
    1bc2:	1c 01       	movw	r2, r24
    1bc4:	2f 1a       	sub	r2, r31
    1bc6:	31 08       	sbc	r3, r1
    1bc8:	80 2e       	mov	r8, r16
    1bca:	91 2c       	mov	r9, r1
    1bcc:	8a 81       	ldd	r24, Y+2	; 0x02
    1bce:	9b 81       	ldd	r25, Y+3	; 0x03
    1bd0:	88 16       	cp	r8, r24
    1bd2:	99 06       	cpc	r9, r25
    1bd4:	08 f0       	brcs	.+2      	; 0x1bd8 <GLCD_DrawBitmap+0x9e>
    1bd6:	77 c0       	rjmp	.+238    	; 0x1cc6 <GLCD_DrawBitmap+0x18c>
    1bd8:	6b 2d       	mov	r22, r11
    1bda:	8c 2d       	mov	r24, r12
    1bdc:	0e 94 e7 0b 	call	0x17ce	; 0x17ce <GLCD_GotoXY>
    1be0:	01 9f       	mul	r16, r17
    1be2:	a0 01       	movw	r20, r0
    1be4:	11 24       	eor	r1, r1
    1be6:	ba 01       	movw	r22, r20
    1be8:	66 19       	sub	r22, r6
    1bea:	77 09       	sbc	r23, r7
    1bec:	20 91 61 00 	lds	r18, 0x0061	; 0x800061 <__DATA_REGION_ORIGIN__+0x1>
    1bf0:	26 95       	lsr	r18
    1bf2:	26 95       	lsr	r18
    1bf4:	26 95       	lsr	r18
    1bf6:	30 e0       	ldi	r19, 0x00	; 0
    1bf8:	40 90 60 00 	lds	r4, 0x0060	; 0x800060 <__DATA_REGION_ORIGIN__>
    1bfc:	4e 0d       	add	r20, r14
    1bfe:	5f 1d       	adc	r21, r15
    1c00:	a1 2c       	mov	r10, r1
    1c02:	ea 2d       	mov	r30, r10
    1c04:	e4 0d       	add	r30, r4
    1c06:	8e 2f       	mov	r24, r30
    1c08:	90 e0       	ldi	r25, 0x00	; 0
    1c0a:	1a 15       	cp	r17, r10
    1c0c:	09 f4       	brne	.+2      	; 0x1c10 <GLCD_DrawBitmap+0xd6>
    1c0e:	39 c0       	rjmp	.+114    	; 0x1c82 <GLCD_DrawBitmap+0x148>
    1c10:	fa 01       	movw	r30, r20
    1c12:	a4 91       	lpm	r26, Z
    1c14:	05 2c       	mov	r0, r5
    1c16:	01 c0       	rjmp	.+2      	; 0x1c1a <GLCD_DrawBitmap+0xe0>
    1c18:	aa 0f       	add	r26, r26
    1c1a:	0a 94       	dec	r0
    1c1c:	ea f7       	brpl	.-6      	; 0x1c18 <GLCD_DrawBitmap+0xde>
    1c1e:	ea 2f       	mov	r30, r26
    1c20:	00 23       	and	r16, r16
    1c22:	89 f0       	breq	.+34     	; 0x1c46 <GLCD_DrawBitmap+0x10c>
    1c24:	4b 01       	movw	r8, r22
    1c26:	ff ef       	ldi	r31, 0xFF	; 255
    1c28:	8f 1a       	sub	r8, r31
    1c2a:	9f 0a       	sbc	r9, r31
    1c2c:	f7 01       	movw	r30, r14
    1c2e:	e6 0f       	add	r30, r22
    1c30:	f7 1f       	adc	r31, r23
    1c32:	e4 91       	lpm	r30, Z
    1c34:	f0 e0       	ldi	r31, 0x00	; 0
    1c36:	02 2c       	mov	r0, r2
    1c38:	02 c0       	rjmp	.+4      	; 0x1c3e <GLCD_DrawBitmap+0x104>
    1c3a:	f5 95       	asr	r31
    1c3c:	e7 95       	ror	r30
    1c3e:	0a 94       	dec	r0
    1c40:	e2 f7       	brpl	.-8      	; 0x1c3a <GLCD_DrawBitmap+0x100>
    1c42:	ea 2b       	or	r30, r26
    1c44:	b4 01       	movw	r22, r8
    1c46:	f9 81       	ldd	r31, Y+1	; 0x01
    1c48:	f1 30       	cpi	r31, 0x01	; 1
    1c4a:	61 f4       	brne	.+24     	; 0x1c64 <GLCD_DrawBitmap+0x12a>
    1c4c:	dc 01       	movw	r26, r24
    1c4e:	f3 e0       	ldi	r31, 0x03	; 3
    1c50:	aa 0f       	add	r26, r26
    1c52:	bb 1f       	adc	r27, r27
    1c54:	fa 95       	dec	r31
    1c56:	e1 f7       	brne	.-8      	; 0x1c50 <GLCD_DrawBitmap+0x116>
    1c58:	a7 59       	subi	r26, 0x97	; 151
    1c5a:	bf 4f       	sbci	r27, 0xFF	; 255
    1c5c:	a2 0f       	add	r26, r18
    1c5e:	b3 1f       	adc	r27, r19
    1c60:	fc 91       	ld	r31, X
    1c62:	ef 2b       	or	r30, r31
    1c64:	dc 01       	movw	r26, r24
    1c66:	f3 e0       	ldi	r31, 0x03	; 3
    1c68:	aa 0f       	add	r26, r26
    1c6a:	bb 1f       	adc	r27, r27
    1c6c:	fa 95       	dec	r31
    1c6e:	e1 f7       	brne	.-8      	; 0x1c68 <GLCD_DrawBitmap+0x12e>
    1c70:	a7 59       	subi	r26, 0x97	; 151
    1c72:	bf 4f       	sbci	r27, 0xFF	; 255
    1c74:	a2 0f       	add	r26, r18
    1c76:	b3 1f       	adc	r27, r19
    1c78:	ec 93       	st	X, r30
    1c7a:	a3 94       	inc	r10
    1c7c:	4f 5f       	subi	r20, 0xFF	; 255
    1c7e:	5f 4f       	sbci	r21, 0xFF	; 255
    1c80:	c0 cf       	rjmp	.-128    	; 0x1c02 <GLCD_DrawBitmap+0xc8>
    1c82:	e0 93 60 00 	sts	0x0060, r30	; 0x800060 <__DATA_REGION_ORIGIN__>
    1c86:	40 91 68 00 	lds	r20, 0x0068	; 0x800068 <__DATA_REGION_ORIGIN__+0x8>
    1c8a:	44 23       	and	r20, r20
    1c8c:	61 f0       	breq	.+24     	; 0x1ca6 <GLCD_DrawBitmap+0x16c>
    1c8e:	fc 01       	movw	r30, r24
    1c90:	43 e0       	ldi	r20, 0x03	; 3
    1c92:	ee 0f       	add	r30, r30
    1c94:	ff 1f       	adc	r31, r31
    1c96:	4a 95       	dec	r20
    1c98:	e1 f7       	brne	.-8      	; 0x1c92 <GLCD_DrawBitmap+0x158>
    1c9a:	e7 59       	subi	r30, 0x97	; 151
    1c9c:	ff 4f       	sbci	r31, 0xFF	; 255
    1c9e:	e2 0f       	add	r30, r18
    1ca0:	f3 1f       	adc	r31, r19
    1ca2:	40 81       	ld	r20, Z
    1ca4:	01 c0       	rjmp	.+2      	; 0x1ca8 <GLCD_DrawBitmap+0x16e>
    1ca6:	40 e0       	ldi	r20, 0x00	; 0
    1ca8:	b3 e0       	ldi	r27, 0x03	; 3
    1caa:	88 0f       	add	r24, r24
    1cac:	99 1f       	adc	r25, r25
    1cae:	ba 95       	dec	r27
    1cb0:	e1 f7       	brne	.-8      	; 0x1caa <GLCD_DrawBitmap+0x170>
    1cb2:	87 59       	subi	r24, 0x97	; 151
    1cb4:	9f 4f       	sbci	r25, 0xFF	; 255
    1cb6:	fc 01       	movw	r30, r24
    1cb8:	e2 0f       	add	r30, r18
    1cba:	f3 1f       	adc	r31, r19
    1cbc:	40 83       	st	Z, r20
    1cbe:	28 e0       	ldi	r18, 0x08	; 8
    1cc0:	b2 0e       	add	r11, r18
    1cc2:	0f 5f       	subi	r16, 0xFF	; 255
    1cc4:	81 cf       	rjmp	.-254    	; 0x1bc8 <GLCD_DrawBitmap+0x8e>
    1cc6:	02 97       	sbiw	r24, 0x02	; 2
    1cc8:	08 f4       	brcc	.+2      	; 0x1ccc <GLCD_DrawBitmap+0x192>
    1cca:	6c c0       	rjmp	.+216    	; 0x1da4 <GLCD_DrawBitmap+0x26a>
    1ccc:	6b 2d       	mov	r22, r11
    1cce:	8c 2d       	mov	r24, r12
    1cd0:	0e 94 e7 0b 	call	0x17ce	; 0x17ce <GLCD_GotoXY>
    1cd4:	80 91 61 00 	lds	r24, 0x0061	; 0x800061 <__DATA_REGION_ORIGIN__+0x1>
    1cd8:	86 95       	lsr	r24
    1cda:	86 95       	lsr	r24
    1cdc:	86 95       	lsr	r24
    1cde:	90 e0       	ldi	r25, 0x00	; 0
    1ce0:	20 91 60 00 	lds	r18, 0x0060	; 0x800060 <__DATA_REGION_ORIGIN__>
    1ce4:	2a 83       	std	Y+2, r18	; 0x02
    1ce6:	31 e0       	ldi	r19, 0x01	; 1
    1ce8:	83 1a       	sub	r8, r19
    1cea:	91 08       	sbc	r9, r1
    1cec:	18 9d       	mul	r17, r8
    1cee:	f0 01       	movw	r30, r0
    1cf0:	19 9d       	mul	r17, r9
    1cf2:	f0 0d       	add	r31, r0
    1cf4:	11 24       	eor	r1, r1
    1cf6:	ee 0d       	add	r30, r14
    1cf8:	ff 1d       	adc	r31, r15
    1cfa:	1c 82       	std	Y+4, r1	; 0x04
    1cfc:	48 e0       	ldi	r20, 0x08	; 8
    1cfe:	50 e0       	ldi	r21, 0x00	; 0
    1d00:	45 19       	sub	r20, r5
    1d02:	51 09       	sbc	r21, r1
    1d04:	6a 81       	ldd	r22, Y+2	; 0x02
    1d06:	2c 81       	ldd	r18, Y+4	; 0x04
    1d08:	62 0f       	add	r22, r18
    1d0a:	26 2f       	mov	r18, r22
    1d0c:	30 e0       	ldi	r19, 0x00	; 0
    1d0e:	7c 81       	ldd	r23, Y+4	; 0x04
    1d10:	17 17       	cp	r17, r23
    1d12:	21 f1       	breq	.+72     	; 0x1d5c <GLCD_DrawBitmap+0x222>
    1d14:	b9 01       	movw	r22, r18
    1d16:	a3 e0       	ldi	r26, 0x03	; 3
    1d18:	66 0f       	add	r22, r22
    1d1a:	77 1f       	adc	r23, r23
    1d1c:	aa 95       	dec	r26
    1d1e:	e1 f7       	brne	.-8      	; 0x1d18 <GLCD_DrawBitmap+0x1de>
    1d20:	db 01       	movw	r26, r22
    1d22:	a7 59       	subi	r26, 0x97	; 151
    1d24:	bf 4f       	sbci	r27, 0xFF	; 255
    1d26:	a8 0f       	add	r26, r24
    1d28:	b9 1f       	adc	r27, r25
    1d2a:	ac 91       	ld	r26, X
    1d2c:	24 91       	lpm	r18, Z
    1d2e:	30 e0       	ldi	r19, 0x00	; 0
    1d30:	04 2e       	mov	r0, r20
    1d32:	02 c0       	rjmp	.+4      	; 0x1d38 <GLCD_DrawBitmap+0x1fe>
    1d34:	35 95       	asr	r19
    1d36:	27 95       	ror	r18
    1d38:	0a 94       	dec	r0
    1d3a:	e2 f7       	brpl	.-8      	; 0x1d34 <GLCD_DrawBitmap+0x1fa>
    1d3c:	2a 2b       	or	r18, r26
    1d3e:	39 81       	ldd	r19, Y+1	; 0x01
    1d40:	31 30       	cpi	r19, 0x01	; 1
    1d42:	09 f4       	brne	.+2      	; 0x1d46 <GLCD_DrawBitmap+0x20c>
    1d44:	2a 2b       	or	r18, r26
    1d46:	67 59       	subi	r22, 0x97	; 151
    1d48:	7f 4f       	sbci	r23, 0xFF	; 255
    1d4a:	db 01       	movw	r26, r22
    1d4c:	a8 0f       	add	r26, r24
    1d4e:	b9 1f       	adc	r27, r25
    1d50:	2c 93       	st	X, r18
    1d52:	7c 81       	ldd	r23, Y+4	; 0x04
    1d54:	7f 5f       	subi	r23, 0xFF	; 255
    1d56:	7c 83       	std	Y+4, r23	; 0x04
    1d58:	31 96       	adiw	r30, 0x01	; 1
    1d5a:	d4 cf       	rjmp	.-88     	; 0x1d04 <GLCD_DrawBitmap+0x1ca>
    1d5c:	40 91 68 00 	lds	r20, 0x0068	; 0x800068 <__DATA_REGION_ORIGIN__+0x8>
    1d60:	44 23       	and	r20, r20
    1d62:	89 f0       	breq	.+34     	; 0x1d86 <GLCD_DrawBitmap+0x24c>
    1d64:	f9 01       	movw	r30, r18
    1d66:	73 e0       	ldi	r23, 0x03	; 3
    1d68:	ee 0f       	add	r30, r30
    1d6a:	ff 1f       	adc	r31, r31
    1d6c:	7a 95       	dec	r23
    1d6e:	e1 f7       	brne	.-8      	; 0x1d68 <GLCD_DrawBitmap+0x22e>
    1d70:	e7 59       	subi	r30, 0x97	; 151
    1d72:	ff 4f       	sbci	r31, 0xFF	; 255
    1d74:	e8 0f       	add	r30, r24
    1d76:	f9 1f       	adc	r31, r25
    1d78:	41 30       	cpi	r20, 0x01	; 1
    1d7a:	11 f4       	brne	.+4      	; 0x1d80 <GLCD_DrawBitmap+0x246>
    1d7c:	40 81       	ld	r20, Z
    1d7e:	04 c0       	rjmp	.+8      	; 0x1d88 <GLCD_DrawBitmap+0x24e>
    1d80:	40 81       	ld	r20, Z
    1d82:	40 95       	com	r20
    1d84:	01 c0       	rjmp	.+2      	; 0x1d88 <GLCD_DrawBitmap+0x24e>
    1d86:	40 e0       	ldi	r20, 0x00	; 0
    1d88:	6f 5f       	subi	r22, 0xFF	; 255
    1d8a:	60 93 60 00 	sts	0x0060, r22	; 0x800060 <__DATA_REGION_ORIGIN__>
    1d8e:	53 e0       	ldi	r21, 0x03	; 3
    1d90:	22 0f       	add	r18, r18
    1d92:	33 1f       	adc	r19, r19
    1d94:	5a 95       	dec	r21
    1d96:	e1 f7       	brne	.-8      	; 0x1d90 <GLCD_DrawBitmap+0x256>
    1d98:	27 59       	subi	r18, 0x97	; 151
    1d9a:	3f 4f       	sbci	r19, 0xFF	; 255
    1d9c:	f9 01       	movw	r30, r18
    1d9e:	e8 0f       	add	r30, r24
    1da0:	f9 1f       	adc	r31, r25
    1da2:	40 83       	st	Z, r20
    1da4:	6d 2d       	mov	r22, r13
    1da6:	80 91 60 00 	lds	r24, 0x0060	; 0x800060 <__DATA_REGION_ORIGIN__>
    1daa:	0f 90       	pop	r0
    1dac:	0f 90       	pop	r0
    1dae:	0f 90       	pop	r0
    1db0:	0f 90       	pop	r0
    1db2:	df 91       	pop	r29
    1db4:	cf 91       	pop	r28
    1db6:	1f 91       	pop	r17
    1db8:	0f 91       	pop	r16
    1dba:	ff 90       	pop	r15
    1dbc:	ef 90       	pop	r14
    1dbe:	df 90       	pop	r13
    1dc0:	cf 90       	pop	r12
    1dc2:	bf 90       	pop	r11
    1dc4:	af 90       	pop	r10
    1dc6:	9f 90       	pop	r9
    1dc8:	8f 90       	pop	r8
    1dca:	7f 90       	pop	r7
    1dcc:	6f 90       	pop	r6
    1dce:	5f 90       	pop	r5
    1dd0:	4f 90       	pop	r4
    1dd2:	3f 90       	pop	r3
    1dd4:	2f 90       	pop	r2
    1dd6:	0c 94 e7 0b 	jmp	0x17ce	; 0x17ce <GLCD_GotoXY>

00001dda <GLCD_DrawLine>:
    1dda:	8f 92       	push	r8
    1ddc:	9f 92       	push	r9
    1dde:	af 92       	push	r10
    1de0:	bf 92       	push	r11
    1de2:	cf 92       	push	r12
    1de4:	df 92       	push	r13
    1de6:	ef 92       	push	r14
    1de8:	ff 92       	push	r15
    1dea:	0f 93       	push	r16
    1dec:	1f 93       	push	r17
    1dee:	cf 93       	push	r28
    1df0:	df 93       	push	r29
    1df2:	d8 2f       	mov	r29, r24
    1df4:	c6 2f       	mov	r28, r22
    1df6:	14 2f       	mov	r17, r20
    1df8:	62 2f       	mov	r22, r18
    1dfa:	87 fd       	sbrc	r24, 7
    1dfc:	97 c0       	rjmp	.+302    	; 0x1f2c <GLCD_DrawLine+0x152>
    1dfe:	47 fd       	sbrc	r20, 7
    1e00:	95 c0       	rjmp	.+298    	; 0x1f2c <GLCD_DrawLine+0x152>
    1e02:	c0 34       	cpi	r28, 0x40	; 64
    1e04:	08 f0       	brcs	.+2      	; 0x1e08 <GLCD_DrawLine+0x2e>
    1e06:	92 c0       	rjmp	.+292    	; 0x1f2c <GLCD_DrawLine+0x152>
    1e08:	20 34       	cpi	r18, 0x40	; 64
    1e0a:	08 f0       	brcs	.+2      	; 0x1e0e <GLCD_DrawLine+0x34>
    1e0c:	8f c0       	rjmp	.+286    	; 0x1f2c <GLCD_DrawLine+0x152>
    1e0e:	84 13       	cpse	r24, r20
    1e10:	11 c0       	rjmp	.+34     	; 0x1e34 <GLCD_DrawLine+0x5a>
    1e12:	20 2f       	mov	r18, r16
    1e14:	48 2f       	mov	r20, r24
    1e16:	8c 2f       	mov	r24, r28
    1e18:	df 91       	pop	r29
    1e1a:	cf 91       	pop	r28
    1e1c:	1f 91       	pop	r17
    1e1e:	0f 91       	pop	r16
    1e20:	ff 90       	pop	r15
    1e22:	ef 90       	pop	r14
    1e24:	df 90       	pop	r13
    1e26:	cf 90       	pop	r12
    1e28:	bf 90       	pop	r11
    1e2a:	af 90       	pop	r10
    1e2c:	9f 90       	pop	r9
    1e2e:	8f 90       	pop	r8
    1e30:	0c 94 8d 0d 	jmp	0x1b1a	; 0x1b1a <GLCD_DrawVLine>
    1e34:	c2 13       	cpse	r28, r18
    1e36:	11 c0       	rjmp	.+34     	; 0x1e5a <GLCD_DrawLine+0x80>
    1e38:	20 2f       	mov	r18, r16
    1e3a:	4c 2f       	mov	r20, r28
    1e3c:	61 2f       	mov	r22, r17
    1e3e:	df 91       	pop	r29
    1e40:	cf 91       	pop	r28
    1e42:	1f 91       	pop	r17
    1e44:	0f 91       	pop	r16
    1e46:	ff 90       	pop	r15
    1e48:	ef 90       	pop	r14
    1e4a:	df 90       	pop	r13
    1e4c:	cf 90       	pop	r12
    1e4e:	bf 90       	pop	r11
    1e50:	af 90       	pop	r10
    1e52:	9f 90       	pop	r9
    1e54:	8f 90       	pop	r8
    1e56:	0c 94 9a 0c 	jmp	0x1934	; 0x1934 <GLCD_DrawHLine>
    1e5a:	8c 2f       	mov	r24, r28
    1e5c:	90 e0       	ldi	r25, 0x00	; 0
    1e5e:	c2 2e       	mov	r12, r18
    1e60:	d1 2c       	mov	r13, r1
    1e62:	2c 17       	cp	r18, r28
    1e64:	28 f4       	brcc	.+10     	; 0x1e70 <GLCD_DrawLine+0x96>
    1e66:	9c 01       	movw	r18, r24
    1e68:	2c 19       	sub	r18, r12
    1e6a:	3d 09       	sbc	r19, r13
    1e6c:	69 01       	movw	r12, r18
    1e6e:	02 c0       	rjmp	.+4      	; 0x1e74 <GLCD_DrawLine+0x9a>
    1e70:	c8 1a       	sub	r12, r24
    1e72:	d9 0a       	sbc	r13, r25
    1e74:	8d 2f       	mov	r24, r29
    1e76:	90 e0       	ldi	r25, 0x00	; 0
    1e78:	e1 2e       	mov	r14, r17
    1e7a:	f1 2c       	mov	r15, r1
    1e7c:	1d 17       	cp	r17, r29
    1e7e:	70 f4       	brcc	.+28     	; 0x1e9c <GLCD_DrawLine+0xc2>
    1e80:	9c 01       	movw	r18, r24
    1e82:	2e 19       	sub	r18, r14
    1e84:	3f 09       	sbc	r19, r15
    1e86:	79 01       	movw	r14, r18
    1e88:	2c 15       	cp	r18, r12
    1e8a:	3d 05       	cpc	r19, r13
    1e8c:	ec f1       	brlt	.+122    	; 0x1f08 <GLCD_DrawLine+0x12e>
    1e8e:	8c 2f       	mov	r24, r28
    1e90:	c6 2f       	mov	r28, r22
    1e92:	68 2f       	mov	r22, r24
    1e94:	8d 2f       	mov	r24, r29
    1e96:	d1 2f       	mov	r29, r17
    1e98:	18 2f       	mov	r17, r24
    1e9a:	05 c0       	rjmp	.+10     	; 0x1ea6 <GLCD_DrawLine+0xcc>
    1e9c:	e8 1a       	sub	r14, r24
    1e9e:	f9 0a       	sbc	r15, r25
    1ea0:	ec 14       	cp	r14, r12
    1ea2:	fd 04       	cpc	r15, r13
    1ea4:	3c f0       	brlt	.+14     	; 0x1eb4 <GLCD_DrawLine+0xda>
    1ea6:	a1 2e       	mov	r10, r17
    1ea8:	ad 1a       	sub	r10, r29
    1eaa:	c6 17       	cp	r28, r22
    1eac:	68 f4       	brcc	.+26     	; 0x1ec8 <GLCD_DrawLine+0xee>
    1eae:	96 2e       	mov	r9, r22
    1eb0:	9c 1a       	sub	r9, r28
    1eb2:	0c c0       	rjmp	.+24     	; 0x1ecc <GLCD_DrawLine+0xf2>
    1eb4:	6c 17       	cp	r22, r28
    1eb6:	98 f5       	brcc	.+102    	; 0x1f1e <GLCD_DrawLine+0x144>
    1eb8:	ac 2e       	mov	r10, r28
    1eba:	a6 1a       	sub	r10, r22
    1ebc:	8d 2f       	mov	r24, r29
    1ebe:	d6 2f       	mov	r29, r22
    1ec0:	68 2f       	mov	r22, r24
    1ec2:	81 2f       	mov	r24, r17
    1ec4:	1c 2f       	mov	r17, r28
    1ec6:	c8 2f       	mov	r28, r24
    1ec8:	9c 2e       	mov	r9, r28
    1eca:	96 1a       	sub	r9, r22
    1ecc:	ba 2c       	mov	r11, r10
    1ece:	b6 94       	lsr	r11
    1ed0:	c6 17       	cp	r28, r22
    1ed2:	18 f0       	brcs	.+6      	; 0x1eda <GLCD_DrawLine+0x100>
    1ed4:	88 24       	eor	r8, r8
    1ed6:	8a 94       	dec	r8
    1ed8:	11 c0       	rjmp	.+34     	; 0x1efc <GLCD_DrawLine+0x122>
    1eda:	88 24       	eor	r8, r8
    1edc:	83 94       	inc	r8
    1ede:	0e c0       	rjmp	.+28     	; 0x1efc <GLCD_DrawLine+0x122>
    1ee0:	40 2f       	mov	r20, r16
    1ee2:	ec 14       	cp	r14, r12
    1ee4:	fd 04       	cpc	r15, r13
    1ee6:	6c f4       	brge	.+26     	; 0x1f02 <GLCD_DrawLine+0x128>
    1ee8:	6d 2f       	mov	r22, r29
    1eea:	8c 2f       	mov	r24, r28
    1eec:	0e 94 5d 0c 	call	0x18ba	; 0x18ba <GLCD_SetPixel>
    1ef0:	b9 18       	sub	r11, r9
    1ef2:	b7 fe       	sbrs	r11, 7
    1ef4:	02 c0       	rjmp	.+4      	; 0x1efa <GLCD_DrawLine+0x120>
    1ef6:	c8 0d       	add	r28, r8
    1ef8:	ba 0c       	add	r11, r10
    1efa:	df 5f       	subi	r29, 0xFF	; 255
    1efc:	1d 17       	cp	r17, r29
    1efe:	80 f7       	brcc	.-32     	; 0x1ee0 <GLCD_DrawLine+0x106>
    1f00:	15 c0       	rjmp	.+42     	; 0x1f2c <GLCD_DrawLine+0x152>
    1f02:	6c 2f       	mov	r22, r28
    1f04:	8d 2f       	mov	r24, r29
    1f06:	f2 cf       	rjmp	.-28     	; 0x1eec <GLCD_DrawLine+0x112>
    1f08:	6c 17       	cp	r22, r28
    1f0a:	48 f4       	brcc	.+18     	; 0x1f1e <GLCD_DrawLine+0x144>
    1f0c:	ac 2e       	mov	r10, r28
    1f0e:	a6 1a       	sub	r10, r22
    1f10:	8d 2f       	mov	r24, r29
    1f12:	d6 2f       	mov	r29, r22
    1f14:	68 2f       	mov	r22, r24
    1f16:	81 2f       	mov	r24, r17
    1f18:	1c 2f       	mov	r17, r28
    1f1a:	c8 2f       	mov	r28, r24
    1f1c:	c8 cf       	rjmp	.-112    	; 0x1eae <GLCD_DrawLine+0xd4>
    1f1e:	81 2f       	mov	r24, r17
    1f20:	16 2f       	mov	r17, r22
    1f22:	68 2f       	mov	r22, r24
    1f24:	8d 2f       	mov	r24, r29
    1f26:	dc 2f       	mov	r29, r28
    1f28:	c8 2f       	mov	r28, r24
    1f2a:	bd cf       	rjmp	.-134    	; 0x1ea6 <GLCD_DrawLine+0xcc>
    1f2c:	df 91       	pop	r29
    1f2e:	cf 91       	pop	r28
    1f30:	1f 91       	pop	r17
    1f32:	0f 91       	pop	r16
    1f34:	ff 90       	pop	r15
    1f36:	ef 90       	pop	r14
    1f38:	df 90       	pop	r13
    1f3a:	cf 90       	pop	r12
    1f3c:	bf 90       	pop	r11
    1f3e:	af 90       	pop	r10
    1f40:	9f 90       	pop	r9
    1f42:	8f 90       	pop	r8
    1f44:	08 95       	ret

00001f46 <GLCD_DrawRectangle>:
    1f46:	ff 92       	push	r15
    1f48:	0f 93       	push	r16
    1f4a:	1f 93       	push	r17
    1f4c:	cf 93       	push	r28
    1f4e:	df 93       	push	r29
    1f50:	87 fd       	sbrc	r24, 7
    1f52:	26 c0       	rjmp	.+76     	; 0x1fa0 <GLCD_DrawRectangle+0x5a>
    1f54:	47 fd       	sbrc	r20, 7
    1f56:	24 c0       	rjmp	.+72     	; 0x1fa0 <GLCD_DrawRectangle+0x5a>
    1f58:	60 34       	cpi	r22, 0x40	; 64
    1f5a:	10 f5       	brcc	.+68     	; 0x1fa0 <GLCD_DrawRectangle+0x5a>
    1f5c:	20 34       	cpi	r18, 0x40	; 64
    1f5e:	00 f5       	brcc	.+64     	; 0x1fa0 <GLCD_DrawRectangle+0x5a>
    1f60:	d2 2f       	mov	r29, r18
    1f62:	14 2f       	mov	r17, r20
    1f64:	c6 2f       	mov	r28, r22
    1f66:	f8 2e       	mov	r15, r24
    1f68:	20 2f       	mov	r18, r16
    1f6a:	46 2f       	mov	r20, r22
    1f6c:	61 2f       	mov	r22, r17
    1f6e:	0e 94 9a 0c 	call	0x1934	; 0x1934 <GLCD_DrawHLine>
    1f72:	20 2f       	mov	r18, r16
    1f74:	4d 2f       	mov	r20, r29
    1f76:	61 2f       	mov	r22, r17
    1f78:	8f 2d       	mov	r24, r15
    1f7a:	0e 94 9a 0c 	call	0x1934	; 0x1934 <GLCD_DrawHLine>
    1f7e:	20 2f       	mov	r18, r16
    1f80:	4f 2d       	mov	r20, r15
    1f82:	6d 2f       	mov	r22, r29
    1f84:	8c 2f       	mov	r24, r28
    1f86:	0e 94 8d 0d 	call	0x1b1a	; 0x1b1a <GLCD_DrawVLine>
    1f8a:	20 2f       	mov	r18, r16
    1f8c:	41 2f       	mov	r20, r17
    1f8e:	6d 2f       	mov	r22, r29
    1f90:	8c 2f       	mov	r24, r28
    1f92:	df 91       	pop	r29
    1f94:	cf 91       	pop	r28
    1f96:	1f 91       	pop	r17
    1f98:	0f 91       	pop	r16
    1f9a:	ff 90       	pop	r15
    1f9c:	0c 94 8d 0d 	jmp	0x1b1a	; 0x1b1a <GLCD_DrawVLine>
    1fa0:	df 91       	pop	r29
    1fa2:	cf 91       	pop	r28
    1fa4:	1f 91       	pop	r17
    1fa6:	0f 91       	pop	r16
    1fa8:	ff 90       	pop	r15
    1faa:	08 95       	ret

00001fac <GLCD_DrawRoundRectangle>:
    1fac:	6f 92       	push	r6
    1fae:	7f 92       	push	r7
    1fb0:	8f 92       	push	r8
    1fb2:	9f 92       	push	r9
    1fb4:	af 92       	push	r10
    1fb6:	bf 92       	push	r11
    1fb8:	cf 92       	push	r12
    1fba:	df 92       	push	r13
    1fbc:	ef 92       	push	r14
    1fbe:	ff 92       	push	r15
    1fc0:	0f 93       	push	r16
    1fc2:	1f 93       	push	r17
    1fc4:	cf 93       	push	r28
    1fc6:	df 93       	push	r29
    1fc8:	87 fd       	sbrc	r24, 7
    1fca:	84 c0       	rjmp	.+264    	; 0x20d4 <GLCD_DrawRoundRectangle+0x128>
    1fcc:	47 fd       	sbrc	r20, 7
    1fce:	82 c0       	rjmp	.+260    	; 0x20d4 <GLCD_DrawRoundRectangle+0x128>
    1fd0:	60 34       	cpi	r22, 0x40	; 64
    1fd2:	08 f0       	brcs	.+2      	; 0x1fd6 <GLCD_DrawRoundRectangle+0x2a>
    1fd4:	7f c0       	rjmp	.+254    	; 0x20d4 <GLCD_DrawRoundRectangle+0x128>
    1fd6:	20 34       	cpi	r18, 0x40	; 64
    1fd8:	08 f0       	brcs	.+2      	; 0x1fdc <GLCD_DrawRoundRectangle+0x30>
    1fda:	7c c0       	rjmp	.+248    	; 0x20d4 <GLCD_DrawRoundRectangle+0x128>
    1fdc:	12 2f       	mov	r17, r18
    1fde:	d4 2e       	mov	r13, r20
    1fe0:	f6 2e       	mov	r15, r22
    1fe2:	a8 2e       	mov	r10, r24
    1fe4:	c3 e0       	ldi	r28, 0x03	; 3
    1fe6:	d0 e0       	ldi	r29, 0x00	; 0
    1fe8:	82 e0       	ldi	r24, 0x02	; 2
    1fea:	08 9f       	mul	r16, r24
    1fec:	c0 19       	sub	r28, r0
    1fee:	d1 09       	sbc	r29, r1
    1ff0:	11 24       	eor	r1, r1
    1ff2:	c4 2e       	mov	r12, r20
    1ff4:	c0 1a       	sub	r12, r16
    1ff6:	ba 2c       	mov	r11, r10
    1ff8:	b0 0e       	add	r11, r16
    1ffa:	2e 2d       	mov	r18, r14
    1ffc:	46 2f       	mov	r20, r22
    1ffe:	6c 2d       	mov	r22, r12
    2000:	8b 2d       	mov	r24, r11
    2002:	0e 94 9a 0c 	call	0x1934	; 0x1934 <GLCD_DrawHLine>
    2006:	2e 2d       	mov	r18, r14
    2008:	41 2f       	mov	r20, r17
    200a:	6c 2d       	mov	r22, r12
    200c:	8b 2d       	mov	r24, r11
    200e:	0e 94 9a 0c 	call	0x1934	; 0x1934 <GLCD_DrawHLine>
    2012:	10 1b       	sub	r17, r16
    2014:	f0 0e       	add	r15, r16
    2016:	2e 2d       	mov	r18, r14
    2018:	4a 2d       	mov	r20, r10
    201a:	61 2f       	mov	r22, r17
    201c:	8f 2d       	mov	r24, r15
    201e:	0e 94 8d 0d 	call	0x1b1a	; 0x1b1a <GLCD_DrawVLine>
    2022:	2e 2d       	mov	r18, r14
    2024:	4d 2d       	mov	r20, r13
    2026:	61 2f       	mov	r22, r17
    2028:	8f 2d       	mov	r24, r15
    202a:	0e 94 8d 0d 	call	0x1b1a	; 0x1b1a <GLCD_DrawVLine>
    202e:	d1 2c       	mov	r13, r1
    2030:	4e 2d       	mov	r20, r14
    2032:	8f 2c       	mov	r8, r15
    2034:	80 1a       	sub	r8, r16
    2036:	68 2d       	mov	r22, r8
    2038:	9b 2c       	mov	r9, r11
    203a:	9d 18       	sub	r9, r13
    203c:	89 2d       	mov	r24, r9
    203e:	0e 94 5d 0c 	call	0x18ba	; 0x18ba <GLCD_SetPixel>
    2042:	4e 2d       	mov	r20, r14
    2044:	af 2c       	mov	r10, r15
    2046:	ad 18       	sub	r10, r13
    2048:	6a 2d       	mov	r22, r10
    204a:	6b 2c       	mov	r6, r11
    204c:	60 1a       	sub	r6, r16
    204e:	86 2d       	mov	r24, r6
    2050:	0e 94 5d 0c 	call	0x18ba	; 0x18ba <GLCD_SetPixel>
    2054:	4e 2d       	mov	r20, r14
    2056:	68 2d       	mov	r22, r8
    2058:	8c 2c       	mov	r8, r12
    205a:	8d 0c       	add	r8, r13
    205c:	88 2d       	mov	r24, r8
    205e:	0e 94 5d 0c 	call	0x18ba	; 0x18ba <GLCD_SetPixel>
    2062:	4e 2d       	mov	r20, r14
    2064:	6a 2d       	mov	r22, r10
    2066:	ac 2c       	mov	r10, r12
    2068:	a0 0e       	add	r10, r16
    206a:	8a 2d       	mov	r24, r10
    206c:	0e 94 5d 0c 	call	0x18ba	; 0x18ba <GLCD_SetPixel>
    2070:	4e 2d       	mov	r20, r14
    2072:	71 2e       	mov	r7, r17
    2074:	70 0e       	add	r7, r16
    2076:	67 2d       	mov	r22, r7
    2078:	89 2d       	mov	r24, r9
    207a:	0e 94 5d 0c 	call	0x18ba	; 0x18ba <GLCD_SetPixel>
    207e:	4e 2d       	mov	r20, r14
    2080:	91 2e       	mov	r9, r17
    2082:	9d 0c       	add	r9, r13
    2084:	69 2d       	mov	r22, r9
    2086:	86 2d       	mov	r24, r6
    2088:	0e 94 5d 0c 	call	0x18ba	; 0x18ba <GLCD_SetPixel>
    208c:	4e 2d       	mov	r20, r14
    208e:	67 2d       	mov	r22, r7
    2090:	88 2d       	mov	r24, r8
    2092:	0e 94 5d 0c 	call	0x18ba	; 0x18ba <GLCD_SetPixel>
    2096:	4e 2d       	mov	r20, r14
    2098:	69 2d       	mov	r22, r9
    209a:	8a 2d       	mov	r24, r10
    209c:	0e 94 5d 0c 	call	0x18ba	; 0x18ba <GLCD_SetPixel>
    20a0:	8d 2d       	mov	r24, r13
    20a2:	90 e0       	ldi	r25, 0x00	; 0
    20a4:	d7 ff       	sbrs	r29, 7
    20a6:	08 c0       	rjmp	.+16     	; 0x20b8 <GLCD_DrawRoundRectangle+0x10c>
    20a8:	88 0f       	add	r24, r24
    20aa:	99 1f       	adc	r25, r25
    20ac:	88 0f       	add	r24, r24
    20ae:	99 1f       	adc	r25, r25
    20b0:	06 96       	adiw	r24, 0x06	; 6
    20b2:	c8 0f       	add	r28, r24
    20b4:	d9 1f       	adc	r29, r25
    20b6:	0a c0       	rjmp	.+20     	; 0x20cc <GLCD_DrawRoundRectangle+0x120>
    20b8:	80 1b       	sub	r24, r16
    20ba:	91 09       	sbc	r25, r1
    20bc:	88 0f       	add	r24, r24
    20be:	99 1f       	adc	r25, r25
    20c0:	88 0f       	add	r24, r24
    20c2:	99 1f       	adc	r25, r25
    20c4:	0a 96       	adiw	r24, 0x0a	; 10
    20c6:	c8 0f       	add	r28, r24
    20c8:	d9 1f       	adc	r29, r25
    20ca:	01 50       	subi	r16, 0x01	; 1
    20cc:	d3 94       	inc	r13
    20ce:	0d 15       	cp	r16, r13
    20d0:	08 f0       	brcs	.+2      	; 0x20d4 <GLCD_DrawRoundRectangle+0x128>
    20d2:	ae cf       	rjmp	.-164    	; 0x2030 <GLCD_DrawRoundRectangle+0x84>
    20d4:	df 91       	pop	r29
    20d6:	cf 91       	pop	r28
    20d8:	1f 91       	pop	r17
    20da:	0f 91       	pop	r16
    20dc:	ff 90       	pop	r15
    20de:	ef 90       	pop	r14
    20e0:	df 90       	pop	r13
    20e2:	cf 90       	pop	r12
    20e4:	bf 90       	pop	r11
    20e6:	af 90       	pop	r10
    20e8:	9f 90       	pop	r9
    20ea:	8f 90       	pop	r8
    20ec:	7f 90       	pop	r7
    20ee:	6f 90       	pop	r6
    20f0:	08 95       	ret

000020f2 <GLCD_DrawTriangle>:
    20f2:	cf 92       	push	r12
    20f4:	df 92       	push	r13
    20f6:	ef 92       	push	r14
    20f8:	ff 92       	push	r15
    20fa:	0f 93       	push	r16
    20fc:	1f 93       	push	r17
    20fe:	cf 93       	push	r28
    2100:	df 93       	push	r29
    2102:	87 fd       	sbrc	r24, 7
    2104:	1f c0       	rjmp	.+62     	; 0x2144 <GLCD_DrawTriangle+0x52>
    2106:	47 fd       	sbrc	r20, 7
    2108:	1d c0       	rjmp	.+58     	; 0x2144 <GLCD_DrawTriangle+0x52>
    210a:	07 fd       	sbrc	r16, 7
    210c:	1b c0       	rjmp	.+54     	; 0x2144 <GLCD_DrawTriangle+0x52>
    210e:	60 34       	cpi	r22, 0x40	; 64
    2110:	c8 f4       	brcc	.+50     	; 0x2144 <GLCD_DrawTriangle+0x52>
    2112:	20 34       	cpi	r18, 0x40	; 64
    2114:	b8 f4       	brcc	.+46     	; 0x2144 <GLCD_DrawTriangle+0x52>
    2116:	9f e3       	ldi	r25, 0x3F	; 63
    2118:	9e 15       	cp	r25, r14
    211a:	a0 f0       	brcs	.+40     	; 0x2144 <GLCD_DrawTriangle+0x52>
    211c:	c0 2f       	mov	r28, r16
    211e:	d2 2e       	mov	r13, r18
    2120:	f4 2e       	mov	r15, r20
    2122:	16 2f       	mov	r17, r22
    2124:	d8 2f       	mov	r29, r24
    2126:	0c 2d       	mov	r16, r12
    2128:	0e 94 ed 0e 	call	0x1dda	; 0x1dda <GLCD_DrawLine>
    212c:	2e 2d       	mov	r18, r14
    212e:	4c 2f       	mov	r20, r28
    2130:	6d 2d       	mov	r22, r13
    2132:	8f 2d       	mov	r24, r15
    2134:	0e 94 ed 0e 	call	0x1dda	; 0x1dda <GLCD_DrawLine>
    2138:	21 2f       	mov	r18, r17
    213a:	4d 2f       	mov	r20, r29
    213c:	6e 2d       	mov	r22, r14
    213e:	8c 2f       	mov	r24, r28
    2140:	0e 94 ed 0e 	call	0x1dda	; 0x1dda <GLCD_DrawLine>
    2144:	df 91       	pop	r29
    2146:	cf 91       	pop	r28
    2148:	1f 91       	pop	r17
    214a:	0f 91       	pop	r16
    214c:	ff 90       	pop	r15
    214e:	ef 90       	pop	r14
    2150:	df 90       	pop	r13
    2152:	cf 90       	pop	r12
    2154:	08 95       	ret

00002156 <GLCD_DrawCircle>:
    2156:	6f 92       	push	r6
    2158:	7f 92       	push	r7
    215a:	8f 92       	push	r8
    215c:	9f 92       	push	r9
    215e:	af 92       	push	r10
    2160:	bf 92       	push	r11
    2162:	cf 92       	push	r12
    2164:	df 92       	push	r13
    2166:	ef 92       	push	r14
    2168:	ff 92       	push	r15
    216a:	0f 93       	push	r16
    216c:	1f 93       	push	r17
    216e:	cf 93       	push	r28
    2170:	df 93       	push	r29
    2172:	e4 2f       	mov	r30, r20
    2174:	f0 e0       	ldi	r31, 0x00	; 0
    2176:	df 01       	movw	r26, r30
    2178:	a8 0f       	add	r26, r24
    217a:	b1 1d       	adc	r27, r1
    217c:	a0 38       	cpi	r26, 0x80	; 128
    217e:	b1 05       	cpc	r27, r1
    2180:	0c f0       	brlt	.+2      	; 0x2184 <GLCD_DrawCircle+0x2e>
    2182:	69 c0       	rjmp	.+210    	; 0x2256 <GLCD_DrawCircle+0x100>
    2184:	df 01       	movw	r26, r30
    2186:	a6 0f       	add	r26, r22
    2188:	b1 1d       	adc	r27, r1
    218a:	a0 34       	cpi	r26, 0x40	; 64
    218c:	b1 05       	cpc	r27, r1
    218e:	0c f0       	brlt	.+2      	; 0x2192 <GLCD_DrawCircle+0x3c>
    2190:	62 c0       	rjmp	.+196    	; 0x2256 <GLCD_DrawCircle+0x100>
    2192:	d2 2f       	mov	r29, r18
    2194:	f6 2e       	mov	r15, r22
    2196:	08 2f       	mov	r16, r24
    2198:	ee 0f       	add	r30, r30
    219a:	ff 1f       	adc	r31, r31
    219c:	81 e0       	ldi	r24, 0x01	; 1
    219e:	90 e0       	ldi	r25, 0x00	; 0
    21a0:	6c 01       	movw	r12, r24
    21a2:	ce 1a       	sub	r12, r30
    21a4:	df 0a       	sbc	r13, r31
    21a6:	c4 2f       	mov	r28, r20
    21a8:	88 24       	eor	r8, r8
    21aa:	83 94       	inc	r8
    21ac:	91 2c       	mov	r9, r1
    21ae:	a1 2c       	mov	r10, r1
    21b0:	b1 2c       	mov	r11, r1
    21b2:	10 e0       	ldi	r17, 0x00	; 0
    21b4:	7f 2c       	mov	r7, r15
    21b6:	71 0e       	add	r7, r17
    21b8:	4d 2f       	mov	r20, r29
    21ba:	67 2d       	mov	r22, r7
    21bc:	e0 2e       	mov	r14, r16
    21be:	ec 0e       	add	r14, r28
    21c0:	8e 2d       	mov	r24, r14
    21c2:	0e 94 5d 0c 	call	0x18ba	; 0x18ba <GLCD_SetPixel>
    21c6:	4d 2f       	mov	r20, r29
    21c8:	67 2d       	mov	r22, r7
    21ca:	70 2e       	mov	r7, r16
    21cc:	7c 1a       	sub	r7, r28
    21ce:	87 2d       	mov	r24, r7
    21d0:	0e 94 5d 0c 	call	0x18ba	; 0x18ba <GLCD_SetPixel>
    21d4:	6f 2c       	mov	r6, r15
    21d6:	61 1a       	sub	r6, r17
    21d8:	4d 2f       	mov	r20, r29
    21da:	66 2d       	mov	r22, r6
    21dc:	87 2d       	mov	r24, r7
    21de:	0e 94 5d 0c 	call	0x18ba	; 0x18ba <GLCD_SetPixel>
    21e2:	4d 2f       	mov	r20, r29
    21e4:	66 2d       	mov	r22, r6
    21e6:	8e 2d       	mov	r24, r14
    21e8:	0e 94 5d 0c 	call	0x18ba	; 0x18ba <GLCD_SetPixel>
    21ec:	70 2e       	mov	r7, r16
    21ee:	71 0e       	add	r7, r17
    21f0:	4d 2f       	mov	r20, r29
    21f2:	ef 2c       	mov	r14, r15
    21f4:	ec 0e       	add	r14, r28
    21f6:	6e 2d       	mov	r22, r14
    21f8:	87 2d       	mov	r24, r7
    21fa:	0e 94 5d 0c 	call	0x18ba	; 0x18ba <GLCD_SetPixel>
    21fe:	60 2e       	mov	r6, r16
    2200:	61 1a       	sub	r6, r17
    2202:	4d 2f       	mov	r20, r29
    2204:	6e 2d       	mov	r22, r14
    2206:	86 2d       	mov	r24, r6
    2208:	0e 94 5d 0c 	call	0x18ba	; 0x18ba <GLCD_SetPixel>
    220c:	4d 2f       	mov	r20, r29
    220e:	ef 2c       	mov	r14, r15
    2210:	ec 1a       	sub	r14, r28
    2212:	6e 2d       	mov	r22, r14
    2214:	86 2d       	mov	r24, r6
    2216:	0e 94 5d 0c 	call	0x18ba	; 0x18ba <GLCD_SetPixel>
    221a:	4d 2f       	mov	r20, r29
    221c:	6e 2d       	mov	r22, r14
    221e:	87 2d       	mov	r24, r7
    2220:	0e 94 5d 0c 	call	0x18ba	; 0x18ba <GLCD_SetPixel>
    2224:	1f 5f       	subi	r17, 0xFF	; 255
    2226:	a8 0c       	add	r10, r8
    2228:	b9 1c       	adc	r11, r9
    222a:	22 e0       	ldi	r18, 0x02	; 2
    222c:	82 0e       	add	r8, r18
    222e:	91 1c       	adc	r9, r1
    2230:	c5 01       	movw	r24, r10
    2232:	88 0f       	add	r24, r24
    2234:	99 1f       	adc	r25, r25
    2236:	8c 0d       	add	r24, r12
    2238:	9d 1d       	adc	r25, r13
    223a:	18 16       	cp	r1, r24
    223c:	19 06       	cpc	r1, r25
    223e:	44 f4       	brge	.+16     	; 0x2250 <GLCD_DrawCircle+0xfa>
    2240:	c1 50       	subi	r28, 0x01	; 1
    2242:	9c 01       	movw	r18, r24
    2244:	2a 19       	sub	r18, r10
    2246:	3b 09       	sbc	r19, r11
    2248:	59 01       	movw	r10, r18
    224a:	32 e0       	ldi	r19, 0x02	; 2
    224c:	c3 0e       	add	r12, r19
    224e:	d1 1c       	adc	r13, r1
    2250:	c1 17       	cp	r28, r17
    2252:	08 f0       	brcs	.+2      	; 0x2256 <GLCD_DrawCircle+0x100>
    2254:	af cf       	rjmp	.-162    	; 0x21b4 <GLCD_DrawCircle+0x5e>
    2256:	df 91       	pop	r29
    2258:	cf 91       	pop	r28
    225a:	1f 91       	pop	r17
    225c:	0f 91       	pop	r16
    225e:	ff 90       	pop	r15
    2260:	ef 90       	pop	r14
    2262:	df 90       	pop	r13
    2264:	cf 90       	pop	r12
    2266:	bf 90       	pop	r11
    2268:	af 90       	pop	r10
    226a:	9f 90       	pop	r9
    226c:	8f 90       	pop	r8
    226e:	7f 90       	pop	r7
    2270:	6f 90       	pop	r6
    2272:	08 95       	ret

00002274 <GLCD_FillScreen>:
    2274:	90 e0       	ldi	r25, 0x00	; 0
    2276:	e9 2f       	mov	r30, r25
    2278:	e6 95       	lsr	r30
    227a:	e6 95       	lsr	r30
    227c:	e6 95       	lsr	r30
    227e:	f0 e0       	ldi	r31, 0x00	; 0
    2280:	e7 59       	subi	r30, 0x97	; 151
    2282:	ff 4f       	sbci	r31, 0xFF	; 255
    2284:	20 e0       	ldi	r18, 0x00	; 0
    2286:	80 83       	st	Z, r24
    2288:	2f 5f       	subi	r18, 0xFF	; 255
    228a:	38 96       	adiw	r30, 0x08	; 8
    228c:	20 38       	cpi	r18, 0x80	; 128
    228e:	d9 f7       	brne	.-10     	; 0x2286 <GLCD_FillScreen+0x12>
    2290:	98 5f       	subi	r25, 0xF8	; 248
    2292:	90 34       	cpi	r25, 0x40	; 64
    2294:	81 f7       	brne	.-32     	; 0x2276 <GLCD_FillScreen+0x2>
    2296:	08 95       	ret

00002298 <GLCD_Clear>:
    2298:	81 e0       	ldi	r24, 0x01	; 1
    229a:	90 91 62 00 	lds	r25, 0x0062	; 0x800062 <__DATA_REGION_ORIGIN__+0x2>
    229e:	91 30       	cpi	r25, 0x01	; 1
    22a0:	09 f4       	brne	.+2      	; 0x22a4 <GLCD_Clear+0xc>
    22a2:	80 e0       	ldi	r24, 0x00	; 0
    22a4:	81 95       	neg	r24
    22a6:	0c 94 3a 11 	jmp	0x2274	; 0x2274 <GLCD_FillScreen>

000022aa <GLCD_FillRectangle>:
    22aa:	0f 93       	push	r16
    22ac:	0e 94 b4 0c 	call	0x1968	; 0x1968 <GLCD_SetPixels>
    22b0:	0f 91       	pop	r16
    22b2:	08 95       	ret

000022b4 <GLCD_FillRoundRectangle>:
    22b4:	6f 92       	push	r6
    22b6:	7f 92       	push	r7
    22b8:	8f 92       	push	r8
    22ba:	9f 92       	push	r9
    22bc:	af 92       	push	r10
    22be:	bf 92       	push	r11
    22c0:	cf 92       	push	r12
    22c2:	df 92       	push	r13
    22c4:	ef 92       	push	r14
    22c6:	ff 92       	push	r15
    22c8:	0f 93       	push	r16
    22ca:	1f 93       	push	r17
    22cc:	cf 93       	push	r28
    22ce:	df 93       	push	r29
    22d0:	87 fd       	sbrc	r24, 7
    22d2:	5e c0       	rjmp	.+188    	; 0x2390 <GLCD_FillRoundRectangle+0xdc>
    22d4:	47 fd       	sbrc	r20, 7
    22d6:	5c c0       	rjmp	.+184    	; 0x2390 <GLCD_FillRoundRectangle+0xdc>
    22d8:	60 34       	cpi	r22, 0x40	; 64
    22da:	08 f0       	brcs	.+2      	; 0x22de <GLCD_FillRoundRectangle+0x2a>
    22dc:	59 c0       	rjmp	.+178    	; 0x2390 <GLCD_FillRoundRectangle+0xdc>
    22de:	20 34       	cpi	r18, 0x40	; 64
    22e0:	08 f0       	brcs	.+2      	; 0x22e4 <GLCD_FillRoundRectangle+0x30>
    22e2:	56 c0       	rjmp	.+172    	; 0x2390 <GLCD_FillRoundRectangle+0xdc>
    22e4:	c0 2f       	mov	r28, r16
    22e6:	b2 2e       	mov	r11, r18
    22e8:	a6 2e       	mov	r10, r22
    22ea:	23 e0       	ldi	r18, 0x03	; 3
    22ec:	30 e0       	ldi	r19, 0x00	; 0
    22ee:	69 01       	movw	r12, r18
    22f0:	92 e0       	ldi	r25, 0x02	; 2
    22f2:	09 9f       	mul	r16, r25
    22f4:	c0 18       	sub	r12, r0
    22f6:	d1 08       	sbc	r13, r1
    22f8:	11 24       	eor	r1, r1
    22fa:	14 2f       	mov	r17, r20
    22fc:	10 1b       	sub	r17, r16
    22fe:	f8 2e       	mov	r15, r24
    2300:	f0 0e       	add	r15, r16
    2302:	0e 2d       	mov	r16, r14
    2304:	2b 2d       	mov	r18, r11
    2306:	41 2f       	mov	r20, r17
    2308:	8f 2d       	mov	r24, r15
    230a:	0e 94 b4 0c 	call	0x1968	; 0x1968 <GLCD_SetPixels>
    230e:	d0 e0       	ldi	r29, 0x00	; 0
    2310:	bc 1a       	sub	r11, r28
    2312:	ac 0e       	add	r10, r28
    2314:	0e 2d       	mov	r16, r14
    2316:	6b 2c       	mov	r6, r11
    2318:	6c 0e       	add	r6, r28
    231a:	26 2d       	mov	r18, r6
    231c:	8f 2d       	mov	r24, r15
    231e:	8d 1b       	sub	r24, r29
    2320:	48 2f       	mov	r20, r24
    2322:	7a 2c       	mov	r7, r10
    2324:	7c 1a       	sub	r7, r28
    2326:	67 2d       	mov	r22, r7
    2328:	0e 94 ed 0e 	call	0x1dda	; 0x1dda <GLCD_DrawLine>
    232c:	8b 2c       	mov	r8, r11
    232e:	8d 0e       	add	r8, r29
    2330:	28 2d       	mov	r18, r8
    2332:	8f 2d       	mov	r24, r15
    2334:	8c 1b       	sub	r24, r28
    2336:	48 2f       	mov	r20, r24
    2338:	9a 2c       	mov	r9, r10
    233a:	9d 1a       	sub	r9, r29
    233c:	69 2d       	mov	r22, r9
    233e:	0e 94 ed 0e 	call	0x1dda	; 0x1dda <GLCD_DrawLine>
    2342:	26 2d       	mov	r18, r6
    2344:	81 2f       	mov	r24, r17
    2346:	8d 0f       	add	r24, r29
    2348:	48 2f       	mov	r20, r24
    234a:	67 2d       	mov	r22, r7
    234c:	0e 94 ed 0e 	call	0x1dda	; 0x1dda <GLCD_DrawLine>
    2350:	28 2d       	mov	r18, r8
    2352:	81 2f       	mov	r24, r17
    2354:	8c 0f       	add	r24, r28
    2356:	48 2f       	mov	r20, r24
    2358:	69 2d       	mov	r22, r9
    235a:	0e 94 ed 0e 	call	0x1dda	; 0x1dda <GLCD_DrawLine>
    235e:	ed 2f       	mov	r30, r29
    2360:	f0 e0       	ldi	r31, 0x00	; 0
    2362:	d7 fe       	sbrs	r13, 7
    2364:	08 c0       	rjmp	.+16     	; 0x2376 <GLCD_FillRoundRectangle+0xc2>
    2366:	ee 0f       	add	r30, r30
    2368:	ff 1f       	adc	r31, r31
    236a:	ee 0f       	add	r30, r30
    236c:	ff 1f       	adc	r31, r31
    236e:	36 96       	adiw	r30, 0x06	; 6
    2370:	ce 0e       	add	r12, r30
    2372:	df 1e       	adc	r13, r31
    2374:	0a c0       	rjmp	.+20     	; 0x238a <GLCD_FillRoundRectangle+0xd6>
    2376:	ec 1b       	sub	r30, r28
    2378:	f1 09       	sbc	r31, r1
    237a:	ee 0f       	add	r30, r30
    237c:	ff 1f       	adc	r31, r31
    237e:	ee 0f       	add	r30, r30
    2380:	ff 1f       	adc	r31, r31
    2382:	3a 96       	adiw	r30, 0x0a	; 10
    2384:	ce 0e       	add	r12, r30
    2386:	df 1e       	adc	r13, r31
    2388:	c1 50       	subi	r28, 0x01	; 1
    238a:	df 5f       	subi	r29, 0xFF	; 255
    238c:	cd 17       	cp	r28, r29
    238e:	10 f6       	brcc	.-124    	; 0x2314 <GLCD_FillRoundRectangle+0x60>
    2390:	df 91       	pop	r29
    2392:	cf 91       	pop	r28
    2394:	1f 91       	pop	r17
    2396:	0f 91       	pop	r16
    2398:	ff 90       	pop	r15
    239a:	ef 90       	pop	r14
    239c:	df 90       	pop	r13
    239e:	cf 90       	pop	r12
    23a0:	bf 90       	pop	r11
    23a2:	af 90       	pop	r10
    23a4:	9f 90       	pop	r9
    23a6:	8f 90       	pop	r8
    23a8:	7f 90       	pop	r7
    23aa:	6f 90       	pop	r6
    23ac:	08 95       	ret

000023ae <GLCD_FillTriangle>:
    23ae:	2f 92       	push	r2
    23b0:	3f 92       	push	r3
    23b2:	4f 92       	push	r4
    23b4:	5f 92       	push	r5
    23b6:	6f 92       	push	r6
    23b8:	7f 92       	push	r7
    23ba:	8f 92       	push	r8
    23bc:	9f 92       	push	r9
    23be:	af 92       	push	r10
    23c0:	bf 92       	push	r11
    23c2:	cf 92       	push	r12
    23c4:	df 92       	push	r13
    23c6:	ef 92       	push	r14
    23c8:	ff 92       	push	r15
    23ca:	0f 93       	push	r16
    23cc:	1f 93       	push	r17
    23ce:	cf 93       	push	r28
    23d0:	df 93       	push	r29
    23d2:	cd b7       	in	r28, 0x3d	; 61
    23d4:	de b7       	in	r29, 0x3e	; 62
    23d6:	66 97       	sbiw	r28, 0x16	; 22
    23d8:	0f b6       	in	r0, 0x3f	; 63
    23da:	f8 94       	cli
    23dc:	de bf       	out	0x3e, r29	; 62
    23de:	0f be       	out	0x3f, r0	; 63
    23e0:	cd bf       	out	0x3d, r28	; 61
    23e2:	6e 8b       	std	Y+22, r22	; 0x16
    23e4:	2d 8b       	std	Y+21, r18	; 0x15
    23e6:	e9 82       	std	Y+1, r14	; 0x01
    23e8:	cc 86       	std	Y+12, r12	; 0x0c
    23ea:	87 fd       	sbrc	r24, 7
    23ec:	40 c1       	rjmp	.+640    	; 0x266e <GLCD_FillTriangle+0x2c0>
    23ee:	47 fd       	sbrc	r20, 7
    23f0:	3e c1       	rjmp	.+636    	; 0x266e <GLCD_FillTriangle+0x2c0>
    23f2:	07 fd       	sbrc	r16, 7
    23f4:	3c c1       	rjmp	.+632    	; 0x266e <GLCD_FillTriangle+0x2c0>
    23f6:	60 34       	cpi	r22, 0x40	; 64
    23f8:	08 f0       	brcs	.+2      	; 0x23fc <GLCD_FillTriangle+0x4e>
    23fa:	39 c1       	rjmp	.+626    	; 0x266e <GLCD_FillTriangle+0x2c0>
    23fc:	20 34       	cpi	r18, 0x40	; 64
    23fe:	08 f0       	brcs	.+2      	; 0x2402 <GLCD_FillTriangle+0x54>
    2400:	36 c1       	rjmp	.+620    	; 0x266e <GLCD_FillTriangle+0x2c0>
    2402:	2e 2d       	mov	r18, r14
    2404:	20 34       	cpi	r18, 0x40	; 64
    2406:	08 f0       	brcs	.+2      	; 0x240a <GLCD_FillTriangle+0x5c>
    2408:	32 c1       	rjmp	.+612    	; 0x266e <GLCD_FillTriangle+0x2c0>
    240a:	9d 89       	ldd	r25, Y+21	; 0x15
    240c:	e9 16       	cp	r14, r25
    240e:	28 f4       	brcc	.+10     	; 0x241a <GLCD_FillTriangle+0x6c>
    2410:	ed 8a       	std	Y+21, r14	; 0x15
    2412:	99 83       	std	Y+1, r25	; 0x01
    2414:	94 2f       	mov	r25, r20
    2416:	40 2f       	mov	r20, r16
    2418:	09 2f       	mov	r16, r25
    241a:	ad 89       	ldd	r26, Y+21	; 0x15
    241c:	be 89       	ldd	r27, Y+22	; 0x16
    241e:	ab 17       	cp	r26, r27
    2420:	28 f4       	brcc	.+10     	; 0x242c <GLCD_FillTriangle+0x7e>
    2422:	ae 8b       	std	Y+22, r26	; 0x16
    2424:	bd 8b       	std	Y+21, r27	; 0x15
    2426:	98 2f       	mov	r25, r24
    2428:	84 2f       	mov	r24, r20
    242a:	49 2f       	mov	r20, r25
    242c:	68 2e       	mov	r6, r24
    242e:	71 2c       	mov	r7, r1
    2430:	e4 2e       	mov	r14, r20
    2432:	f1 2c       	mov	r15, r1
    2434:	2e 89       	ldd	r18, Y+22	; 0x16
    2436:	22 2e       	mov	r2, r18
    2438:	31 2c       	mov	r3, r1
    243a:	8d 89       	ldd	r24, Y+21	; 0x15
    243c:	c8 2e       	mov	r12, r24
    243e:	d1 2c       	mov	r13, r1
    2440:	b3 01       	movw	r22, r6
    2442:	6e 19       	sub	r22, r14
    2444:	7f 09       	sbc	r23, r15
    2446:	07 2e       	mov	r0, r23
    2448:	00 0c       	add	r0, r0
    244a:	88 0b       	sbc	r24, r24
    244c:	99 0b       	sbc	r25, r25
    244e:	0e 94 c8 19 	call	0x3390	; 0x3390 <__floatsisf>
    2452:	4b 01       	movw	r8, r22
    2454:	5c 01       	movw	r10, r24
    2456:	b1 01       	movw	r22, r2
    2458:	6c 19       	sub	r22, r12
    245a:	7d 09       	sbc	r23, r13
    245c:	07 2e       	mov	r0, r23
    245e:	00 0c       	add	r0, r0
    2460:	88 0b       	sbc	r24, r24
    2462:	99 0b       	sbc	r25, r25
    2464:	0e 94 c8 19 	call	0x3390	; 0x3390 <__floatsisf>
    2468:	9b 01       	movw	r18, r22
    246a:	ac 01       	movw	r20, r24
    246c:	c5 01       	movw	r24, r10
    246e:	b4 01       	movw	r22, r8
    2470:	0e 94 1e 19 	call	0x323c	; 0x323c <__divsf3>
    2474:	6c 83       	std	Y+4, r22	; 0x04
    2476:	7d 83       	std	Y+5, r23	; 0x05
    2478:	8e 83       	std	Y+6, r24	; 0x06
    247a:	9f 83       	std	Y+7, r25	; 0x07
    247c:	40 2e       	mov	r4, r16
    247e:	51 2c       	mov	r5, r1
    2480:	b9 81       	ldd	r27, Y+1	; 0x01
    2482:	ab 2f       	mov	r26, r27
    2484:	b0 e0       	ldi	r27, 0x00	; 0
    2486:	bb 83       	std	Y+3, r27	; 0x03
    2488:	aa 83       	std	Y+2, r26	; 0x02
    248a:	b7 01       	movw	r22, r14
    248c:	64 19       	sub	r22, r4
    248e:	75 09       	sbc	r23, r5
    2490:	07 2e       	mov	r0, r23
    2492:	00 0c       	add	r0, r0
    2494:	88 0b       	sbc	r24, r24
    2496:	99 0b       	sbc	r25, r25
    2498:	0e 94 c8 19 	call	0x3390	; 0x3390 <__floatsisf>
    249c:	4b 01       	movw	r8, r22
    249e:	5c 01       	movw	r10, r24
    24a0:	b6 01       	movw	r22, r12
    24a2:	8a 81       	ldd	r24, Y+2	; 0x02
    24a4:	9b 81       	ldd	r25, Y+3	; 0x03
    24a6:	68 1b       	sub	r22, r24
    24a8:	79 0b       	sbc	r23, r25
    24aa:	07 2e       	mov	r0, r23
    24ac:	00 0c       	add	r0, r0
    24ae:	88 0b       	sbc	r24, r24
    24b0:	99 0b       	sbc	r25, r25
    24b2:	0e 94 c8 19 	call	0x3390	; 0x3390 <__floatsisf>
    24b6:	9b 01       	movw	r18, r22
    24b8:	ac 01       	movw	r20, r24
    24ba:	c5 01       	movw	r24, r10
    24bc:	b4 01       	movw	r22, r8
    24be:	0e 94 1e 19 	call	0x323c	; 0x323c <__divsf3>
    24c2:	6d 87       	std	Y+13, r22	; 0x0d
    24c4:	7e 87       	std	Y+14, r23	; 0x0e
    24c6:	8f 87       	std	Y+15, r24	; 0x0f
    24c8:	98 8b       	std	Y+16, r25	; 0x10
    24ca:	b2 01       	movw	r22, r4
    24cc:	66 19       	sub	r22, r6
    24ce:	77 09       	sbc	r23, r7
    24d0:	07 2e       	mov	r0, r23
    24d2:	00 0c       	add	r0, r0
    24d4:	88 0b       	sbc	r24, r24
    24d6:	99 0b       	sbc	r25, r25
    24d8:	0e 94 c8 19 	call	0x3390	; 0x3390 <__floatsisf>
    24dc:	6b 01       	movw	r12, r22
    24de:	7c 01       	movw	r14, r24
    24e0:	6a 81       	ldd	r22, Y+2	; 0x02
    24e2:	7b 81       	ldd	r23, Y+3	; 0x03
    24e4:	62 19       	sub	r22, r2
    24e6:	73 09       	sbc	r23, r3
    24e8:	07 2e       	mov	r0, r23
    24ea:	00 0c       	add	r0, r0
    24ec:	88 0b       	sbc	r24, r24
    24ee:	99 0b       	sbc	r25, r25
    24f0:	0e 94 c8 19 	call	0x3390	; 0x3390 <__floatsisf>
    24f4:	9b 01       	movw	r18, r22
    24f6:	ac 01       	movw	r20, r24
    24f8:	c7 01       	movw	r24, r14
    24fa:	b6 01       	movw	r22, r12
    24fc:	0e 94 1e 19 	call	0x323c	; 0x323c <__divsf3>
    2500:	68 87       	std	Y+8, r22	; 0x08
    2502:	79 87       	std	Y+9, r23	; 0x09
    2504:	8a 87       	std	Y+10, r24	; 0x0a
    2506:	9b 87       	std	Y+11, r25	; 0x0b
    2508:	c3 01       	movw	r24, r6
    250a:	07 2c       	mov	r0, r7
    250c:	00 0c       	add	r0, r0
    250e:	aa 0b       	sbc	r26, r26
    2510:	bb 0b       	sbc	r27, r27
    2512:	89 8b       	std	Y+17, r24	; 0x11
    2514:	9a 8b       	std	Y+18, r25	; 0x12
    2516:	ab 8b       	std	Y+19, r26	; 0x13
    2518:	bc 8b       	std	Y+20, r27	; 0x14
    251a:	bd 89       	ldd	r27, Y+21	; 0x15
    251c:	2e 89       	ldd	r18, Y+22	; 0x16
    251e:	b2 17       	cp	r27, r18
    2520:	08 f4       	brcc	.+2      	; 0x2524 <GLCD_FillTriangle+0x176>
    2522:	42 c0       	rjmp	.+132    	; 0x25a8 <GLCD_FillTriangle+0x1fa>
    2524:	9e 89       	ldd	r25, Y+22	; 0x16
    2526:	69 2f       	mov	r22, r25
    2528:	70 e0       	ldi	r23, 0x00	; 0
    252a:	62 19       	sub	r22, r2
    252c:	73 09       	sbc	r23, r3
    252e:	07 2e       	mov	r0, r23
    2530:	00 0c       	add	r0, r0
    2532:	88 0b       	sbc	r24, r24
    2534:	99 0b       	sbc	r25, r25
    2536:	0e 94 c8 19 	call	0x3390	; 0x3390 <__floatsisf>
    253a:	4b 01       	movw	r8, r22
    253c:	5c 01       	movw	r10, r24
    253e:	69 89       	ldd	r22, Y+17	; 0x11
    2540:	7a 89       	ldd	r23, Y+18	; 0x12
    2542:	8b 89       	ldd	r24, Y+19	; 0x13
    2544:	9c 89       	ldd	r25, Y+20	; 0x14
    2546:	0e 94 c8 19 	call	0x3390	; 0x3390 <__floatsisf>
    254a:	6b 01       	movw	r12, r22
    254c:	7c 01       	movw	r14, r24
    254e:	a5 01       	movw	r20, r10
    2550:	94 01       	movw	r18, r8
    2552:	6c 81       	ldd	r22, Y+4	; 0x04
    2554:	7d 81       	ldd	r23, Y+5	; 0x05
    2556:	8e 81       	ldd	r24, Y+6	; 0x06
    2558:	9f 81       	ldd	r25, Y+7	; 0x07
    255a:	0e 94 7d 1a 	call	0x34fa	; 0x34fa <__mulsf3>
    255e:	a7 01       	movw	r20, r14
    2560:	96 01       	movw	r18, r12
    2562:	0e 94 ad 18 	call	0x315a	; 0x315a <__addsf3>
    2566:	0e 94 97 19 	call	0x332e	; 0x332e <__fixunssfsi>
    256a:	16 2f       	mov	r17, r22
    256c:	06 2f       	mov	r16, r22
    256e:	a5 01       	movw	r20, r10
    2570:	94 01       	movw	r18, r8
    2572:	68 85       	ldd	r22, Y+8	; 0x08
    2574:	79 85       	ldd	r23, Y+9	; 0x09
    2576:	8a 85       	ldd	r24, Y+10	; 0x0a
    2578:	9b 85       	ldd	r25, Y+11	; 0x0b
    257a:	0e 94 7d 1a 	call	0x34fa	; 0x34fa <__mulsf3>
    257e:	a7 01       	movw	r20, r14
    2580:	96 01       	movw	r18, r12
    2582:	0e 94 ad 18 	call	0x315a	; 0x315a <__addsf3>
    2586:	0e 94 97 19 	call	0x332e	; 0x332e <__fixunssfsi>
    258a:	46 2f       	mov	r20, r22
    258c:	61 17       	cp	r22, r17
    258e:	10 f4       	brcc	.+4      	; 0x2594 <GLCD_FillTriangle+0x1e6>
    2590:	16 2f       	mov	r17, r22
    2592:	40 2f       	mov	r20, r16
    2594:	0c 85       	ldd	r16, Y+12	; 0x0c
    2596:	2e 89       	ldd	r18, Y+22	; 0x16
    2598:	62 2f       	mov	r22, r18
    259a:	81 2f       	mov	r24, r17
    259c:	0e 94 ed 0e 	call	0x1dda	; 0x1dda <GLCD_DrawLine>
    25a0:	ae 89       	ldd	r26, Y+22	; 0x16
    25a2:	af 5f       	subi	r26, 0xFF	; 255
    25a4:	ae 8b       	std	Y+22, r26	; 0x16
    25a6:	b9 cf       	rjmp	.-142    	; 0x251a <GLCD_FillTriangle+0x16c>
    25a8:	c2 01       	movw	r24, r4
    25aa:	55 0c       	add	r5, r5
    25ac:	aa 0b       	sbc	r26, r26
    25ae:	bb 0b       	sbc	r27, r27
    25b0:	8c 83       	std	Y+4, r24	; 0x04
    25b2:	9d 83       	std	Y+5, r25	; 0x05
    25b4:	ae 83       	std	Y+6, r26	; 0x06
    25b6:	bf 83       	std	Y+7, r27	; 0x07
    25b8:	23 01       	movw	r4, r6
    25ba:	77 0c       	add	r7, r7
    25bc:	66 08       	sbc	r6, r6
    25be:	77 08       	sbc	r7, r7
    25c0:	29 81       	ldd	r18, Y+1	; 0x01
    25c2:	8d 89       	ldd	r24, Y+21	; 0x15
    25c4:	28 17       	cp	r18, r24
    25c6:	08 f4       	brcc	.+2      	; 0x25ca <GLCD_FillTriangle+0x21c>
    25c8:	52 c0       	rjmp	.+164    	; 0x266e <GLCD_FillTriangle+0x2c0>
    25ca:	9d 89       	ldd	r25, Y+21	; 0x15
    25cc:	e9 2e       	mov	r14, r25
    25ce:	f1 2c       	mov	r15, r1
    25d0:	b7 01       	movw	r22, r14
    25d2:	aa 81       	ldd	r26, Y+2	; 0x02
    25d4:	bb 81       	ldd	r27, Y+3	; 0x03
    25d6:	6a 1b       	sub	r22, r26
    25d8:	7b 0b       	sbc	r23, r27
    25da:	07 2e       	mov	r0, r23
    25dc:	00 0c       	add	r0, r0
    25de:	88 0b       	sbc	r24, r24
    25e0:	99 0b       	sbc	r25, r25
    25e2:	0e 94 c8 19 	call	0x3390	; 0x3390 <__floatsisf>
    25e6:	2d 85       	ldd	r18, Y+13	; 0x0d
    25e8:	3e 85       	ldd	r19, Y+14	; 0x0e
    25ea:	4f 85       	ldd	r20, Y+15	; 0x0f
    25ec:	58 89       	ldd	r21, Y+16	; 0x10
    25ee:	0e 94 7d 1a 	call	0x34fa	; 0x34fa <__mulsf3>
    25f2:	4b 01       	movw	r8, r22
    25f4:	5c 01       	movw	r10, r24
    25f6:	6c 81       	ldd	r22, Y+4	; 0x04
    25f8:	7d 81       	ldd	r23, Y+5	; 0x05
    25fa:	8e 81       	ldd	r24, Y+6	; 0x06
    25fc:	9f 81       	ldd	r25, Y+7	; 0x07
    25fe:	0e 94 c8 19 	call	0x3390	; 0x3390 <__floatsisf>
    2602:	9b 01       	movw	r18, r22
    2604:	ac 01       	movw	r20, r24
    2606:	c5 01       	movw	r24, r10
    2608:	b4 01       	movw	r22, r8
    260a:	0e 94 ad 18 	call	0x315a	; 0x315a <__addsf3>
    260e:	0e 94 97 19 	call	0x332e	; 0x332e <__fixunssfsi>
    2612:	69 8b       	std	Y+17, r22	; 0x11
    2614:	16 2f       	mov	r17, r22
    2616:	b7 01       	movw	r22, r14
    2618:	62 19       	sub	r22, r2
    261a:	73 09       	sbc	r23, r3
    261c:	07 2e       	mov	r0, r23
    261e:	00 0c       	add	r0, r0
    2620:	88 0b       	sbc	r24, r24
    2622:	99 0b       	sbc	r25, r25
    2624:	0e 94 c8 19 	call	0x3390	; 0x3390 <__floatsisf>
    2628:	28 85       	ldd	r18, Y+8	; 0x08
    262a:	39 85       	ldd	r19, Y+9	; 0x09
    262c:	4a 85       	ldd	r20, Y+10	; 0x0a
    262e:	5b 85       	ldd	r21, Y+11	; 0x0b
    2630:	0e 94 7d 1a 	call	0x34fa	; 0x34fa <__mulsf3>
    2634:	6b 01       	movw	r12, r22
    2636:	7c 01       	movw	r14, r24
    2638:	c3 01       	movw	r24, r6
    263a:	b2 01       	movw	r22, r4
    263c:	0e 94 c8 19 	call	0x3390	; 0x3390 <__floatsisf>
    2640:	9b 01       	movw	r18, r22
    2642:	ac 01       	movw	r20, r24
    2644:	c7 01       	movw	r24, r14
    2646:	b6 01       	movw	r22, r12
    2648:	0e 94 ad 18 	call	0x315a	; 0x315a <__addsf3>
    264c:	0e 94 97 19 	call	0x332e	; 0x332e <__fixunssfsi>
    2650:	46 2f       	mov	r20, r22
    2652:	61 17       	cp	r22, r17
    2654:	10 f4       	brcc	.+4      	; 0x265a <GLCD_FillTriangle+0x2ac>
    2656:	69 8b       	std	Y+17, r22	; 0x11
    2658:	41 2f       	mov	r20, r17
    265a:	0c 85       	ldd	r16, Y+12	; 0x0c
    265c:	2d 89       	ldd	r18, Y+21	; 0x15
    265e:	62 2f       	mov	r22, r18
    2660:	89 89       	ldd	r24, Y+17	; 0x11
    2662:	0e 94 ed 0e 	call	0x1dda	; 0x1dda <GLCD_DrawLine>
    2666:	bd 89       	ldd	r27, Y+21	; 0x15
    2668:	bf 5f       	subi	r27, 0xFF	; 255
    266a:	bd 8b       	std	Y+21, r27	; 0x15
    266c:	a9 cf       	rjmp	.-174    	; 0x25c0 <GLCD_FillTriangle+0x212>
    266e:	66 96       	adiw	r28, 0x16	; 22
    2670:	0f b6       	in	r0, 0x3f	; 63
    2672:	f8 94       	cli
    2674:	de bf       	out	0x3e, r29	; 62
    2676:	0f be       	out	0x3f, r0	; 63
    2678:	cd bf       	out	0x3d, r28	; 61
    267a:	df 91       	pop	r29
    267c:	cf 91       	pop	r28
    267e:	1f 91       	pop	r17
    2680:	0f 91       	pop	r16
    2682:	ff 90       	pop	r15
    2684:	ef 90       	pop	r14
    2686:	df 90       	pop	r13
    2688:	cf 90       	pop	r12
    268a:	bf 90       	pop	r11
    268c:	af 90       	pop	r10
    268e:	9f 90       	pop	r9
    2690:	8f 90       	pop	r8
    2692:	7f 90       	pop	r7
    2694:	6f 90       	pop	r6
    2696:	5f 90       	pop	r5
    2698:	4f 90       	pop	r4
    269a:	3f 90       	pop	r3
    269c:	2f 90       	pop	r2
    269e:	08 95       	ret

000026a0 <GLCD_FillCircle>:
    26a0:	bf 92       	push	r11
    26a2:	cf 92       	push	r12
    26a4:	df 92       	push	r13
    26a6:	ef 92       	push	r14
    26a8:	ff 92       	push	r15
    26aa:	0f 93       	push	r16
    26ac:	1f 93       	push	r17
    26ae:	cf 93       	push	r28
    26b0:	df 93       	push	r29
    26b2:	c4 2f       	mov	r28, r20
    26b4:	50 e0       	ldi	r21, 0x00	; 0
    26b6:	fa 01       	movw	r30, r20
    26b8:	e8 0f       	add	r30, r24
    26ba:	f1 1d       	adc	r31, r1
    26bc:	e0 38       	cpi	r30, 0x80	; 128
    26be:	f1 05       	cpc	r31, r1
    26c0:	0c f0       	brlt	.+2      	; 0x26c4 <GLCD_FillCircle+0x24>
    26c2:	4a c0       	rjmp	.+148    	; 0x2758 <GLCD_FillCircle+0xb8>
    26c4:	46 0f       	add	r20, r22
    26c6:	51 1d       	adc	r21, r1
    26c8:	40 34       	cpi	r20, 0x40	; 64
    26ca:	51 05       	cpc	r21, r1
    26cc:	0c f0       	brlt	.+2      	; 0x26d0 <GLCD_FillCircle+0x30>
    26ce:	44 c0       	rjmp	.+136    	; 0x2758 <GLCD_FillCircle+0xb8>
    26d0:	c2 2e       	mov	r12, r18
    26d2:	b6 2e       	mov	r11, r22
    26d4:	d8 2f       	mov	r29, r24
    26d6:	81 e0       	ldi	r24, 0x01	; 1
    26d8:	f8 2e       	mov	r15, r24
    26da:	fc 1a       	sub	r15, r28
    26dc:	ec 2e       	mov	r14, r28
    26de:	e1 94       	neg	r14
    26e0:	ee 0c       	add	r14, r14
    26e2:	2c 2f       	mov	r18, r28
    26e4:	26 0f       	add	r18, r22
    26e6:	6c 1b       	sub	r22, r28
    26e8:	0c 2d       	mov	r16, r12
    26ea:	4d 2f       	mov	r20, r29
    26ec:	8d 2f       	mov	r24, r29
    26ee:	0e 94 ed 0e 	call	0x1dda	; 0x1dda <GLCD_DrawLine>
    26f2:	10 e0       	ldi	r17, 0x00	; 0
    26f4:	1c 17       	cp	r17, r28
    26f6:	80 f5       	brcc	.+96     	; 0x2758 <GLCD_FillCircle+0xb8>
    26f8:	f7 fc       	sbrc	r15, 7
    26fa:	04 c0       	rjmp	.+8      	; 0x2704 <GLCD_FillCircle+0x64>
    26fc:	c1 50       	subi	r28, 0x01	; 1
    26fe:	e3 94       	inc	r14
    2700:	e3 94       	inc	r14
    2702:	fe 0c       	add	r15, r14
    2704:	1f 5f       	subi	r17, 0xFF	; 255
    2706:	81 2f       	mov	r24, r17
    2708:	88 0f       	add	r24, r24
    270a:	8f 5f       	subi	r24, 0xFF	; 255
    270c:	f8 0e       	add	r15, r24
    270e:	4d 2f       	mov	r20, r29
    2710:	41 0f       	add	r20, r17
    2712:	2c 2d       	mov	r18, r12
    2714:	db 2c       	mov	r13, r11
    2716:	dc 1a       	sub	r13, r28
    2718:	6d 2d       	mov	r22, r13
    271a:	0c 2f       	mov	r16, r28
    271c:	0b 0d       	add	r16, r11
    271e:	80 2f       	mov	r24, r16
    2720:	0e 94 8d 0d 	call	0x1b1a	; 0x1b1a <GLCD_DrawVLine>
    2724:	4d 2f       	mov	r20, r29
    2726:	41 1b       	sub	r20, r17
    2728:	2c 2d       	mov	r18, r12
    272a:	6d 2d       	mov	r22, r13
    272c:	80 2f       	mov	r24, r16
    272e:	0e 94 8d 0d 	call	0x1b1a	; 0x1b1a <GLCD_DrawVLine>
    2732:	db 2c       	mov	r13, r11
    2734:	d1 1a       	sub	r13, r17
    2736:	0b 2d       	mov	r16, r11
    2738:	01 0f       	add	r16, r17
    273a:	2c 2d       	mov	r18, r12
    273c:	4c 2f       	mov	r20, r28
    273e:	4d 0f       	add	r20, r29
    2740:	6d 2d       	mov	r22, r13
    2742:	80 2f       	mov	r24, r16
    2744:	0e 94 8d 0d 	call	0x1b1a	; 0x1b1a <GLCD_DrawVLine>
    2748:	2c 2d       	mov	r18, r12
    274a:	4d 2f       	mov	r20, r29
    274c:	4c 1b       	sub	r20, r28
    274e:	6d 2d       	mov	r22, r13
    2750:	80 2f       	mov	r24, r16
    2752:	0e 94 8d 0d 	call	0x1b1a	; 0x1b1a <GLCD_DrawVLine>
    2756:	ce cf       	rjmp	.-100    	; 0x26f4 <GLCD_FillCircle+0x54>
    2758:	df 91       	pop	r29
    275a:	cf 91       	pop	r28
    275c:	1f 91       	pop	r17
    275e:	0f 91       	pop	r16
    2760:	ff 90       	pop	r15
    2762:	ef 90       	pop	r14
    2764:	df 90       	pop	r13
    2766:	cf 90       	pop	r12
    2768:	bf 90       	pop	r11
    276a:	08 95       	ret

0000276c <GLCD_InvertRect>:
    276c:	bf 92       	push	r11
    276e:	cf 92       	push	r12
    2770:	df 92       	push	r13
    2772:	ef 92       	push	r14
    2774:	ff 92       	push	r15
    2776:	0f 93       	push	r16
    2778:	1f 93       	push	r17
    277a:	cf 93       	push	r28
    277c:	df 93       	push	r29
    277e:	e8 2e       	mov	r14, r24
    2780:	d4 2f       	mov	r29, r20
    2782:	d8 1b       	sub	r29, r24
    2784:	ff 24       	eor	r15, r15
    2786:	f3 94       	inc	r15
    2788:	fd 0e       	add	r15, r29
    278a:	d2 2e       	mov	r13, r18
    278c:	d6 1a       	sub	r13, r22
    278e:	d3 94       	inc	r13
    2790:	86 2f       	mov	r24, r22
    2792:	87 70       	andi	r24, 0x07	; 7
    2794:	c6 2f       	mov	r28, r22
    2796:	c8 1b       	sub	r28, r24
    2798:	0d 2d       	mov	r16, r13
    279a:	10 e0       	ldi	r17, 0x00	; 0
    279c:	28 e0       	ldi	r18, 0x08	; 8
    279e:	30 e0       	ldi	r19, 0x00	; 0
    27a0:	a9 01       	movw	r20, r18
    27a2:	48 1b       	sub	r20, r24
    27a4:	51 09       	sbc	r21, r1
    27a6:	04 17       	cp	r16, r20
    27a8:	15 07       	cpc	r17, r21
    27aa:	5c f4       	brge	.+22     	; 0x27c2 <GLCD_InvertRect+0x56>
    27ac:	20 1b       	sub	r18, r16
    27ae:	31 0b       	sbc	r19, r17
    27b0:	6f ef       	ldi	r22, 0xFF	; 255
    27b2:	70 e0       	ldi	r23, 0x00	; 0
    27b4:	02 c0       	rjmp	.+4      	; 0x27ba <GLCD_InvertRect+0x4e>
    27b6:	75 95       	asr	r23
    27b8:	67 95       	ror	r22
    27ba:	2a 95       	dec	r18
    27bc:	e2 f7       	brpl	.-8      	; 0x27b6 <GLCD_InvertRect+0x4a>
    27be:	bd 2c       	mov	r11, r13
    27c0:	04 c0       	rjmp	.+8      	; 0x27ca <GLCD_InvertRect+0x5e>
    27c2:	98 e0       	ldi	r25, 0x08	; 8
    27c4:	b9 2e       	mov	r11, r25
    27c6:	b8 1a       	sub	r11, r24
    27c8:	6f ef       	ldi	r22, 0xFF	; 255
    27ca:	c6 2e       	mov	r12, r22
    27cc:	01 c0       	rjmp	.+2      	; 0x27d0 <GLCD_InvertRect+0x64>
    27ce:	cc 0c       	add	r12, r12
    27d0:	8a 95       	dec	r24
    27d2:	ea f7       	brpl	.-6      	; 0x27ce <GLCD_InvertRect+0x62>
    27d4:	6c 2f       	mov	r22, r28
    27d6:	8e 2d       	mov	r24, r14
    27d8:	0e 94 e7 0b 	call	0x17ce	; 0x17ce <GLCD_GotoXY>
    27dc:	20 91 61 00 	lds	r18, 0x0061	; 0x800061 <__DATA_REGION_ORIGIN__+0x1>
    27e0:	26 95       	lsr	r18
    27e2:	26 95       	lsr	r18
    27e4:	26 95       	lsr	r18
    27e6:	30 e0       	ldi	r19, 0x00	; 0
    27e8:	90 91 60 00 	lds	r25, 0x0060	; 0x800060 <__DATA_REGION_ORIGIN__>
    27ec:	80 e0       	ldi	r24, 0x00	; 0
    27ee:	48 2f       	mov	r20, r24
    27f0:	49 0f       	add	r20, r25
    27f2:	8f 15       	cp	r24, r15
    27f4:	68 f4       	brcc	.+26     	; 0x2810 <GLCD_InvertRect+0xa4>
    27f6:	f9 01       	movw	r30, r18
    27f8:	58 e0       	ldi	r21, 0x08	; 8
    27fa:	45 9f       	mul	r20, r21
    27fc:	e0 0d       	add	r30, r0
    27fe:	f1 1d       	adc	r31, r1
    2800:	11 24       	eor	r1, r1
    2802:	e7 59       	subi	r30, 0x97	; 151
    2804:	ff 4f       	sbci	r31, 0xFF	; 255
    2806:	40 81       	ld	r20, Z
    2808:	4c 25       	eor	r20, r12
    280a:	40 83       	st	Z, r20
    280c:	8f 5f       	subi	r24, 0xFF	; 255
    280e:	ef cf       	rjmp	.-34     	; 0x27ee <GLCD_InvertRect+0x82>
    2810:	9f 5f       	subi	r25, 0xFF	; 255
    2812:	9d 0f       	add	r25, r29
    2814:	90 93 60 00 	sts	0x0060, r25	; 0x800060 <__DATA_REGION_ORIGIN__>
    2818:	bc 1a       	sub	r11, r28
    281a:	2b 2d       	mov	r18, r11
    281c:	2c 0f       	add	r18, r28
    281e:	82 2f       	mov	r24, r18
    2820:	90 e0       	ldi	r25, 0x00	; 0
    2822:	ac 01       	movw	r20, r24
    2824:	49 5f       	subi	r20, 0xF9	; 249
    2826:	5f 4f       	sbci	r21, 0xFF	; 255
    2828:	40 17       	cp	r20, r16
    282a:	51 07       	cpc	r21, r17
    282c:	24 f5       	brge	.+72     	; 0x2876 <GLCD_InvertRect+0x10a>
    282e:	c8 5f       	subi	r28, 0xF8	; 248
    2830:	6c 2f       	mov	r22, r28
    2832:	8e 2d       	mov	r24, r14
    2834:	0e 94 e7 0b 	call	0x17ce	; 0x17ce <GLCD_GotoXY>
    2838:	20 91 61 00 	lds	r18, 0x0061	; 0x800061 <__DATA_REGION_ORIGIN__+0x1>
    283c:	26 95       	lsr	r18
    283e:	26 95       	lsr	r18
    2840:	26 95       	lsr	r18
    2842:	30 e0       	ldi	r19, 0x00	; 0
    2844:	90 91 60 00 	lds	r25, 0x0060	; 0x800060 <__DATA_REGION_ORIGIN__>
    2848:	80 e0       	ldi	r24, 0x00	; 0
    284a:	48 2f       	mov	r20, r24
    284c:	49 0f       	add	r20, r25
    284e:	8f 15       	cp	r24, r15
    2850:	68 f4       	brcc	.+26     	; 0x286c <GLCD_InvertRect+0x100>
    2852:	f9 01       	movw	r30, r18
    2854:	58 e0       	ldi	r21, 0x08	; 8
    2856:	45 9f       	mul	r20, r21
    2858:	e0 0d       	add	r30, r0
    285a:	f1 1d       	adc	r31, r1
    285c:	11 24       	eor	r1, r1
    285e:	e7 59       	subi	r30, 0x97	; 151
    2860:	ff 4f       	sbci	r31, 0xFF	; 255
    2862:	40 81       	ld	r20, Z
    2864:	40 95       	com	r20
    2866:	40 83       	st	Z, r20
    2868:	8f 5f       	subi	r24, 0xFF	; 255
    286a:	ef cf       	rjmp	.-34     	; 0x284a <GLCD_InvertRect+0xde>
    286c:	9f 5f       	subi	r25, 0xFF	; 255
    286e:	9d 0f       	add	r25, r29
    2870:	90 93 60 00 	sts	0x0060, r25	; 0x800060 <__DATA_REGION_ORIGIN__>
    2874:	d2 cf       	rjmp	.-92     	; 0x281a <GLCD_InvertRect+0xae>
    2876:	2d 15       	cp	r18, r13
    2878:	68 f5       	brcc	.+90     	; 0x28d4 <GLCD_InvertRect+0x168>
    287a:	08 1b       	sub	r16, r24
    287c:	19 0b       	sbc	r17, r25
    287e:	8f ef       	ldi	r24, 0xFF	; 255
    2880:	90 e0       	ldi	r25, 0x00	; 0
    2882:	01 c0       	rjmp	.+2      	; 0x2886 <GLCD_InvertRect+0x11a>
    2884:	88 0f       	add	r24, r24
    2886:	0a 95       	dec	r16
    2888:	ea f7       	brpl	.-6      	; 0x2884 <GLCD_InvertRect+0x118>
    288a:	18 2f       	mov	r17, r24
    288c:	10 95       	com	r17
    288e:	68 e0       	ldi	r22, 0x08	; 8
    2890:	6c 0f       	add	r22, r28
    2892:	8e 2d       	mov	r24, r14
    2894:	0e 94 e7 0b 	call	0x17ce	; 0x17ce <GLCD_GotoXY>
    2898:	20 91 61 00 	lds	r18, 0x0061	; 0x800061 <__DATA_REGION_ORIGIN__+0x1>
    289c:	26 95       	lsr	r18
    289e:	26 95       	lsr	r18
    28a0:	26 95       	lsr	r18
    28a2:	30 e0       	ldi	r19, 0x00	; 0
    28a4:	80 91 60 00 	lds	r24, 0x0060	; 0x800060 <__DATA_REGION_ORIGIN__>
    28a8:	90 e0       	ldi	r25, 0x00	; 0
    28aa:	49 2f       	mov	r20, r25
    28ac:	48 0f       	add	r20, r24
    28ae:	9f 15       	cp	r25, r15
    28b0:	68 f4       	brcc	.+26     	; 0x28cc <GLCD_InvertRect+0x160>
    28b2:	f9 01       	movw	r30, r18
    28b4:	58 e0       	ldi	r21, 0x08	; 8
    28b6:	45 9f       	mul	r20, r21
    28b8:	e0 0d       	add	r30, r0
    28ba:	f1 1d       	adc	r31, r1
    28bc:	11 24       	eor	r1, r1
    28be:	e7 59       	subi	r30, 0x97	; 151
    28c0:	ff 4f       	sbci	r31, 0xFF	; 255
    28c2:	40 81       	ld	r20, Z
    28c4:	41 27       	eor	r20, r17
    28c6:	40 83       	st	Z, r20
    28c8:	9f 5f       	subi	r25, 0xFF	; 255
    28ca:	ef cf       	rjmp	.-34     	; 0x28aa <GLCD_InvertRect+0x13e>
    28cc:	8f 5f       	subi	r24, 0xFF	; 255
    28ce:	8d 0f       	add	r24, r29
    28d0:	80 93 60 00 	sts	0x0060, r24	; 0x800060 <__DATA_REGION_ORIGIN__>
    28d4:	df 91       	pop	r29
    28d6:	cf 91       	pop	r28
    28d8:	1f 91       	pop	r17
    28da:	0f 91       	pop	r16
    28dc:	ff 90       	pop	r15
    28de:	ef 90       	pop	r14
    28e0:	df 90       	pop	r13
    28e2:	cf 90       	pop	r12
    28e4:	bf 90       	pop	r11
    28e6:	08 95       	ret

000028e8 <GLCD_SetFont>:
    28e8:	67 fd       	sbrc	r22, 7
    28ea:	1b c0       	rjmp	.+54     	; 0x2922 <GLCD_SetFont+0x3a>
    28ec:	40 34       	cpi	r20, 0x40	; 64
    28ee:	c8 f4       	brcc	.+50     	; 0x2922 <GLCD_SetFont+0x3a>
    28f0:	22 30       	cpi	r18, 0x02	; 2
    28f2:	b8 f4       	brcc	.+46     	; 0x2922 <GLCD_SetFont+0x3a>
    28f4:	90 93 64 00 	sts	0x0064, r25	; 0x800064 <__DATA_REGION_ORIGIN__+0x4>
    28f8:	80 93 63 00 	sts	0x0063, r24	; 0x800063 <__DATA_REGION_ORIGIN__+0x3>
    28fc:	60 93 65 00 	sts	0x0065, r22	; 0x800065 <__DATA_REGION_ORIGIN__+0x5>
    2900:	40 93 66 00 	sts	0x0066, r20	; 0x800066 <__DATA_REGION_ORIGIN__+0x6>
    2904:	50 e0       	ldi	r21, 0x00	; 0
    2906:	ca 01       	movw	r24, r20
    2908:	01 97       	sbiw	r24, 0x01	; 1
    290a:	97 fd       	sbrc	r25, 7
    290c:	07 96       	adiw	r24, 0x07	; 7
    290e:	33 e0       	ldi	r19, 0x03	; 3
    2910:	95 95       	asr	r25
    2912:	87 95       	ror	r24
    2914:	3a 95       	dec	r19
    2916:	e1 f7       	brne	.-8      	; 0x2910 <GLCD_SetFont+0x28>
    2918:	8f 5f       	subi	r24, 0xFF	; 255
    291a:	80 93 67 00 	sts	0x0067, r24	; 0x800067 <__DATA_REGION_ORIGIN__+0x7>
    291e:	20 93 68 00 	sts	0x0068, r18	; 0x800068 <__DATA_REGION_ORIGIN__+0x8>
    2922:	08 95       	ret

00002924 <GLCD_GetWidthChar>:
    2924:	e0 e6       	ldi	r30, 0x60	; 96
    2926:	f0 e0       	ldi	r31, 0x00	; 0
    2928:	95 81       	ldd	r25, Z+5	; 0x05
    292a:	47 81       	ldd	r20, Z+7	; 0x07
    292c:	94 9f       	mul	r25, r20
    292e:	a0 01       	movw	r20, r0
    2930:	11 24       	eor	r1, r1
    2932:	4f 5f       	subi	r20, 0xFF	; 255
    2934:	5f 4f       	sbci	r21, 0xFF	; 255
    2936:	90 e0       	ldi	r25, 0x00	; 0
    2938:	80 97       	sbiw	r24, 0x20	; 32
    293a:	48 9f       	mul	r20, r24
    293c:	90 01       	movw	r18, r0
    293e:	49 9f       	mul	r20, r25
    2940:	30 0d       	add	r19, r0
    2942:	58 9f       	mul	r21, r24
    2944:	30 0d       	add	r19, r0
    2946:	11 24       	eor	r1, r1
    2948:	03 80       	ldd	r0, Z+3	; 0x03
    294a:	f4 81       	ldd	r31, Z+4	; 0x04
    294c:	e0 2d       	mov	r30, r0
    294e:	e2 0f       	add	r30, r18
    2950:	f3 1f       	adc	r31, r19
    2952:	84 91       	lpm	r24, Z
    2954:	08 95       	ret

00002956 <GLCD_GetWidthString>:
    2956:	0f 93       	push	r16
    2958:	1f 93       	push	r17
    295a:	cf 93       	push	r28
    295c:	df 93       	push	r29
    295e:	8c 01       	movw	r16, r24
    2960:	c0 e0       	ldi	r28, 0x00	; 0
    2962:	d0 e0       	ldi	r29, 0x00	; 0
    2964:	f8 01       	movw	r30, r16
    2966:	81 91       	ld	r24, Z+
    2968:	8f 01       	movw	r16, r30
    296a:	88 23       	and	r24, r24
    296c:	29 f0       	breq	.+10     	; 0x2978 <GLCD_GetWidthString+0x22>
    296e:	0e 94 92 14 	call	0x2924	; 0x2924 <GLCD_GetWidthChar>
    2972:	c8 0f       	add	r28, r24
    2974:	d1 1d       	adc	r29, r1
    2976:	f6 cf       	rjmp	.-20     	; 0x2964 <GLCD_GetWidthString+0xe>
    2978:	ce 01       	movw	r24, r28
    297a:	df 91       	pop	r29
    297c:	cf 91       	pop	r28
    297e:	1f 91       	pop	r17
    2980:	0f 91       	pop	r16
    2982:	08 95       	ret

00002984 <GLCD_GetWidthString_P>:
    2984:	0f 93       	push	r16
    2986:	1f 93       	push	r17
    2988:	cf 93       	push	r28
    298a:	df 93       	push	r29
    298c:	fc 01       	movw	r30, r24
    298e:	84 91       	lpm	r24, Z
    2990:	ef 01       	movw	r28, r30
    2992:	00 e0       	ldi	r16, 0x00	; 0
    2994:	10 e0       	ldi	r17, 0x00	; 0
    2996:	21 96       	adiw	r28, 0x01	; 1
    2998:	88 23       	and	r24, r24
    299a:	39 f0       	breq	.+14     	; 0x29aa <GLCD_GetWidthString_P+0x26>
    299c:	0e 94 92 14 	call	0x2924	; 0x2924 <GLCD_GetWidthChar>
    29a0:	08 0f       	add	r16, r24
    29a2:	11 1d       	adc	r17, r1
    29a4:	fe 01       	movw	r30, r28
    29a6:	84 91       	lpm	r24, Z
    29a8:	f6 cf       	rjmp	.-20     	; 0x2996 <GLCD_GetWidthString_P+0x12>
    29aa:	c8 01       	movw	r24, r16
    29ac:	df 91       	pop	r29
    29ae:	cf 91       	pop	r28
    29b0:	1f 91       	pop	r17
    29b2:	0f 91       	pop	r16
    29b4:	08 95       	ret

000029b6 <GLCD_PrintChar>:
    29b6:	2f 92       	push	r2
    29b8:	3f 92       	push	r3
    29ba:	4f 92       	push	r4
    29bc:	5f 92       	push	r5
    29be:	6f 92       	push	r6
    29c0:	7f 92       	push	r7
    29c2:	8f 92       	push	r8
    29c4:	9f 92       	push	r9
    29c6:	af 92       	push	r10
    29c8:	bf 92       	push	r11
    29ca:	cf 92       	push	r12
    29cc:	df 92       	push	r13
    29ce:	ef 92       	push	r14
    29d0:	ff 92       	push	r15
    29d2:	0f 93       	push	r16
    29d4:	1f 93       	push	r17
    29d6:	cf 93       	push	r28
    29d8:	df 93       	push	r29
    29da:	cd b7       	in	r28, 0x3d	; 61
    29dc:	de b7       	in	r29, 0x3e	; 62
    29de:	27 97       	sbiw	r28, 0x07	; 7
    29e0:	0f b6       	in	r0, 0x3f	; 63
    29e2:	f8 94       	cli
    29e4:	de bf       	out	0x3e, r29	; 62
    29e6:	0f be       	out	0x3f, r0	; 63
    29e8:	cd bf       	out	0x3d, r28	; 61
    29ea:	20 91 60 00 	lds	r18, 0x0060	; 0x800060 <__DATA_REGION_ORIGIN__>
    29ee:	2f 83       	std	Y+7, r18	; 0x07
    29f0:	d0 90 61 00 	lds	r13, 0x0061	; 0x800061 <__DATA_REGION_ORIGIN__+0x1>
    29f4:	20 91 65 00 	lds	r18, 0x0065	; 0x800065 <__DATA_REGION_ORIGIN__+0x5>
    29f8:	e0 90 67 00 	lds	r14, 0x0067	; 0x800067 <__DATA_REGION_ORIGIN__+0x7>
    29fc:	2e 9d       	mul	r18, r14
    29fe:	90 01       	movw	r18, r0
    2a00:	11 24       	eor	r1, r1
    2a02:	2f 5f       	subi	r18, 0xFF	; 255
    2a04:	3f 4f       	sbci	r19, 0xFF	; 255
    2a06:	80 52       	subi	r24, 0x20	; 32
    2a08:	82 9f       	mul	r24, r18
    2a0a:	30 01       	movw	r6, r0
    2a0c:	83 9f       	mul	r24, r19
    2a0e:	70 0c       	add	r7, r0
    2a10:	11 24       	eor	r1, r1
    2a12:	e0 91 63 00 	lds	r30, 0x0063	; 0x800063 <__DATA_REGION_ORIGIN__+0x3>
    2a16:	f0 91 64 00 	lds	r31, 0x0064	; 0x800064 <__DATA_REGION_ORIGIN__+0x4>
    2a1a:	e6 0d       	add	r30, r6
    2a1c:	f7 1d       	adc	r31, r7
    2a1e:	34 91       	lpm	r19, Z
    2a20:	3e 83       	std	Y+6, r19	; 0x06
    2a22:	83 2f       	mov	r24, r19
    2a24:	4f 81       	ldd	r20, Y+7	; 0x07
    2a26:	84 0f       	add	r24, r20
    2a28:	87 ff       	sbrs	r24, 7
    2a2a:	03 c0       	rjmp	.+6      	; 0x2a32 <GLCD_PrintChar+0x7c>
    2a2c:	50 e8       	ldi	r21, 0x80	; 128
    2a2e:	54 1b       	sub	r21, r20
    2a30:	5e 83       	std	Y+6, r21	; 0x06
    2a32:	8d 2d       	mov	r24, r13
    2a34:	86 95       	lsr	r24
    2a36:	86 95       	lsr	r24
    2a38:	86 95       	lsr	r24
    2a3a:	9e 2d       	mov	r25, r14
    2a3c:	98 0f       	add	r25, r24
    2a3e:	99 30       	cpi	r25, 0x09	; 9
    2a40:	18 f0       	brcs	.+6      	; 0x2a48 <GLCD_PrintChar+0x92>
    2a42:	98 e0       	ldi	r25, 0x08	; 8
    2a44:	e9 2e       	mov	r14, r25
    2a46:	e8 1a       	sub	r14, r24
    2a48:	6d 2d       	mov	r22, r13
    2a4a:	67 70       	andi	r22, 0x07	; 7
    2a4c:	c6 2e       	mov	r12, r22
    2a4e:	83 01       	movw	r16, r6
    2a50:	d9 82       	std	Y+1, r13	; 0x01
    2a52:	f1 2c       	mov	r15, r1
    2a54:	88 e0       	ldi	r24, 0x08	; 8
    2a56:	90 e0       	ldi	r25, 0x00	; 0
    2a58:	fc 01       	movw	r30, r24
    2a5a:	e6 1b       	sub	r30, r22
    2a5c:	f1 09       	sbc	r31, r1
    2a5e:	fd 83       	std	Y+5, r31	; 0x05
    2a60:	ec 83       	std	Y+4, r30	; 0x04
    2a62:	fe 14       	cp	r15, r14
    2a64:	09 f4       	brne	.+2      	; 0x2a68 <GLCD_PrintChar+0xb2>
    2a66:	7f c0       	rjmp	.+254    	; 0x2b66 <GLCD_PrintChar+0x1b0>
    2a68:	69 81       	ldd	r22, Y+1	; 0x01
    2a6a:	8f 81       	ldd	r24, Y+7	; 0x07
    2a6c:	0e 94 e7 0b 	call	0x17ce	; 0x17ce <GLCD_GotoXY>
    2a70:	28 01       	movw	r4, r16
    2a72:	ff ef       	ldi	r31, 0xFF	; 255
    2a74:	4f 1a       	sub	r4, r31
    2a76:	5f 0a       	sbc	r5, r31
    2a78:	a0 90 63 00 	lds	r10, 0x0063	; 0x800063 <__DATA_REGION_ORIGIN__+0x3>
    2a7c:	b0 90 64 00 	lds	r11, 0x0064	; 0x800064 <__DATA_REGION_ORIGIN__+0x4>
    2a80:	20 90 67 00 	lds	r2, 0x0067	; 0x800067 <__DATA_REGION_ORIGIN__+0x7>
    2a84:	31 2c       	mov	r3, r1
    2a86:	20 91 68 00 	lds	r18, 0x0068	; 0x800068 <__DATA_REGION_ORIGIN__+0x8>
    2a8a:	2a 83       	std	Y+2, r18	; 0x02
    2a8c:	40 91 61 00 	lds	r20, 0x0061	; 0x800061 <__DATA_REGION_ORIGIN__+0x1>
    2a90:	46 95       	lsr	r20
    2a92:	46 95       	lsr	r20
    2a94:	46 95       	lsr	r20
    2a96:	50 e0       	ldi	r21, 0x00	; 0
    2a98:	30 91 60 00 	lds	r19, 0x0060	; 0x800060 <__DATA_REGION_ORIGIN__>
    2a9c:	3b 83       	std	Y+3, r19	; 0x03
    2a9e:	45 01       	movw	r8, r10
    2aa0:	84 0c       	add	r8, r4
    2aa2:	95 1c       	adc	r9, r5
    2aa4:	80 e0       	ldi	r24, 0x00	; 0
    2aa6:	9b 81       	ldd	r25, Y+3	; 0x03
    2aa8:	98 0f       	add	r25, r24
    2aaa:	29 2f       	mov	r18, r25
    2aac:	30 e0       	ldi	r19, 0x00	; 0
    2aae:	ee 81       	ldd	r30, Y+6	; 0x06
    2ab0:	8e 17       	cp	r24, r30
    2ab2:	b1 f1       	breq	.+108    	; 0x2b20 <GLCD_PrintChar+0x16a>
    2ab4:	f4 01       	movw	r30, r8
    2ab6:	64 91       	lpm	r22, Z
    2ab8:	0c 2c       	mov	r0, r12
    2aba:	01 c0       	rjmp	.+2      	; 0x2abe <GLCD_PrintChar+0x108>
    2abc:	66 0f       	add	r22, r22
    2abe:	0a 94       	dec	r0
    2ac0:	ea f7       	brpl	.-6      	; 0x2abc <GLCD_PrintChar+0x106>
    2ac2:	96 2f       	mov	r25, r22
    2ac4:	ff 20       	and	r15, r15
    2ac6:	71 f0       	breq	.+28     	; 0x2ae4 <GLCD_PrintChar+0x12e>
    2ac8:	f5 01       	movw	r30, r10
    2aca:	e0 0f       	add	r30, r16
    2acc:	f1 1f       	adc	r31, r17
    2ace:	e4 91       	lpm	r30, Z
    2ad0:	f0 e0       	ldi	r31, 0x00	; 0
    2ad2:	0c 80       	ldd	r0, Y+4	; 0x04
    2ad4:	02 c0       	rjmp	.+4      	; 0x2ada <GLCD_PrintChar+0x124>
    2ad6:	f5 95       	asr	r31
    2ad8:	e7 95       	ror	r30
    2ada:	0a 94       	dec	r0
    2adc:	e2 f7       	brpl	.-8      	; 0x2ad6 <GLCD_PrintChar+0x120>
    2ade:	9e 2b       	or	r25, r30
    2ae0:	02 0d       	add	r16, r2
    2ae2:	13 1d       	adc	r17, r3
    2ae4:	6a 81       	ldd	r22, Y+2	; 0x02
    2ae6:	61 30       	cpi	r22, 0x01	; 1
    2ae8:	61 f4       	brne	.+24     	; 0x2b02 <GLCD_PrintChar+0x14c>
    2aea:	f9 01       	movw	r30, r18
    2aec:	a3 e0       	ldi	r26, 0x03	; 3
    2aee:	ee 0f       	add	r30, r30
    2af0:	ff 1f       	adc	r31, r31
    2af2:	aa 95       	dec	r26
    2af4:	e1 f7       	brne	.-8      	; 0x2aee <GLCD_PrintChar+0x138>
    2af6:	e7 59       	subi	r30, 0x97	; 151
    2af8:	ff 4f       	sbci	r31, 0xFF	; 255
    2afa:	e4 0f       	add	r30, r20
    2afc:	f5 1f       	adc	r31, r21
    2afe:	60 81       	ld	r22, Z
    2b00:	96 2b       	or	r25, r22
    2b02:	d9 01       	movw	r26, r18
    2b04:	73 e0       	ldi	r23, 0x03	; 3
    2b06:	aa 0f       	add	r26, r26
    2b08:	bb 1f       	adc	r27, r27
    2b0a:	7a 95       	dec	r23
    2b0c:	e1 f7       	brne	.-8      	; 0x2b06 <GLCD_PrintChar+0x150>
    2b0e:	a7 59       	subi	r26, 0x97	; 151
    2b10:	bf 4f       	sbci	r27, 0xFF	; 255
    2b12:	a4 0f       	add	r26, r20
    2b14:	b5 1f       	adc	r27, r21
    2b16:	9c 93       	st	X, r25
    2b18:	8f 5f       	subi	r24, 0xFF	; 255
    2b1a:	82 0c       	add	r8, r2
    2b1c:	93 1c       	adc	r9, r3
    2b1e:	c3 cf       	rjmp	.-122    	; 0x2aa6 <GLCD_PrintChar+0xf0>
    2b20:	90 93 60 00 	sts	0x0060, r25	; 0x800060 <__DATA_REGION_ORIGIN__>
    2b24:	6a 81       	ldd	r22, Y+2	; 0x02
    2b26:	66 23       	and	r22, r22
    2b28:	61 f0       	breq	.+24     	; 0x2b42 <GLCD_PrintChar+0x18c>
    2b2a:	f9 01       	movw	r30, r18
    2b2c:	63 e0       	ldi	r22, 0x03	; 3
    2b2e:	ee 0f       	add	r30, r30
    2b30:	ff 1f       	adc	r31, r31
    2b32:	6a 95       	dec	r22
    2b34:	e1 f7       	brne	.-8      	; 0x2b2e <GLCD_PrintChar+0x178>
    2b36:	e7 59       	subi	r30, 0x97	; 151
    2b38:	ff 4f       	sbci	r31, 0xFF	; 255
    2b3a:	e4 0f       	add	r30, r20
    2b3c:	f5 1f       	adc	r31, r21
    2b3e:	80 81       	ld	r24, Z
    2b40:	01 c0       	rjmp	.+2      	; 0x2b44 <GLCD_PrintChar+0x18e>
    2b42:	80 e0       	ldi	r24, 0x00	; 0
    2b44:	93 e0       	ldi	r25, 0x03	; 3
    2b46:	22 0f       	add	r18, r18
    2b48:	33 1f       	adc	r19, r19
    2b4a:	9a 95       	dec	r25
    2b4c:	e1 f7       	brne	.-8      	; 0x2b46 <GLCD_PrintChar+0x190>
    2b4e:	27 59       	subi	r18, 0x97	; 151
    2b50:	3f 4f       	sbci	r19, 0xFF	; 255
    2b52:	f9 01       	movw	r30, r18
    2b54:	e4 0f       	add	r30, r20
    2b56:	f5 1f       	adc	r31, r21
    2b58:	80 83       	st	Z, r24
    2b5a:	89 81       	ldd	r24, Y+1	; 0x01
    2b5c:	88 5f       	subi	r24, 0xF8	; 248
    2b5e:	89 83       	std	Y+1, r24	; 0x01
    2b60:	f3 94       	inc	r15
    2b62:	82 01       	movw	r16, r4
    2b64:	7e cf       	rjmp	.-260    	; 0x2a62 <GLCD_PrintChar+0xac>
    2b66:	6d 2d       	mov	r22, r13
    2b68:	98 e0       	ldi	r25, 0x08	; 8
    2b6a:	f9 9e       	mul	r15, r25
    2b6c:	60 0d       	add	r22, r0
    2b6e:	11 24       	eor	r1, r1
    2b70:	e1 e0       	ldi	r30, 0x01	; 1
    2b72:	ef 15       	cp	r30, r15
    2b74:	08 f0       	brcs	.+2      	; 0x2b78 <GLCD_PrintChar+0x1c2>
    2b76:	53 c0       	rjmp	.+166    	; 0x2c1e <GLCD_PrintChar+0x268>
    2b78:	8f 81       	ldd	r24, Y+7	; 0x07
    2b7a:	0e 94 e7 0b 	call	0x17ce	; 0x17ce <GLCD_GotoXY>
    2b7e:	e0 90 60 00 	lds	r14, 0x0060	; 0x800060 <__DATA_REGION_ORIGIN__>
    2b82:	80 91 61 00 	lds	r24, 0x0061	; 0x800061 <__DATA_REGION_ORIGIN__+0x1>
    2b86:	86 95       	lsr	r24
    2b88:	86 95       	lsr	r24
    2b8a:	86 95       	lsr	r24
    2b8c:	90 e0       	ldi	r25, 0x00	; 0
    2b8e:	b0 90 68 00 	lds	r11, 0x0068	; 0x800068 <__DATA_REGION_ORIGIN__+0x8>
    2b92:	60 91 67 00 	lds	r22, 0x0067	; 0x800067 <__DATA_REGION_ORIGIN__+0x7>
    2b96:	70 e0       	ldi	r23, 0x00	; 0
    2b98:	6f 0c       	add	r6, r15
    2b9a:	71 1c       	adc	r7, r1
    2b9c:	e0 91 63 00 	lds	r30, 0x0063	; 0x800063 <__DATA_REGION_ORIGIN__+0x3>
    2ba0:	f0 91 64 00 	lds	r31, 0x0064	; 0x800064 <__DATA_REGION_ORIGIN__+0x4>
    2ba4:	e6 0d       	add	r30, r6
    2ba6:	f7 1d       	adc	r31, r7
    2ba8:	f1 2c       	mov	r15, r1
    2baa:	48 e0       	ldi	r20, 0x08	; 8
    2bac:	e4 9e       	mul	r14, r20
    2bae:	90 01       	movw	r18, r0
    2bb0:	11 24       	eor	r1, r1
    2bb2:	d9 01       	movw	r26, r18
    2bb4:	a7 59       	subi	r26, 0x97	; 151
    2bb6:	bf 4f       	sbci	r27, 0xFF	; 255
    2bb8:	a8 0f       	add	r26, r24
    2bba:	b9 1f       	adc	r27, r25
    2bbc:	08 e0       	ldi	r16, 0x08	; 8
    2bbe:	10 e0       	ldi	r17, 0x00	; 0
    2bc0:	0c 19       	sub	r16, r12
    2bc2:	11 09       	sbc	r17, r1
    2bc4:	4e 81       	ldd	r20, Y+6	; 0x06
    2bc6:	f4 16       	cp	r15, r20
    2bc8:	99 f0       	breq	.+38     	; 0x2bf0 <GLCD_PrintChar+0x23a>
    2bca:	cc 90       	ld	r12, X
    2bcc:	44 91       	lpm	r20, Z
    2bce:	50 e0       	ldi	r21, 0x00	; 0
    2bd0:	00 2e       	mov	r0, r16
    2bd2:	02 c0       	rjmp	.+4      	; 0x2bd8 <GLCD_PrintChar+0x222>
    2bd4:	55 95       	asr	r21
    2bd6:	47 95       	ror	r20
    2bd8:	0a 94       	dec	r0
    2bda:	e2 f7       	brpl	.-8      	; 0x2bd4 <GLCD_PrintChar+0x21e>
    2bdc:	4c 29       	or	r20, r12
    2bde:	51 e0       	ldi	r21, 0x01	; 1
    2be0:	b5 12       	cpse	r11, r21
    2be2:	01 c0       	rjmp	.+2      	; 0x2be6 <GLCD_PrintChar+0x230>
    2be4:	4c 29       	or	r20, r12
    2be6:	4c 93       	st	X, r20
    2be8:	f3 94       	inc	r15
    2bea:	e6 0f       	add	r30, r22
    2bec:	f7 1f       	adc	r31, r23
    2bee:	ea cf       	rjmp	.-44     	; 0x2bc4 <GLCD_PrintChar+0x20e>
    2bf0:	bb 20       	and	r11, r11
    2bf2:	59 f0       	breq	.+22     	; 0x2c0a <GLCD_PrintChar+0x254>
    2bf4:	51 e0       	ldi	r21, 0x01	; 1
    2bf6:	f9 01       	movw	r30, r18
    2bf8:	e7 59       	subi	r30, 0x97	; 151
    2bfa:	ff 4f       	sbci	r31, 0xFF	; 255
    2bfc:	e8 0f       	add	r30, r24
    2bfe:	f9 1f       	adc	r31, r25
    2c00:	40 81       	ld	r20, Z
    2c02:	b5 16       	cp	r11, r21
    2c04:	19 f0       	breq	.+6      	; 0x2c0c <GLCD_PrintChar+0x256>
    2c06:	40 95       	com	r20
    2c08:	01 c0       	rjmp	.+2      	; 0x2c0c <GLCD_PrintChar+0x256>
    2c0a:	40 e0       	ldi	r20, 0x00	; 0
    2c0c:	e3 94       	inc	r14
    2c0e:	e0 92 60 00 	sts	0x0060, r14	; 0x800060 <__DATA_REGION_ORIGIN__>
    2c12:	27 59       	subi	r18, 0x97	; 151
    2c14:	3f 4f       	sbci	r19, 0xFF	; 255
    2c16:	f9 01       	movw	r30, r18
    2c18:	e8 0f       	add	r30, r24
    2c1a:	f9 1f       	adc	r31, r25
    2c1c:	40 83       	st	Z, r20
    2c1e:	8f 81       	ldd	r24, Y+7	; 0x07
    2c20:	8f 5f       	subi	r24, 0xFF	; 255
    2c22:	6d 2d       	mov	r22, r13
    2c24:	9e 81       	ldd	r25, Y+6	; 0x06
    2c26:	89 0f       	add	r24, r25
    2c28:	27 96       	adiw	r28, 0x07	; 7
    2c2a:	0f b6       	in	r0, 0x3f	; 63
    2c2c:	f8 94       	cli
    2c2e:	de bf       	out	0x3e, r29	; 62
    2c30:	0f be       	out	0x3f, r0	; 63
    2c32:	cd bf       	out	0x3d, r28	; 61
    2c34:	df 91       	pop	r29
    2c36:	cf 91       	pop	r28
    2c38:	1f 91       	pop	r17
    2c3a:	0f 91       	pop	r16
    2c3c:	ff 90       	pop	r15
    2c3e:	ef 90       	pop	r14
    2c40:	df 90       	pop	r13
    2c42:	cf 90       	pop	r12
    2c44:	bf 90       	pop	r11
    2c46:	af 90       	pop	r10
    2c48:	9f 90       	pop	r9
    2c4a:	8f 90       	pop	r8
    2c4c:	7f 90       	pop	r7
    2c4e:	6f 90       	pop	r6
    2c50:	5f 90       	pop	r5
    2c52:	4f 90       	pop	r4
    2c54:	3f 90       	pop	r3
    2c56:	2f 90       	pop	r2
    2c58:	0c 94 e7 0b 	jmp	0x17ce	; 0x17ce <GLCD_GotoXY>

00002c5c <GLCD_PrintString>:
    2c5c:	cf 93       	push	r28
    2c5e:	df 93       	push	r29
    2c60:	ec 01       	movw	r28, r24
    2c62:	89 91       	ld	r24, Y+
    2c64:	88 23       	and	r24, r24
    2c66:	69 f0       	breq	.+26     	; 0x2c82 <GLCD_PrintString+0x26>
    2c68:	90 91 60 00 	lds	r25, 0x0060	; 0x800060 <__DATA_REGION_ORIGIN__>
    2c6c:	20 91 65 00 	lds	r18, 0x0065	; 0x800065 <__DATA_REGION_ORIGIN__+0x5>
    2c70:	30 e0       	ldi	r19, 0x00	; 0
    2c72:	29 0f       	add	r18, r25
    2c74:	31 1d       	adc	r19, r1
    2c76:	20 38       	cpi	r18, 0x80	; 128
    2c78:	31 05       	cpc	r19, r1
    2c7a:	1c f4       	brge	.+6      	; 0x2c82 <GLCD_PrintString+0x26>
    2c7c:	0e 94 db 14 	call	0x29b6	; 0x29b6 <GLCD_PrintChar>
    2c80:	f0 cf       	rjmp	.-32     	; 0x2c62 <GLCD_PrintString+0x6>
    2c82:	df 91       	pop	r29
    2c84:	cf 91       	pop	r28
    2c86:	08 95       	ret

00002c88 <GLCD_PrintString_P>:
    2c88:	cf 93       	push	r28
    2c8a:	df 93       	push	r29
    2c8c:	fc 01       	movw	r30, r24
    2c8e:	84 91       	lpm	r24, Z
    2c90:	ef 01       	movw	r28, r30
    2c92:	88 23       	and	r24, r24
    2c94:	81 f0       	breq	.+32     	; 0x2cb6 <GLCD_PrintString_P+0x2e>
    2c96:	21 96       	adiw	r28, 0x01	; 1
    2c98:	90 91 60 00 	lds	r25, 0x0060	; 0x800060 <__DATA_REGION_ORIGIN__>
    2c9c:	20 91 65 00 	lds	r18, 0x0065	; 0x800065 <__DATA_REGION_ORIGIN__+0x5>
    2ca0:	30 e0       	ldi	r19, 0x00	; 0
    2ca2:	29 0f       	add	r18, r25
    2ca4:	31 1d       	adc	r19, r1
    2ca6:	20 38       	cpi	r18, 0x80	; 128
    2ca8:	31 05       	cpc	r19, r1
    2caa:	2c f4       	brge	.+10     	; 0x2cb6 <GLCD_PrintString_P+0x2e>
    2cac:	0e 94 db 14 	call	0x29b6	; 0x29b6 <GLCD_PrintChar>
    2cb0:	fe 01       	movw	r30, r28
    2cb2:	84 91       	lpm	r24, Z
    2cb4:	ee cf       	rjmp	.-36     	; 0x2c92 <GLCD_PrintString_P+0xa>
    2cb6:	df 91       	pop	r29
    2cb8:	cf 91       	pop	r28
    2cba:	08 95       	ret

00002cbc <GLCD_PrintInteger>:
    2cbc:	0f 93       	push	r16
    2cbe:	1f 93       	push	r17
    2cc0:	cf 93       	push	r28
    2cc2:	df 93       	push	r29
    2cc4:	cd b7       	in	r28, 0x3d	; 61
    2cc6:	de b7       	in	r29, 0x3e	; 62
    2cc8:	2c 97       	sbiw	r28, 0x0c	; 12
    2cca:	0f b6       	in	r0, 0x3f	; 63
    2ccc:	f8 94       	cli
    2cce:	de bf       	out	0x3e, r29	; 62
    2cd0:	0f be       	out	0x3f, r0	; 63
    2cd2:	cd bf       	out	0x3d, r28	; 61
    2cd4:	61 15       	cp	r22, r1
    2cd6:	71 05       	cpc	r23, r1
    2cd8:	81 05       	cpc	r24, r1
    2cda:	91 05       	cpc	r25, r1
    2cdc:	21 f4       	brne	.+8      	; 0x2ce6 <GLCD_PrintInteger+0x2a>
    2cde:	80 e3       	ldi	r24, 0x30	; 48
    2ce0:	0e 94 db 14 	call	0x29b6	; 0x29b6 <GLCD_PrintChar>
    2ce4:	e3 c0       	rjmp	.+454    	; 0x2eac <GLCD_PrintInteger+0x1f0>
    2ce6:	61 15       	cp	r22, r1
    2ce8:	71 05       	cpc	r23, r1
    2cea:	81 05       	cpc	r24, r1
    2cec:	00 e8       	ldi	r16, 0x80	; 128
    2cee:	90 07       	cpc	r25, r16
    2cf0:	09 f4       	brne	.+2      	; 0x2cf4 <GLCD_PrintInteger+0x38>
    2cf2:	dc c0       	rjmp	.+440    	; 0x2eac <GLCD_PrintInteger+0x1f0>
    2cf4:	fe 01       	movw	r30, r28
    2cf6:	31 96       	adiw	r30, 0x01	; 1
    2cf8:	2c e0       	ldi	r18, 0x0C	; 12
    2cfa:	df 01       	movw	r26, r30
    2cfc:	1d 92       	st	X+, r1
    2cfe:	2a 95       	dec	r18
    2d00:	e9 f7       	brne	.-6      	; 0x2cfc <GLCD_PrintInteger+0x40>
    2d02:	20 e3       	ldi	r18, 0x30	; 48
    2d04:	29 83       	std	Y+1, r18	; 0x01
    2d06:	97 ff       	sbrs	r25, 7
    2d08:	0b c0       	rjmp	.+22     	; 0x2d20 <GLCD_PrintInteger+0x64>
    2d0a:	8b 01       	movw	r16, r22
    2d0c:	9c 01       	movw	r18, r24
    2d0e:	44 27       	eor	r20, r20
    2d10:	55 27       	eor	r21, r21
    2d12:	ba 01       	movw	r22, r20
    2d14:	40 1b       	sub	r20, r16
    2d16:	51 0b       	sbc	r21, r17
    2d18:	62 0b       	sbc	r22, r18
    2d1a:	73 0b       	sbc	r23, r19
    2d1c:	91 e0       	ldi	r25, 0x01	; 1
    2d1e:	03 c0       	rjmp	.+6      	; 0x2d26 <GLCD_PrintInteger+0x6a>
    2d20:	ab 01       	movw	r20, r22
    2d22:	bc 01       	movw	r22, r24
    2d24:	90 e0       	ldi	r25, 0x00	; 0
    2d26:	80 e3       	ldi	r24, 0x30	; 48
    2d28:	21 e0       	ldi	r18, 0x01	; 1
    2d2a:	28 0f       	add	r18, r24
    2d2c:	41 30       	cpi	r20, 0x01	; 1
    2d2e:	1a ec       	ldi	r17, 0xCA	; 202
    2d30:	51 07       	cpc	r21, r17
    2d32:	1a e9       	ldi	r17, 0x9A	; 154
    2d34:	61 07       	cpc	r22, r17
    2d36:	1b e3       	ldi	r17, 0x3B	; 59
    2d38:	71 07       	cpc	r23, r17
    2d3a:	2c f0       	brlt	.+10     	; 0x2d46 <GLCD_PrintInteger+0x8a>
    2d3c:	5a 5c       	subi	r21, 0xCA	; 202
    2d3e:	6a 49       	sbci	r22, 0x9A	; 154
    2d40:	7b 43       	sbci	r23, 0x3B	; 59
    2d42:	82 2f       	mov	r24, r18
    2d44:	f1 cf       	rjmp	.-30     	; 0x2d28 <GLCD_PrintInteger+0x6c>
    2d46:	8a 83       	std	Y+2, r24	; 0x02
    2d48:	80 e3       	ldi	r24, 0x30	; 48
    2d4a:	21 e0       	ldi	r18, 0x01	; 1
    2d4c:	28 0f       	add	r18, r24
    2d4e:	41 15       	cp	r20, r1
    2d50:	31 ee       	ldi	r19, 0xE1	; 225
    2d52:	53 07       	cpc	r21, r19
    2d54:	35 ef       	ldi	r19, 0xF5	; 245
    2d56:	63 07       	cpc	r22, r19
    2d58:	35 e0       	ldi	r19, 0x05	; 5
    2d5a:	73 07       	cpc	r23, r19
    2d5c:	2c f0       	brlt	.+10     	; 0x2d68 <GLCD_PrintInteger+0xac>
    2d5e:	51 5e       	subi	r21, 0xE1	; 225
    2d60:	65 4f       	sbci	r22, 0xF5	; 245
    2d62:	75 40       	sbci	r23, 0x05	; 5
    2d64:	82 2f       	mov	r24, r18
    2d66:	f1 cf       	rjmp	.-30     	; 0x2d4a <GLCD_PrintInteger+0x8e>
    2d68:	8b 83       	std	Y+3, r24	; 0x03
    2d6a:	80 e3       	ldi	r24, 0x30	; 48
    2d6c:	21 e0       	ldi	r18, 0x01	; 1
    2d6e:	28 0f       	add	r18, r24
    2d70:	40 38       	cpi	r20, 0x80	; 128
    2d72:	a6 e9       	ldi	r26, 0x96	; 150
    2d74:	5a 07       	cpc	r21, r26
    2d76:	a8 e9       	ldi	r26, 0x98	; 152
    2d78:	6a 07       	cpc	r22, r26
    2d7a:	71 05       	cpc	r23, r1
    2d7c:	34 f0       	brlt	.+12     	; 0x2d8a <GLCD_PrintInteger+0xce>
    2d7e:	40 58       	subi	r20, 0x80	; 128
    2d80:	56 49       	sbci	r21, 0x96	; 150
    2d82:	68 49       	sbci	r22, 0x98	; 152
    2d84:	71 09       	sbc	r23, r1
    2d86:	82 2f       	mov	r24, r18
    2d88:	f1 cf       	rjmp	.-30     	; 0x2d6c <GLCD_PrintInteger+0xb0>
    2d8a:	8c 83       	std	Y+4, r24	; 0x04
    2d8c:	80 e3       	ldi	r24, 0x30	; 48
    2d8e:	21 e0       	ldi	r18, 0x01	; 1
    2d90:	28 0f       	add	r18, r24
    2d92:	40 34       	cpi	r20, 0x40	; 64
    2d94:	b2 e4       	ldi	r27, 0x42	; 66
    2d96:	5b 07       	cpc	r21, r27
    2d98:	bf e0       	ldi	r27, 0x0F	; 15
    2d9a:	6b 07       	cpc	r22, r27
    2d9c:	71 05       	cpc	r23, r1
    2d9e:	34 f0       	brlt	.+12     	; 0x2dac <GLCD_PrintInteger+0xf0>
    2da0:	40 54       	subi	r20, 0x40	; 64
    2da2:	52 44       	sbci	r21, 0x42	; 66
    2da4:	6f 40       	sbci	r22, 0x0F	; 15
    2da6:	71 09       	sbc	r23, r1
    2da8:	82 2f       	mov	r24, r18
    2daa:	f1 cf       	rjmp	.-30     	; 0x2d8e <GLCD_PrintInteger+0xd2>
    2dac:	8d 83       	std	Y+5, r24	; 0x05
    2dae:	80 e3       	ldi	r24, 0x30	; 48
    2db0:	21 e0       	ldi	r18, 0x01	; 1
    2db2:	28 0f       	add	r18, r24
    2db4:	40 3a       	cpi	r20, 0xA0	; 160
    2db6:	06 e8       	ldi	r16, 0x86	; 134
    2db8:	50 07       	cpc	r21, r16
    2dba:	01 e0       	ldi	r16, 0x01	; 1
    2dbc:	60 07       	cpc	r22, r16
    2dbe:	71 05       	cpc	r23, r1
    2dc0:	34 f0       	brlt	.+12     	; 0x2dce <GLCD_PrintInteger+0x112>
    2dc2:	40 5a       	subi	r20, 0xA0	; 160
    2dc4:	56 48       	sbci	r21, 0x86	; 134
    2dc6:	61 40       	sbci	r22, 0x01	; 1
    2dc8:	71 09       	sbc	r23, r1
    2dca:	82 2f       	mov	r24, r18
    2dcc:	f1 cf       	rjmp	.-30     	; 0x2db0 <GLCD_PrintInteger+0xf4>
    2dce:	8e 83       	std	Y+6, r24	; 0x06
    2dd0:	80 e3       	ldi	r24, 0x30	; 48
    2dd2:	21 e0       	ldi	r18, 0x01	; 1
    2dd4:	28 0f       	add	r18, r24
    2dd6:	40 31       	cpi	r20, 0x10	; 16
    2dd8:	17 e2       	ldi	r17, 0x27	; 39
    2dda:	51 07       	cpc	r21, r17
    2ddc:	61 05       	cpc	r22, r1
    2dde:	71 05       	cpc	r23, r1
    2de0:	34 f0       	brlt	.+12     	; 0x2dee <GLCD_PrintInteger+0x132>
    2de2:	40 51       	subi	r20, 0x10	; 16
    2de4:	57 42       	sbci	r21, 0x27	; 39
    2de6:	61 09       	sbc	r22, r1
    2de8:	71 09       	sbc	r23, r1
    2dea:	82 2f       	mov	r24, r18
    2dec:	f2 cf       	rjmp	.-28     	; 0x2dd2 <GLCD_PrintInteger+0x116>
    2dee:	8f 83       	std	Y+7, r24	; 0x07
    2df0:	80 e3       	ldi	r24, 0x30	; 48
    2df2:	21 e0       	ldi	r18, 0x01	; 1
    2df4:	28 0f       	add	r18, r24
    2df6:	48 3e       	cpi	r20, 0xE8	; 232
    2df8:	33 e0       	ldi	r19, 0x03	; 3
    2dfa:	53 07       	cpc	r21, r19
    2dfc:	61 05       	cpc	r22, r1
    2dfe:	71 05       	cpc	r23, r1
    2e00:	34 f0       	brlt	.+12     	; 0x2e0e <GLCD_PrintInteger+0x152>
    2e02:	48 5e       	subi	r20, 0xE8	; 232
    2e04:	53 40       	sbci	r21, 0x03	; 3
    2e06:	61 09       	sbc	r22, r1
    2e08:	71 09       	sbc	r23, r1
    2e0a:	82 2f       	mov	r24, r18
    2e0c:	f2 cf       	rjmp	.-28     	; 0x2df2 <GLCD_PrintInteger+0x136>
    2e0e:	88 87       	std	Y+8, r24	; 0x08
    2e10:	80 e3       	ldi	r24, 0x30	; 48
    2e12:	21 e0       	ldi	r18, 0x01	; 1
    2e14:	28 0f       	add	r18, r24
    2e16:	44 36       	cpi	r20, 0x64	; 100
    2e18:	51 05       	cpc	r21, r1
    2e1a:	61 05       	cpc	r22, r1
    2e1c:	71 05       	cpc	r23, r1
    2e1e:	34 f0       	brlt	.+12     	; 0x2e2c <GLCD_PrintInteger+0x170>
    2e20:	44 56       	subi	r20, 0x64	; 100
    2e22:	51 09       	sbc	r21, r1
    2e24:	61 09       	sbc	r22, r1
    2e26:	71 09       	sbc	r23, r1
    2e28:	82 2f       	mov	r24, r18
    2e2a:	f3 cf       	rjmp	.-26     	; 0x2e12 <GLCD_PrintInteger+0x156>
    2e2c:	89 87       	std	Y+9, r24	; 0x09
    2e2e:	80 e3       	ldi	r24, 0x30	; 48
    2e30:	21 e0       	ldi	r18, 0x01	; 1
    2e32:	28 0f       	add	r18, r24
    2e34:	4a 30       	cpi	r20, 0x0A	; 10
    2e36:	51 05       	cpc	r21, r1
    2e38:	61 05       	cpc	r22, r1
    2e3a:	71 05       	cpc	r23, r1
    2e3c:	34 f0       	brlt	.+12     	; 0x2e4a <GLCD_PrintInteger+0x18e>
    2e3e:	4a 50       	subi	r20, 0x0A	; 10
    2e40:	51 09       	sbc	r21, r1
    2e42:	61 09       	sbc	r22, r1
    2e44:	71 09       	sbc	r23, r1
    2e46:	82 2f       	mov	r24, r18
    2e48:	f3 cf       	rjmp	.-26     	; 0x2e30 <GLCD_PrintInteger+0x174>
    2e4a:	8a 87       	std	Y+10, r24	; 0x0a
    2e4c:	77 ff       	sbrs	r23, 7
    2e4e:	03 c0       	rjmp	.+6      	; 0x2e56 <GLCD_PrintInteger+0x19a>
    2e50:	40 e0       	ldi	r20, 0x00	; 0
    2e52:	50 e0       	ldi	r21, 0x00	; 0
    2e54:	ba 01       	movw	r22, r20
    2e56:	40 5d       	subi	r20, 0xD0	; 208
    2e58:	4b 87       	std	Y+11, r20	; 0x0b
    2e5a:	80 e0       	ldi	r24, 0x00	; 0
    2e5c:	df 01       	movw	r26, r30
    2e5e:	a8 0f       	add	r26, r24
    2e60:	b1 1d       	adc	r27, r1
    2e62:	2c 91       	ld	r18, X
    2e64:	20 33       	cpi	r18, 0x30	; 48
    2e66:	11 f4       	brne	.+4      	; 0x2e6c <GLCD_PrintInteger+0x1b0>
    2e68:	8f 5f       	subi	r24, 0xFF	; 255
    2e6a:	f8 cf       	rjmp	.-16     	; 0x2e5c <GLCD_PrintInteger+0x1a0>
    2e6c:	99 23       	and	r25, r25
    2e6e:	31 f0       	breq	.+12     	; 0x2e7c <GLCD_PrintInteger+0x1c0>
    2e70:	81 50       	subi	r24, 0x01	; 1
    2e72:	df 01       	movw	r26, r30
    2e74:	a8 0f       	add	r26, r24
    2e76:	b1 1d       	adc	r27, r1
    2e78:	9d e2       	ldi	r25, 0x2D	; 45
    2e7a:	9c 93       	st	X, r25
    2e7c:	3a e0       	ldi	r19, 0x0A	; 10
    2e7e:	38 1b       	sub	r19, r24
    2e80:	20 e0       	ldi	r18, 0x00	; 0
    2e82:	90 e0       	ldi	r25, 0x00	; 0
    2e84:	bf 01       	movw	r22, r30
    2e86:	62 0f       	add	r22, r18
    2e88:	71 1d       	adc	r23, r1
    2e8a:	ab 01       	movw	r20, r22
    2e8c:	48 0f       	add	r20, r24
    2e8e:	59 1f       	adc	r21, r25
    2e90:	da 01       	movw	r26, r20
    2e92:	4c 91       	ld	r20, X
    2e94:	db 01       	movw	r26, r22
    2e96:	4c 93       	st	X, r20
    2e98:	2f 5f       	subi	r18, 0xFF	; 255
    2e9a:	32 17       	cp	r19, r18
    2e9c:	98 f7       	brcc	.-26     	; 0x2e84 <GLCD_PrintInteger+0x1c8>
    2e9e:	df 01       	movw	r26, r30
    2ea0:	a2 0f       	add	r26, r18
    2ea2:	b1 1d       	adc	r27, r1
    2ea4:	1c 92       	st	X, r1
    2ea6:	cf 01       	movw	r24, r30
    2ea8:	0e 94 2e 16 	call	0x2c5c	; 0x2c5c <GLCD_PrintString>
    2eac:	2c 96       	adiw	r28, 0x0c	; 12
    2eae:	0f b6       	in	r0, 0x3f	; 63
    2eb0:	f8 94       	cli
    2eb2:	de bf       	out	0x3e, r29	; 62
    2eb4:	0f be       	out	0x3f, r0	; 63
    2eb6:	cd bf       	out	0x3d, r28	; 61
    2eb8:	df 91       	pop	r29
    2eba:	cf 91       	pop	r28
    2ebc:	1f 91       	pop	r17
    2ebe:	0f 91       	pop	r16
    2ec0:	08 95       	ret

00002ec2 <GLCD_PrintDouble>:
    2ec2:	8f 92       	push	r8
    2ec4:	9f 92       	push	r9
    2ec6:	af 92       	push	r10
    2ec8:	bf 92       	push	r11
    2eca:	cf 92       	push	r12
    2ecc:	df 92       	push	r13
    2ece:	ef 92       	push	r14
    2ed0:	ff 92       	push	r15
    2ed2:	6b 01       	movw	r12, r22
    2ed4:	7c 01       	movw	r14, r24
    2ed6:	49 01       	movw	r8, r18
    2ed8:	5a 01       	movw	r10, r20
    2eda:	20 e0       	ldi	r18, 0x00	; 0
    2edc:	30 e0       	ldi	r19, 0x00	; 0
    2ede:	a9 01       	movw	r20, r18
    2ee0:	0e 94 19 19 	call	0x3232	; 0x3232 <__cmpsf2>
    2ee4:	81 11       	cpse	r24, r1
    2ee6:	11 c0       	rjmp	.+34     	; 0x2f0a <GLCD_PrintDouble+0x48>
    2ee8:	80 e3       	ldi	r24, 0x30	; 48
    2eea:	0e 94 db 14 	call	0x29b6	; 0x29b6 <GLCD_PrintChar>
    2eee:	8e e2       	ldi	r24, 0x2E	; 46
    2ef0:	0e 94 db 14 	call	0x29b6	; 0x29b6 <GLCD_PrintChar>
    2ef4:	80 e3       	ldi	r24, 0x30	; 48
    2ef6:	ff 90       	pop	r15
    2ef8:	ef 90       	pop	r14
    2efa:	df 90       	pop	r13
    2efc:	cf 90       	pop	r12
    2efe:	bf 90       	pop	r11
    2f00:	af 90       	pop	r10
    2f02:	9f 90       	pop	r9
    2f04:	8f 90       	pop	r8
    2f06:	0c 94 db 14 	jmp	0x29b6	; 0x29b6 <GLCD_PrintChar>
    2f0a:	20 e0       	ldi	r18, 0x00	; 0
    2f0c:	30 e0       	ldi	r19, 0x00	; 0
    2f0e:	40 e0       	ldi	r20, 0x00	; 0
    2f10:	5f ec       	ldi	r21, 0xCF	; 207
    2f12:	c7 01       	movw	r24, r14
    2f14:	b6 01       	movw	r22, r12
    2f16:	0e 94 78 1a 	call	0x34f0	; 0x34f0 <__gesf2>
    2f1a:	87 fd       	sbrc	r24, 7
    2f1c:	47 c0       	rjmp	.+142    	; 0x2fac <GLCD_PrintDouble+0xea>
    2f1e:	20 e0       	ldi	r18, 0x00	; 0
    2f20:	30 e0       	ldi	r19, 0x00	; 0
    2f22:	40 e0       	ldi	r20, 0x00	; 0
    2f24:	5f e4       	ldi	r21, 0x4F	; 79
    2f26:	c7 01       	movw	r24, r14
    2f28:	b6 01       	movw	r22, r12
    2f2a:	0e 94 19 19 	call	0x3232	; 0x3232 <__cmpsf2>
    2f2e:	87 ff       	sbrs	r24, 7
    2f30:	3d c0       	rjmp	.+122    	; 0x2fac <GLCD_PrintDouble+0xea>
    2f32:	20 e0       	ldi	r18, 0x00	; 0
    2f34:	30 e0       	ldi	r19, 0x00	; 0
    2f36:	a9 01       	movw	r20, r18
    2f38:	c7 01       	movw	r24, r14
    2f3a:	b6 01       	movw	r22, r12
    2f3c:	0e 94 19 19 	call	0x3232	; 0x3232 <__cmpsf2>
    2f40:	87 ff       	sbrs	r24, 7
    2f42:	07 c0       	rjmp	.+14     	; 0x2f52 <GLCD_PrintDouble+0x90>
    2f44:	f7 fa       	bst	r15, 7
    2f46:	f0 94       	com	r15
    2f48:	f7 f8       	bld	r15, 7
    2f4a:	f0 94       	com	r15
    2f4c:	8d e2       	ldi	r24, 0x2D	; 45
    2f4e:	0e 94 db 14 	call	0x29b6	; 0x29b6 <GLCD_PrintChar>
    2f52:	c7 01       	movw	r24, r14
    2f54:	b6 01       	movw	r22, r12
    2f56:	0e 94 90 19 	call	0x3320	; 0x3320 <__fixsfsi>
    2f5a:	0e 94 5e 16 	call	0x2cbc	; 0x2cbc <GLCD_PrintInteger>
    2f5e:	8e e2       	ldi	r24, 0x2E	; 46
    2f60:	0e 94 db 14 	call	0x29b6	; 0x29b6 <GLCD_PrintChar>
    2f64:	c7 01       	movw	r24, r14
    2f66:	b6 01       	movw	r22, r12
    2f68:	0e 94 97 19 	call	0x332e	; 0x332e <__fixunssfsi>
    2f6c:	0e 94 c6 19 	call	0x338c	; 0x338c <__floatunsisf>
    2f70:	9b 01       	movw	r18, r22
    2f72:	ac 01       	movw	r20, r24
    2f74:	c7 01       	movw	r24, r14
    2f76:	b6 01       	movw	r22, r12
    2f78:	0e 94 ac 18 	call	0x3158	; 0x3158 <__subsf3>
    2f7c:	6b 01       	movw	r12, r22
    2f7e:	7c 01       	movw	r14, r24
    2f80:	c5 01       	movw	r24, r10
    2f82:	b4 01       	movw	r22, r8
    2f84:	0e 94 c6 19 	call	0x338c	; 0x338c <__floatunsisf>
    2f88:	9b 01       	movw	r18, r22
    2f8a:	ac 01       	movw	r20, r24
    2f8c:	c7 01       	movw	r24, r14
    2f8e:	b6 01       	movw	r22, r12
    2f90:	0e 94 7d 1a 	call	0x34fa	; 0x34fa <__mulsf3>
    2f94:	0e 94 90 19 	call	0x3320	; 0x3320 <__fixsfsi>
    2f98:	ff 90       	pop	r15
    2f9a:	ef 90       	pop	r14
    2f9c:	df 90       	pop	r13
    2f9e:	cf 90       	pop	r12
    2fa0:	bf 90       	pop	r11
    2fa2:	af 90       	pop	r10
    2fa4:	9f 90       	pop	r9
    2fa6:	8f 90       	pop	r8
    2fa8:	0c 94 5e 16 	jmp	0x2cbc	; 0x2cbc <GLCD_PrintInteger>
    2fac:	ff 90       	pop	r15
    2fae:	ef 90       	pop	r14
    2fb0:	df 90       	pop	r13
    2fb2:	cf 90       	pop	r12
    2fb4:	bf 90       	pop	r11
    2fb6:	af 90       	pop	r10
    2fb8:	9f 90       	pop	r9
    2fba:	8f 90       	pop	r8
    2fbc:	08 95       	ret

00002fbe <font>:
    2fbe:	21 e0       	ldi	r18, 0x01	; 1
    2fc0:	48 e2       	ldi	r20, 0x28	; 40
    2fc2:	60 e2       	ldi	r22, 0x20	; 32
    2fc4:	84 ec       	ldi	r24, 0xC4	; 196
    2fc6:	94 e0       	ldi	r25, 0x04	; 4
    2fc8:	0c 94 74 14 	jmp	0x28e8	; 0x28e8 <GLCD_SetFont>

00002fcc <Gotoxy>:
    2fcc:	66 e0       	ldi	r22, 0x06	; 6
    2fce:	83 e3       	ldi	r24, 0x33	; 51
    2fd0:	0c 94 e7 0b 	jmp	0x17ce	; 0x17ce <GLCD_GotoXY>

00002fd4 <main>:
    2fd4:	17 ba       	out	0x17, r1	; 23
    2fd6:	83 e0       	ldi	r24, 0x03	; 3
    2fd8:	88 bb       	out	0x18, r24	; 24
    2fda:	0e 94 ef 0b 	call	0x17de	; 0x17de <GLCD_Setup>
    2fde:	0e 94 4c 11 	call	0x2298	; 0x2298 <GLCD_Clear>
    2fe2:	c0 e0       	ldi	r28, 0x00	; 0
    2fe4:	21 e0       	ldi	r18, 0x01	; 1
    2fe6:	48 e0       	ldi	r20, 0x08	; 8
    2fe8:	65 e0       	ldi	r22, 0x05	; 5
    2fea:	8e e5       	ldi	r24, 0x5E	; 94
    2fec:	90 e0       	ldi	r25, 0x00	; 0
    2fee:	0e 94 74 14 	call	0x28e8	; 0x28e8 <GLCD_SetFont>
    2ff2:	6d e2       	ldi	r22, 0x2D	; 45
    2ff4:	8a e0       	ldi	r24, 0x0A	; 10
    2ff6:	0e 94 e7 0b 	call	0x17ce	; 0x17ce <GLCD_GotoXY>
    2ffa:	81 e4       	ldi	r24, 0x41	; 65
    2ffc:	0e 94 db 14 	call	0x29b6	; 0x29b6 <GLCD_PrintChar>
    3000:	0e 94 99 0b 	call	0x1732	; 0x1732 <GLCD_Render>
    3004:	0e 94 99 0b 	call	0x1732	; 0x1732 <GLCD_Render>
    3008:	b0 99       	sbic	0x16, 0	; 22
    300a:	03 c0       	rjmp	.+6      	; 0x3012 <main+0x3e>
    300c:	cf 5f       	subi	r28, 0xFF	; 255
    300e:	b0 9b       	sbis	0x16, 0	; 22
    3010:	fe cf       	rjmp	.-4      	; 0x300e <main+0x3a>
    3012:	b1 99       	sbic	0x16, 1	; 22
    3014:	03 c0       	rjmp	.+6      	; 0x301c <main+0x48>
    3016:	c1 50       	subi	r28, 0x01	; 1
    3018:	b1 9b       	sbis	0x16, 1	; 22
    301a:	fe cf       	rjmp	.-4      	; 0x3018 <main+0x44>
    301c:	c2 30       	cpi	r28, 0x02	; 2
    301e:	09 f4       	brne	.+2      	; 0x3022 <main+0x4e>
    3020:	5f c0       	rjmp	.+190    	; 0x30e0 <main+0x10c>
    3022:	08 f5       	brcc	.+66     	; 0x3066 <main+0x92>
    3024:	cc 23       	and	r28, r28
    3026:	09 f4       	brne	.+2      	; 0x302a <main+0x56>
    3028:	40 c0       	rjmp	.+128    	; 0x30aa <main+0xd6>
    302a:	c1 30       	cpi	r28, 0x01	; 1
    302c:	d9 f6       	brne	.-74     	; 0x2fe4 <main+0x10>
    302e:	e1 2c       	mov	r14, r1
    3030:	05 e0       	ldi	r16, 0x05	; 5
    3032:	2a e2       	ldi	r18, 0x2A	; 42
    3034:	48 e4       	ldi	r20, 0x48	; 72
    3036:	68 e0       	ldi	r22, 0x08	; 8
    3038:	80 e3       	ldi	r24, 0x30	; 48
    303a:	0e 94 5a 11 	call	0x22b4	; 0x22b4 <GLCD_FillRoundRectangle>
    303e:	60 e0       	ldi	r22, 0x00	; 0
    3040:	89 e6       	ldi	r24, 0x69	; 105
    3042:	0e 94 e7 0b 	call	0x17ce	; 0x17ce <GLCD_GotoXY>
    3046:	2f ef       	ldi	r18, 0xFF	; 255
    3048:	48 e2       	ldi	r20, 0x28	; 40
    304a:	6f e0       	ldi	r22, 0x0F	; 15
    304c:	8a ec       	ldi	r24, 0xCA	; 202
    304e:	93 e0       	ldi	r25, 0x03	; 3
    3050:	0e 94 9d 0d 	call	0x1b3a	; 0x1b3a <GLCD_DrawBitmap>
    3054:	0e 94 df 17 	call	0x2fbe	; 0x2fbe <font>
    3058:	0e 94 e6 17 	call	0x2fcc	; 0x2fcc <Gotoxy>
    305c:	61 e0       	ldi	r22, 0x01	; 1
    305e:	70 e0       	ldi	r23, 0x00	; 0
    3060:	80 e0       	ldi	r24, 0x00	; 0
    3062:	90 e0       	ldi	r25, 0x00	; 0
    3064:	74 c0       	rjmp	.+232    	; 0x314e <main+0x17a>
    3066:	c3 30       	cpi	r28, 0x03	; 3
    3068:	09 f4       	brne	.+2      	; 0x306c <main+0x98>
    306a:	56 c0       	rjmp	.+172    	; 0x3118 <main+0x144>
    306c:	c4 30       	cpi	r28, 0x04	; 4
    306e:	09 f0       	breq	.+2      	; 0x3072 <main+0x9e>
    3070:	b9 cf       	rjmp	.-142    	; 0x2fe4 <main+0x10>
    3072:	e1 2c       	mov	r14, r1
    3074:	05 e0       	ldi	r16, 0x05	; 5
    3076:	2a e2       	ldi	r18, 0x2A	; 42
    3078:	48 e4       	ldi	r20, 0x48	; 72
    307a:	68 e0       	ldi	r22, 0x08	; 8
    307c:	80 e3       	ldi	r24, 0x30	; 48
    307e:	0e 94 5a 11 	call	0x22b4	; 0x22b4 <GLCD_FillRoundRectangle>
    3082:	60 e0       	ldi	r22, 0x00	; 0
    3084:	89 e6       	ldi	r24, 0x69	; 105
    3086:	0e 94 e7 0b 	call	0x17ce	; 0x17ce <GLCD_GotoXY>
    308a:	2f ef       	ldi	r18, 0xFF	; 255
    308c:	48 e2       	ldi	r20, 0x28	; 40
    308e:	6f e0       	ldi	r22, 0x0F	; 15
    3090:	89 ee       	ldi	r24, 0xE9	; 233
    3092:	92 e0       	ldi	r25, 0x02	; 2
    3094:	0e 94 9d 0d 	call	0x1b3a	; 0x1b3a <GLCD_DrawBitmap>
    3098:	0e 94 df 17 	call	0x2fbe	; 0x2fbe <font>
    309c:	0e 94 e6 17 	call	0x2fcc	; 0x2fcc <Gotoxy>
    30a0:	64 e0       	ldi	r22, 0x04	; 4
    30a2:	70 e0       	ldi	r23, 0x00	; 0
    30a4:	80 e0       	ldi	r24, 0x00	; 0
    30a6:	90 e0       	ldi	r25, 0x00	; 0
    30a8:	52 c0       	rjmp	.+164    	; 0x314e <main+0x17a>
    30aa:	e1 2c       	mov	r14, r1
    30ac:	05 e0       	ldi	r16, 0x05	; 5
    30ae:	2a e2       	ldi	r18, 0x2A	; 42
    30b0:	48 e4       	ldi	r20, 0x48	; 72
    30b2:	68 e0       	ldi	r22, 0x08	; 8
    30b4:	80 e3       	ldi	r24, 0x30	; 48
    30b6:	0e 94 5a 11 	call	0x22b4	; 0x22b4 <GLCD_FillRoundRectangle>
    30ba:	60 e0       	ldi	r22, 0x00	; 0
    30bc:	89 e6       	ldi	r24, 0x69	; 105
    30be:	0e 94 e7 0b 	call	0x17ce	; 0x17ce <GLCD_GotoXY>
    30c2:	2f ef       	ldi	r18, 0xFF	; 255
    30c4:	48 e2       	ldi	r20, 0x28	; 40
    30c6:	6f e0       	ldi	r22, 0x0F	; 15
    30c8:	85 e1       	ldi	r24, 0x15	; 21
    30ca:	94 e0       	ldi	r25, 0x04	; 4
    30cc:	0e 94 9d 0d 	call	0x1b3a	; 0x1b3a <GLCD_DrawBitmap>
    30d0:	0e 94 df 17 	call	0x2fbe	; 0x2fbe <font>
    30d4:	0e 94 e6 17 	call	0x2fcc	; 0x2fcc <Gotoxy>
    30d8:	60 e0       	ldi	r22, 0x00	; 0
    30da:	70 e0       	ldi	r23, 0x00	; 0
    30dc:	cb 01       	movw	r24, r22
    30de:	37 c0       	rjmp	.+110    	; 0x314e <main+0x17a>
    30e0:	e1 2c       	mov	r14, r1
    30e2:	05 e0       	ldi	r16, 0x05	; 5
    30e4:	2a e2       	ldi	r18, 0x2A	; 42
    30e6:	48 e4       	ldi	r20, 0x48	; 72
    30e8:	68 e0       	ldi	r22, 0x08	; 8
    30ea:	80 e3       	ldi	r24, 0x30	; 48
    30ec:	0e 94 5a 11 	call	0x22b4	; 0x22b4 <GLCD_FillRoundRectangle>
    30f0:	60 e0       	ldi	r22, 0x00	; 0
    30f2:	89 e6       	ldi	r24, 0x69	; 105
    30f4:	0e 94 e7 0b 	call	0x17ce	; 0x17ce <GLCD_GotoXY>
    30f8:	2f ef       	ldi	r18, 0xFF	; 255
    30fa:	48 e2       	ldi	r20, 0x28	; 40
    30fc:	6f e0       	ldi	r22, 0x0F	; 15
    30fe:	8f e7       	ldi	r24, 0x7F	; 127
    3100:	93 e0       	ldi	r25, 0x03	; 3
    3102:	0e 94 9d 0d 	call	0x1b3a	; 0x1b3a <GLCD_DrawBitmap>
    3106:	0e 94 df 17 	call	0x2fbe	; 0x2fbe <font>
    310a:	0e 94 e6 17 	call	0x2fcc	; 0x2fcc <Gotoxy>
    310e:	62 e0       	ldi	r22, 0x02	; 2
    3110:	70 e0       	ldi	r23, 0x00	; 0
    3112:	80 e0       	ldi	r24, 0x00	; 0
    3114:	90 e0       	ldi	r25, 0x00	; 0
    3116:	1b c0       	rjmp	.+54     	; 0x314e <main+0x17a>
    3118:	e1 2c       	mov	r14, r1
    311a:	05 e0       	ldi	r16, 0x05	; 5
    311c:	2a e2       	ldi	r18, 0x2A	; 42
    311e:	48 e4       	ldi	r20, 0x48	; 72
    3120:	68 e0       	ldi	r22, 0x08	; 8
    3122:	80 e3       	ldi	r24, 0x30	; 48
    3124:	0e 94 5a 11 	call	0x22b4	; 0x22b4 <GLCD_FillRoundRectangle>
    3128:	60 e0       	ldi	r22, 0x00	; 0
    312a:	89 e6       	ldi	r24, 0x69	; 105
    312c:	0e 94 e7 0b 	call	0x17ce	; 0x17ce <GLCD_GotoXY>
    3130:	2f ef       	ldi	r18, 0xFF	; 255
    3132:	48 e2       	ldi	r20, 0x28	; 40
    3134:	6f e0       	ldi	r22, 0x0F	; 15
    3136:	84 e3       	ldi	r24, 0x34	; 52
    3138:	93 e0       	ldi	r25, 0x03	; 3
    313a:	0e 94 9d 0d 	call	0x1b3a	; 0x1b3a <GLCD_DrawBitmap>
    313e:	0e 94 df 17 	call	0x2fbe	; 0x2fbe <font>
    3142:	0e 94 e6 17 	call	0x2fcc	; 0x2fcc <Gotoxy>
    3146:	63 e0       	ldi	r22, 0x03	; 3
    3148:	70 e0       	ldi	r23, 0x00	; 0
    314a:	80 e0       	ldi	r24, 0x00	; 0
    314c:	90 e0       	ldi	r25, 0x00	; 0
    314e:	0e 94 5e 16 	call	0x2cbc	; 0x2cbc <GLCD_PrintInteger>
    3152:	0e 94 99 0b 	call	0x1732	; 0x1732 <GLCD_Render>
    3156:	46 cf       	rjmp	.-372    	; 0x2fe4 <main+0x10>

00003158 <__subsf3>:
    3158:	50 58       	subi	r21, 0x80	; 128

0000315a <__addsf3>:
    315a:	bb 27       	eor	r27, r27
    315c:	aa 27       	eor	r26, r26
    315e:	0e 94 c4 18 	call	0x3188	; 0x3188 <__addsf3x>
    3162:	0c 94 3e 1a 	jmp	0x347c	; 0x347c <__fp_round>
    3166:	0e 94 30 1a 	call	0x3460	; 0x3460 <__fp_pscA>
    316a:	38 f0       	brcs	.+14     	; 0x317a <__addsf3+0x20>
    316c:	0e 94 37 1a 	call	0x346e	; 0x346e <__fp_pscB>
    3170:	20 f0       	brcs	.+8      	; 0x317a <__addsf3+0x20>
    3172:	39 f4       	brne	.+14     	; 0x3182 <__addsf3+0x28>
    3174:	9f 3f       	cpi	r25, 0xFF	; 255
    3176:	19 f4       	brne	.+6      	; 0x317e <__addsf3+0x24>
    3178:	26 f4       	brtc	.+8      	; 0x3182 <__addsf3+0x28>
    317a:	0c 94 2d 1a 	jmp	0x345a	; 0x345a <__fp_nan>
    317e:	0e f4       	brtc	.+2      	; 0x3182 <__addsf3+0x28>
    3180:	e0 95       	com	r30
    3182:	e7 fb       	bst	r30, 7
    3184:	0c 94 27 1a 	jmp	0x344e	; 0x344e <__fp_inf>

00003188 <__addsf3x>:
    3188:	e9 2f       	mov	r30, r25
    318a:	0e 94 4f 1a 	call	0x349e	; 0x349e <__fp_split3>
    318e:	58 f3       	brcs	.-42     	; 0x3166 <__addsf3+0xc>
    3190:	ba 17       	cp	r27, r26
    3192:	62 07       	cpc	r22, r18
    3194:	73 07       	cpc	r23, r19
    3196:	84 07       	cpc	r24, r20
    3198:	95 07       	cpc	r25, r21
    319a:	20 f0       	brcs	.+8      	; 0x31a4 <__addsf3x+0x1c>
    319c:	79 f4       	brne	.+30     	; 0x31bc <__addsf3x+0x34>
    319e:	a6 f5       	brtc	.+104    	; 0x3208 <__addsf3x+0x80>
    31a0:	0c 94 71 1a 	jmp	0x34e2	; 0x34e2 <__fp_zero>
    31a4:	0e f4       	brtc	.+2      	; 0x31a8 <__addsf3x+0x20>
    31a6:	e0 95       	com	r30
    31a8:	0b 2e       	mov	r0, r27
    31aa:	ba 2f       	mov	r27, r26
    31ac:	a0 2d       	mov	r26, r0
    31ae:	0b 01       	movw	r0, r22
    31b0:	b9 01       	movw	r22, r18
    31b2:	90 01       	movw	r18, r0
    31b4:	0c 01       	movw	r0, r24
    31b6:	ca 01       	movw	r24, r20
    31b8:	a0 01       	movw	r20, r0
    31ba:	11 24       	eor	r1, r1
    31bc:	ff 27       	eor	r31, r31
    31be:	59 1b       	sub	r21, r25
    31c0:	99 f0       	breq	.+38     	; 0x31e8 <__addsf3x+0x60>
    31c2:	59 3f       	cpi	r21, 0xF9	; 249
    31c4:	50 f4       	brcc	.+20     	; 0x31da <__addsf3x+0x52>
    31c6:	50 3e       	cpi	r21, 0xE0	; 224
    31c8:	68 f1       	brcs	.+90     	; 0x3224 <__addsf3x+0x9c>
    31ca:	1a 16       	cp	r1, r26
    31cc:	f0 40       	sbci	r31, 0x00	; 0
    31ce:	a2 2f       	mov	r26, r18
    31d0:	23 2f       	mov	r18, r19
    31d2:	34 2f       	mov	r19, r20
    31d4:	44 27       	eor	r20, r20
    31d6:	58 5f       	subi	r21, 0xF8	; 248
    31d8:	f3 cf       	rjmp	.-26     	; 0x31c0 <__addsf3x+0x38>
    31da:	46 95       	lsr	r20
    31dc:	37 95       	ror	r19
    31de:	27 95       	ror	r18
    31e0:	a7 95       	ror	r26
    31e2:	f0 40       	sbci	r31, 0x00	; 0
    31e4:	53 95       	inc	r21
    31e6:	c9 f7       	brne	.-14     	; 0x31da <__addsf3x+0x52>
    31e8:	7e f4       	brtc	.+30     	; 0x3208 <__addsf3x+0x80>
    31ea:	1f 16       	cp	r1, r31
    31ec:	ba 0b       	sbc	r27, r26
    31ee:	62 0b       	sbc	r22, r18
    31f0:	73 0b       	sbc	r23, r19
    31f2:	84 0b       	sbc	r24, r20
    31f4:	ba f0       	brmi	.+46     	; 0x3224 <__addsf3x+0x9c>
    31f6:	91 50       	subi	r25, 0x01	; 1
    31f8:	a1 f0       	breq	.+40     	; 0x3222 <__addsf3x+0x9a>
    31fa:	ff 0f       	add	r31, r31
    31fc:	bb 1f       	adc	r27, r27
    31fe:	66 1f       	adc	r22, r22
    3200:	77 1f       	adc	r23, r23
    3202:	88 1f       	adc	r24, r24
    3204:	c2 f7       	brpl	.-16     	; 0x31f6 <__addsf3x+0x6e>
    3206:	0e c0       	rjmp	.+28     	; 0x3224 <__addsf3x+0x9c>
    3208:	ba 0f       	add	r27, r26
    320a:	62 1f       	adc	r22, r18
    320c:	73 1f       	adc	r23, r19
    320e:	84 1f       	adc	r24, r20
    3210:	48 f4       	brcc	.+18     	; 0x3224 <__addsf3x+0x9c>
    3212:	87 95       	ror	r24
    3214:	77 95       	ror	r23
    3216:	67 95       	ror	r22
    3218:	b7 95       	ror	r27
    321a:	f7 95       	ror	r31
    321c:	9e 3f       	cpi	r25, 0xFE	; 254
    321e:	08 f0       	brcs	.+2      	; 0x3222 <__addsf3x+0x9a>
    3220:	b0 cf       	rjmp	.-160    	; 0x3182 <__addsf3+0x28>
    3222:	93 95       	inc	r25
    3224:	88 0f       	add	r24, r24
    3226:	08 f0       	brcs	.+2      	; 0x322a <__addsf3x+0xa2>
    3228:	99 27       	eor	r25, r25
    322a:	ee 0f       	add	r30, r30
    322c:	97 95       	ror	r25
    322e:	87 95       	ror	r24
    3230:	08 95       	ret

00003232 <__cmpsf2>:
    3232:	0e 94 03 1a 	call	0x3406	; 0x3406 <__fp_cmp>
    3236:	08 f4       	brcc	.+2      	; 0x323a <__cmpsf2+0x8>
    3238:	81 e0       	ldi	r24, 0x01	; 1
    323a:	08 95       	ret

0000323c <__divsf3>:
    323c:	0e 94 32 19 	call	0x3264	; 0x3264 <__divsf3x>
    3240:	0c 94 3e 1a 	jmp	0x347c	; 0x347c <__fp_round>
    3244:	0e 94 37 1a 	call	0x346e	; 0x346e <__fp_pscB>
    3248:	58 f0       	brcs	.+22     	; 0x3260 <__divsf3+0x24>
    324a:	0e 94 30 1a 	call	0x3460	; 0x3460 <__fp_pscA>
    324e:	40 f0       	brcs	.+16     	; 0x3260 <__divsf3+0x24>
    3250:	29 f4       	brne	.+10     	; 0x325c <__divsf3+0x20>
    3252:	5f 3f       	cpi	r21, 0xFF	; 255
    3254:	29 f0       	breq	.+10     	; 0x3260 <__divsf3+0x24>
    3256:	0c 94 27 1a 	jmp	0x344e	; 0x344e <__fp_inf>
    325a:	51 11       	cpse	r21, r1
    325c:	0c 94 72 1a 	jmp	0x34e4	; 0x34e4 <__fp_szero>
    3260:	0c 94 2d 1a 	jmp	0x345a	; 0x345a <__fp_nan>

00003264 <__divsf3x>:
    3264:	0e 94 4f 1a 	call	0x349e	; 0x349e <__fp_split3>
    3268:	68 f3       	brcs	.-38     	; 0x3244 <__divsf3+0x8>

0000326a <__divsf3_pse>:
    326a:	99 23       	and	r25, r25
    326c:	b1 f3       	breq	.-20     	; 0x325a <__divsf3+0x1e>
    326e:	55 23       	and	r21, r21
    3270:	91 f3       	breq	.-28     	; 0x3256 <__divsf3+0x1a>
    3272:	95 1b       	sub	r25, r21
    3274:	55 0b       	sbc	r21, r21
    3276:	bb 27       	eor	r27, r27
    3278:	aa 27       	eor	r26, r26
    327a:	62 17       	cp	r22, r18
    327c:	73 07       	cpc	r23, r19
    327e:	84 07       	cpc	r24, r20
    3280:	38 f0       	brcs	.+14     	; 0x3290 <__divsf3_pse+0x26>
    3282:	9f 5f       	subi	r25, 0xFF	; 255
    3284:	5f 4f       	sbci	r21, 0xFF	; 255
    3286:	22 0f       	add	r18, r18
    3288:	33 1f       	adc	r19, r19
    328a:	44 1f       	adc	r20, r20
    328c:	aa 1f       	adc	r26, r26
    328e:	a9 f3       	breq	.-22     	; 0x327a <__divsf3_pse+0x10>
    3290:	35 d0       	rcall	.+106    	; 0x32fc <__divsf3_pse+0x92>
    3292:	0e 2e       	mov	r0, r30
    3294:	3a f0       	brmi	.+14     	; 0x32a4 <__divsf3_pse+0x3a>
    3296:	e0 e8       	ldi	r30, 0x80	; 128
    3298:	32 d0       	rcall	.+100    	; 0x32fe <__divsf3_pse+0x94>
    329a:	91 50       	subi	r25, 0x01	; 1
    329c:	50 40       	sbci	r21, 0x00	; 0
    329e:	e6 95       	lsr	r30
    32a0:	00 1c       	adc	r0, r0
    32a2:	ca f7       	brpl	.-14     	; 0x3296 <__divsf3_pse+0x2c>
    32a4:	2b d0       	rcall	.+86     	; 0x32fc <__divsf3_pse+0x92>
    32a6:	fe 2f       	mov	r31, r30
    32a8:	29 d0       	rcall	.+82     	; 0x32fc <__divsf3_pse+0x92>
    32aa:	66 0f       	add	r22, r22
    32ac:	77 1f       	adc	r23, r23
    32ae:	88 1f       	adc	r24, r24
    32b0:	bb 1f       	adc	r27, r27
    32b2:	26 17       	cp	r18, r22
    32b4:	37 07       	cpc	r19, r23
    32b6:	48 07       	cpc	r20, r24
    32b8:	ab 07       	cpc	r26, r27
    32ba:	b0 e8       	ldi	r27, 0x80	; 128
    32bc:	09 f0       	breq	.+2      	; 0x32c0 <__divsf3_pse+0x56>
    32be:	bb 0b       	sbc	r27, r27
    32c0:	80 2d       	mov	r24, r0
    32c2:	bf 01       	movw	r22, r30
    32c4:	ff 27       	eor	r31, r31
    32c6:	93 58       	subi	r25, 0x83	; 131
    32c8:	5f 4f       	sbci	r21, 0xFF	; 255
    32ca:	3a f0       	brmi	.+14     	; 0x32da <__divsf3_pse+0x70>
    32cc:	9e 3f       	cpi	r25, 0xFE	; 254
    32ce:	51 05       	cpc	r21, r1
    32d0:	78 f0       	brcs	.+30     	; 0x32f0 <__divsf3_pse+0x86>
    32d2:	0c 94 27 1a 	jmp	0x344e	; 0x344e <__fp_inf>
    32d6:	0c 94 72 1a 	jmp	0x34e4	; 0x34e4 <__fp_szero>
    32da:	5f 3f       	cpi	r21, 0xFF	; 255
    32dc:	e4 f3       	brlt	.-8      	; 0x32d6 <__divsf3_pse+0x6c>
    32de:	98 3e       	cpi	r25, 0xE8	; 232
    32e0:	d4 f3       	brlt	.-12     	; 0x32d6 <__divsf3_pse+0x6c>
    32e2:	86 95       	lsr	r24
    32e4:	77 95       	ror	r23
    32e6:	67 95       	ror	r22
    32e8:	b7 95       	ror	r27
    32ea:	f7 95       	ror	r31
    32ec:	9f 5f       	subi	r25, 0xFF	; 255
    32ee:	c9 f7       	brne	.-14     	; 0x32e2 <__divsf3_pse+0x78>
    32f0:	88 0f       	add	r24, r24
    32f2:	91 1d       	adc	r25, r1
    32f4:	96 95       	lsr	r25
    32f6:	87 95       	ror	r24
    32f8:	97 f9       	bld	r25, 7
    32fa:	08 95       	ret
    32fc:	e1 e0       	ldi	r30, 0x01	; 1
    32fe:	66 0f       	add	r22, r22
    3300:	77 1f       	adc	r23, r23
    3302:	88 1f       	adc	r24, r24
    3304:	bb 1f       	adc	r27, r27
    3306:	62 17       	cp	r22, r18
    3308:	73 07       	cpc	r23, r19
    330a:	84 07       	cpc	r24, r20
    330c:	ba 07       	cpc	r27, r26
    330e:	20 f0       	brcs	.+8      	; 0x3318 <__divsf3_pse+0xae>
    3310:	62 1b       	sub	r22, r18
    3312:	73 0b       	sbc	r23, r19
    3314:	84 0b       	sbc	r24, r20
    3316:	ba 0b       	sbc	r27, r26
    3318:	ee 1f       	adc	r30, r30
    331a:	88 f7       	brcc	.-30     	; 0x32fe <__divsf3_pse+0x94>
    331c:	e0 95       	com	r30
    331e:	08 95       	ret

00003320 <__fixsfsi>:
    3320:	0e 94 97 19 	call	0x332e	; 0x332e <__fixunssfsi>
    3324:	68 94       	set
    3326:	b1 11       	cpse	r27, r1
    3328:	0c 94 72 1a 	jmp	0x34e4	; 0x34e4 <__fp_szero>
    332c:	08 95       	ret

0000332e <__fixunssfsi>:
    332e:	0e 94 57 1a 	call	0x34ae	; 0x34ae <__fp_splitA>
    3332:	88 f0       	brcs	.+34     	; 0x3356 <__fixunssfsi+0x28>
    3334:	9f 57       	subi	r25, 0x7F	; 127
    3336:	98 f0       	brcs	.+38     	; 0x335e <__fixunssfsi+0x30>
    3338:	b9 2f       	mov	r27, r25
    333a:	99 27       	eor	r25, r25
    333c:	b7 51       	subi	r27, 0x17	; 23
    333e:	b0 f0       	brcs	.+44     	; 0x336c <__fixunssfsi+0x3e>
    3340:	e1 f0       	breq	.+56     	; 0x337a <__fixunssfsi+0x4c>
    3342:	66 0f       	add	r22, r22
    3344:	77 1f       	adc	r23, r23
    3346:	88 1f       	adc	r24, r24
    3348:	99 1f       	adc	r25, r25
    334a:	1a f0       	brmi	.+6      	; 0x3352 <__fixunssfsi+0x24>
    334c:	ba 95       	dec	r27
    334e:	c9 f7       	brne	.-14     	; 0x3342 <__fixunssfsi+0x14>
    3350:	14 c0       	rjmp	.+40     	; 0x337a <__fixunssfsi+0x4c>
    3352:	b1 30       	cpi	r27, 0x01	; 1
    3354:	91 f0       	breq	.+36     	; 0x337a <__fixunssfsi+0x4c>
    3356:	0e 94 71 1a 	call	0x34e2	; 0x34e2 <__fp_zero>
    335a:	b1 e0       	ldi	r27, 0x01	; 1
    335c:	08 95       	ret
    335e:	0c 94 71 1a 	jmp	0x34e2	; 0x34e2 <__fp_zero>
    3362:	67 2f       	mov	r22, r23
    3364:	78 2f       	mov	r23, r24
    3366:	88 27       	eor	r24, r24
    3368:	b8 5f       	subi	r27, 0xF8	; 248
    336a:	39 f0       	breq	.+14     	; 0x337a <__fixunssfsi+0x4c>
    336c:	b9 3f       	cpi	r27, 0xF9	; 249
    336e:	cc f3       	brlt	.-14     	; 0x3362 <__fixunssfsi+0x34>
    3370:	86 95       	lsr	r24
    3372:	77 95       	ror	r23
    3374:	67 95       	ror	r22
    3376:	b3 95       	inc	r27
    3378:	d9 f7       	brne	.-10     	; 0x3370 <__fixunssfsi+0x42>
    337a:	3e f4       	brtc	.+14     	; 0x338a <__fixunssfsi+0x5c>
    337c:	90 95       	com	r25
    337e:	80 95       	com	r24
    3380:	70 95       	com	r23
    3382:	61 95       	neg	r22
    3384:	7f 4f       	sbci	r23, 0xFF	; 255
    3386:	8f 4f       	sbci	r24, 0xFF	; 255
    3388:	9f 4f       	sbci	r25, 0xFF	; 255
    338a:	08 95       	ret

0000338c <__floatunsisf>:
    338c:	e8 94       	clt
    338e:	09 c0       	rjmp	.+18     	; 0x33a2 <__floatsisf+0x12>

00003390 <__floatsisf>:
    3390:	97 fb       	bst	r25, 7
    3392:	3e f4       	brtc	.+14     	; 0x33a2 <__floatsisf+0x12>
    3394:	90 95       	com	r25
    3396:	80 95       	com	r24
    3398:	70 95       	com	r23
    339a:	61 95       	neg	r22
    339c:	7f 4f       	sbci	r23, 0xFF	; 255
    339e:	8f 4f       	sbci	r24, 0xFF	; 255
    33a0:	9f 4f       	sbci	r25, 0xFF	; 255
    33a2:	99 23       	and	r25, r25
    33a4:	a9 f0       	breq	.+42     	; 0x33d0 <__floatsisf+0x40>
    33a6:	f9 2f       	mov	r31, r25
    33a8:	96 e9       	ldi	r25, 0x96	; 150
    33aa:	bb 27       	eor	r27, r27
    33ac:	93 95       	inc	r25
    33ae:	f6 95       	lsr	r31
    33b0:	87 95       	ror	r24
    33b2:	77 95       	ror	r23
    33b4:	67 95       	ror	r22
    33b6:	b7 95       	ror	r27
    33b8:	f1 11       	cpse	r31, r1
    33ba:	f8 cf       	rjmp	.-16     	; 0x33ac <__floatsisf+0x1c>
    33bc:	fa f4       	brpl	.+62     	; 0x33fc <__floatsisf+0x6c>
    33be:	bb 0f       	add	r27, r27
    33c0:	11 f4       	brne	.+4      	; 0x33c6 <__floatsisf+0x36>
    33c2:	60 ff       	sbrs	r22, 0
    33c4:	1b c0       	rjmp	.+54     	; 0x33fc <__floatsisf+0x6c>
    33c6:	6f 5f       	subi	r22, 0xFF	; 255
    33c8:	7f 4f       	sbci	r23, 0xFF	; 255
    33ca:	8f 4f       	sbci	r24, 0xFF	; 255
    33cc:	9f 4f       	sbci	r25, 0xFF	; 255
    33ce:	16 c0       	rjmp	.+44     	; 0x33fc <__floatsisf+0x6c>
    33d0:	88 23       	and	r24, r24
    33d2:	11 f0       	breq	.+4      	; 0x33d8 <__floatsisf+0x48>
    33d4:	96 e9       	ldi	r25, 0x96	; 150
    33d6:	11 c0       	rjmp	.+34     	; 0x33fa <__floatsisf+0x6a>
    33d8:	77 23       	and	r23, r23
    33da:	21 f0       	breq	.+8      	; 0x33e4 <__floatsisf+0x54>
    33dc:	9e e8       	ldi	r25, 0x8E	; 142
    33de:	87 2f       	mov	r24, r23
    33e0:	76 2f       	mov	r23, r22
    33e2:	05 c0       	rjmp	.+10     	; 0x33ee <__floatsisf+0x5e>
    33e4:	66 23       	and	r22, r22
    33e6:	71 f0       	breq	.+28     	; 0x3404 <__floatsisf+0x74>
    33e8:	96 e8       	ldi	r25, 0x86	; 134
    33ea:	86 2f       	mov	r24, r22
    33ec:	70 e0       	ldi	r23, 0x00	; 0
    33ee:	60 e0       	ldi	r22, 0x00	; 0
    33f0:	2a f0       	brmi	.+10     	; 0x33fc <__floatsisf+0x6c>
    33f2:	9a 95       	dec	r25
    33f4:	66 0f       	add	r22, r22
    33f6:	77 1f       	adc	r23, r23
    33f8:	88 1f       	adc	r24, r24
    33fa:	da f7       	brpl	.-10     	; 0x33f2 <__floatsisf+0x62>
    33fc:	88 0f       	add	r24, r24
    33fe:	96 95       	lsr	r25
    3400:	87 95       	ror	r24
    3402:	97 f9       	bld	r25, 7
    3404:	08 95       	ret

00003406 <__fp_cmp>:
    3406:	99 0f       	add	r25, r25
    3408:	00 08       	sbc	r0, r0
    340a:	55 0f       	add	r21, r21
    340c:	aa 0b       	sbc	r26, r26
    340e:	e0 e8       	ldi	r30, 0x80	; 128
    3410:	fe ef       	ldi	r31, 0xFE	; 254
    3412:	16 16       	cp	r1, r22
    3414:	17 06       	cpc	r1, r23
    3416:	e8 07       	cpc	r30, r24
    3418:	f9 07       	cpc	r31, r25
    341a:	c0 f0       	brcs	.+48     	; 0x344c <__fp_cmp+0x46>
    341c:	12 16       	cp	r1, r18
    341e:	13 06       	cpc	r1, r19
    3420:	e4 07       	cpc	r30, r20
    3422:	f5 07       	cpc	r31, r21
    3424:	98 f0       	brcs	.+38     	; 0x344c <__fp_cmp+0x46>
    3426:	62 1b       	sub	r22, r18
    3428:	73 0b       	sbc	r23, r19
    342a:	84 0b       	sbc	r24, r20
    342c:	95 0b       	sbc	r25, r21
    342e:	39 f4       	brne	.+14     	; 0x343e <__fp_cmp+0x38>
    3430:	0a 26       	eor	r0, r26
    3432:	61 f0       	breq	.+24     	; 0x344c <__fp_cmp+0x46>
    3434:	23 2b       	or	r18, r19
    3436:	24 2b       	or	r18, r20
    3438:	25 2b       	or	r18, r21
    343a:	21 f4       	brne	.+8      	; 0x3444 <__fp_cmp+0x3e>
    343c:	08 95       	ret
    343e:	0a 26       	eor	r0, r26
    3440:	09 f4       	brne	.+2      	; 0x3444 <__fp_cmp+0x3e>
    3442:	a1 40       	sbci	r26, 0x01	; 1
    3444:	a6 95       	lsr	r26
    3446:	8f ef       	ldi	r24, 0xFF	; 255
    3448:	81 1d       	adc	r24, r1
    344a:	81 1d       	adc	r24, r1
    344c:	08 95       	ret

0000344e <__fp_inf>:
    344e:	97 f9       	bld	r25, 7
    3450:	9f 67       	ori	r25, 0x7F	; 127
    3452:	80 e8       	ldi	r24, 0x80	; 128
    3454:	70 e0       	ldi	r23, 0x00	; 0
    3456:	60 e0       	ldi	r22, 0x00	; 0
    3458:	08 95       	ret

0000345a <__fp_nan>:
    345a:	9f ef       	ldi	r25, 0xFF	; 255
    345c:	80 ec       	ldi	r24, 0xC0	; 192
    345e:	08 95       	ret

00003460 <__fp_pscA>:
    3460:	00 24       	eor	r0, r0
    3462:	0a 94       	dec	r0
    3464:	16 16       	cp	r1, r22
    3466:	17 06       	cpc	r1, r23
    3468:	18 06       	cpc	r1, r24
    346a:	09 06       	cpc	r0, r25
    346c:	08 95       	ret

0000346e <__fp_pscB>:
    346e:	00 24       	eor	r0, r0
    3470:	0a 94       	dec	r0
    3472:	12 16       	cp	r1, r18
    3474:	13 06       	cpc	r1, r19
    3476:	14 06       	cpc	r1, r20
    3478:	05 06       	cpc	r0, r21
    347a:	08 95       	ret

0000347c <__fp_round>:
    347c:	09 2e       	mov	r0, r25
    347e:	03 94       	inc	r0
    3480:	00 0c       	add	r0, r0
    3482:	11 f4       	brne	.+4      	; 0x3488 <__fp_round+0xc>
    3484:	88 23       	and	r24, r24
    3486:	52 f0       	brmi	.+20     	; 0x349c <__fp_round+0x20>
    3488:	bb 0f       	add	r27, r27
    348a:	40 f4       	brcc	.+16     	; 0x349c <__fp_round+0x20>
    348c:	bf 2b       	or	r27, r31
    348e:	11 f4       	brne	.+4      	; 0x3494 <__fp_round+0x18>
    3490:	60 ff       	sbrs	r22, 0
    3492:	04 c0       	rjmp	.+8      	; 0x349c <__fp_round+0x20>
    3494:	6f 5f       	subi	r22, 0xFF	; 255
    3496:	7f 4f       	sbci	r23, 0xFF	; 255
    3498:	8f 4f       	sbci	r24, 0xFF	; 255
    349a:	9f 4f       	sbci	r25, 0xFF	; 255
    349c:	08 95       	ret

0000349e <__fp_split3>:
    349e:	57 fd       	sbrc	r21, 7
    34a0:	90 58       	subi	r25, 0x80	; 128
    34a2:	44 0f       	add	r20, r20
    34a4:	55 1f       	adc	r21, r21
    34a6:	59 f0       	breq	.+22     	; 0x34be <__fp_splitA+0x10>
    34a8:	5f 3f       	cpi	r21, 0xFF	; 255
    34aa:	71 f0       	breq	.+28     	; 0x34c8 <__fp_splitA+0x1a>
    34ac:	47 95       	ror	r20

000034ae <__fp_splitA>:
    34ae:	88 0f       	add	r24, r24
    34b0:	97 fb       	bst	r25, 7
    34b2:	99 1f       	adc	r25, r25
    34b4:	61 f0       	breq	.+24     	; 0x34ce <__fp_splitA+0x20>
    34b6:	9f 3f       	cpi	r25, 0xFF	; 255
    34b8:	79 f0       	breq	.+30     	; 0x34d8 <__fp_splitA+0x2a>
    34ba:	87 95       	ror	r24
    34bc:	08 95       	ret
    34be:	12 16       	cp	r1, r18
    34c0:	13 06       	cpc	r1, r19
    34c2:	14 06       	cpc	r1, r20
    34c4:	55 1f       	adc	r21, r21
    34c6:	f2 cf       	rjmp	.-28     	; 0x34ac <__fp_split3+0xe>
    34c8:	46 95       	lsr	r20
    34ca:	f1 df       	rcall	.-30     	; 0x34ae <__fp_splitA>
    34cc:	08 c0       	rjmp	.+16     	; 0x34de <__fp_splitA+0x30>
    34ce:	16 16       	cp	r1, r22
    34d0:	17 06       	cpc	r1, r23
    34d2:	18 06       	cpc	r1, r24
    34d4:	99 1f       	adc	r25, r25
    34d6:	f1 cf       	rjmp	.-30     	; 0x34ba <__fp_splitA+0xc>
    34d8:	86 95       	lsr	r24
    34da:	71 05       	cpc	r23, r1
    34dc:	61 05       	cpc	r22, r1
    34de:	08 94       	sec
    34e0:	08 95       	ret

000034e2 <__fp_zero>:
    34e2:	e8 94       	clt

000034e4 <__fp_szero>:
    34e4:	bb 27       	eor	r27, r27
    34e6:	66 27       	eor	r22, r22
    34e8:	77 27       	eor	r23, r23
    34ea:	cb 01       	movw	r24, r22
    34ec:	97 f9       	bld	r25, 7
    34ee:	08 95       	ret

000034f0 <__gesf2>:
    34f0:	0e 94 03 1a 	call	0x3406	; 0x3406 <__fp_cmp>
    34f4:	08 f4       	brcc	.+2      	; 0x34f8 <__gesf2+0x8>
    34f6:	8f ef       	ldi	r24, 0xFF	; 255
    34f8:	08 95       	ret

000034fa <__mulsf3>:
    34fa:	0e 94 90 1a 	call	0x3520	; 0x3520 <__mulsf3x>
    34fe:	0c 94 3e 1a 	jmp	0x347c	; 0x347c <__fp_round>
    3502:	0e 94 30 1a 	call	0x3460	; 0x3460 <__fp_pscA>
    3506:	38 f0       	brcs	.+14     	; 0x3516 <__mulsf3+0x1c>
    3508:	0e 94 37 1a 	call	0x346e	; 0x346e <__fp_pscB>
    350c:	20 f0       	brcs	.+8      	; 0x3516 <__mulsf3+0x1c>
    350e:	95 23       	and	r25, r21
    3510:	11 f0       	breq	.+4      	; 0x3516 <__mulsf3+0x1c>
    3512:	0c 94 27 1a 	jmp	0x344e	; 0x344e <__fp_inf>
    3516:	0c 94 2d 1a 	jmp	0x345a	; 0x345a <__fp_nan>
    351a:	11 24       	eor	r1, r1
    351c:	0c 94 72 1a 	jmp	0x34e4	; 0x34e4 <__fp_szero>

00003520 <__mulsf3x>:
    3520:	0e 94 4f 1a 	call	0x349e	; 0x349e <__fp_split3>
    3524:	70 f3       	brcs	.-36     	; 0x3502 <__mulsf3+0x8>

00003526 <__mulsf3_pse>:
    3526:	95 9f       	mul	r25, r21
    3528:	c1 f3       	breq	.-16     	; 0x351a <__mulsf3+0x20>
    352a:	95 0f       	add	r25, r21
    352c:	50 e0       	ldi	r21, 0x00	; 0
    352e:	55 1f       	adc	r21, r21
    3530:	62 9f       	mul	r22, r18
    3532:	f0 01       	movw	r30, r0
    3534:	72 9f       	mul	r23, r18
    3536:	bb 27       	eor	r27, r27
    3538:	f0 0d       	add	r31, r0
    353a:	b1 1d       	adc	r27, r1
    353c:	63 9f       	mul	r22, r19
    353e:	aa 27       	eor	r26, r26
    3540:	f0 0d       	add	r31, r0
    3542:	b1 1d       	adc	r27, r1
    3544:	aa 1f       	adc	r26, r26
    3546:	64 9f       	mul	r22, r20
    3548:	66 27       	eor	r22, r22
    354a:	b0 0d       	add	r27, r0
    354c:	a1 1d       	adc	r26, r1
    354e:	66 1f       	adc	r22, r22
    3550:	82 9f       	mul	r24, r18
    3552:	22 27       	eor	r18, r18
    3554:	b0 0d       	add	r27, r0
    3556:	a1 1d       	adc	r26, r1
    3558:	62 1f       	adc	r22, r18
    355a:	73 9f       	mul	r23, r19
    355c:	b0 0d       	add	r27, r0
    355e:	a1 1d       	adc	r26, r1
    3560:	62 1f       	adc	r22, r18
    3562:	83 9f       	mul	r24, r19
    3564:	a0 0d       	add	r26, r0
    3566:	61 1d       	adc	r22, r1
    3568:	22 1f       	adc	r18, r18
    356a:	74 9f       	mul	r23, r20
    356c:	33 27       	eor	r19, r19
    356e:	a0 0d       	add	r26, r0
    3570:	61 1d       	adc	r22, r1
    3572:	23 1f       	adc	r18, r19
    3574:	84 9f       	mul	r24, r20
    3576:	60 0d       	add	r22, r0
    3578:	21 1d       	adc	r18, r1
    357a:	82 2f       	mov	r24, r18
    357c:	76 2f       	mov	r23, r22
    357e:	6a 2f       	mov	r22, r26
    3580:	11 24       	eor	r1, r1
    3582:	9f 57       	subi	r25, 0x7F	; 127
    3584:	50 40       	sbci	r21, 0x00	; 0
    3586:	9a f0       	brmi	.+38     	; 0x35ae <__mulsf3_pse+0x88>
    3588:	f1 f0       	breq	.+60     	; 0x35c6 <__mulsf3_pse+0xa0>
    358a:	88 23       	and	r24, r24
    358c:	4a f0       	brmi	.+18     	; 0x35a0 <__mulsf3_pse+0x7a>
    358e:	ee 0f       	add	r30, r30
    3590:	ff 1f       	adc	r31, r31
    3592:	bb 1f       	adc	r27, r27
    3594:	66 1f       	adc	r22, r22
    3596:	77 1f       	adc	r23, r23
    3598:	88 1f       	adc	r24, r24
    359a:	91 50       	subi	r25, 0x01	; 1
    359c:	50 40       	sbci	r21, 0x00	; 0
    359e:	a9 f7       	brne	.-22     	; 0x358a <__mulsf3_pse+0x64>
    35a0:	9e 3f       	cpi	r25, 0xFE	; 254
    35a2:	51 05       	cpc	r21, r1
    35a4:	80 f0       	brcs	.+32     	; 0x35c6 <__mulsf3_pse+0xa0>
    35a6:	0c 94 27 1a 	jmp	0x344e	; 0x344e <__fp_inf>
    35aa:	0c 94 72 1a 	jmp	0x34e4	; 0x34e4 <__fp_szero>
    35ae:	5f 3f       	cpi	r21, 0xFF	; 255
    35b0:	e4 f3       	brlt	.-8      	; 0x35aa <__mulsf3_pse+0x84>
    35b2:	98 3e       	cpi	r25, 0xE8	; 232
    35b4:	d4 f3       	brlt	.-12     	; 0x35aa <__mulsf3_pse+0x84>
    35b6:	86 95       	lsr	r24
    35b8:	77 95       	ror	r23
    35ba:	67 95       	ror	r22
    35bc:	b7 95       	ror	r27
    35be:	f7 95       	ror	r31
    35c0:	e7 95       	ror	r30
    35c2:	9f 5f       	subi	r25, 0xFF	; 255
    35c4:	c1 f7       	brne	.-16     	; 0x35b6 <__mulsf3_pse+0x90>
    35c6:	fe 2b       	or	r31, r30
    35c8:	88 0f       	add	r24, r24
    35ca:	91 1d       	adc	r25, r1
    35cc:	96 95       	lsr	r25
    35ce:	87 95       	ror	r24
    35d0:	97 f9       	bld	r25, 7
    35d2:	08 95       	ret

000035d4 <_exit>:
    35d4:	f8 94       	cli

000035d6 <__stop_program>:
    35d6:	ff cf       	rjmp	.-2      	; 0x35d6 <__stop_program>
